
TDC_7200.elf:     file format elf32-littlearm

Sections:
Idx Name          Size      VMA       LMA       File off  Algn
  0 .isr_vector   000001bc  08000000  08000000  00010000  2**0
                  CONTENTS, ALLOC, LOAD, READONLY, DATA
  1 .text         00011a6c  080001c0  080001c0  000101c0  2**4
                  CONTENTS, ALLOC, LOAD, READONLY, CODE
  2 .rodata       00000e50  08011c30  08011c30  00021c30  2**3
                  CONTENTS, ALLOC, LOAD, READONLY, DATA
  3 .ARM.extab    00000000  08012a80  08012a80  000301dc  2**0
                  CONTENTS
  4 .ARM          00000008  08012a80  08012a80  00022a80  2**2
                  CONTENTS, ALLOC, LOAD, READONLY, DATA
  5 .preinit_array 00000000  08012a88  08012a88  000301dc  2**0
                  CONTENTS, ALLOC, LOAD, DATA
  6 .init_array   00000004  08012a88  08012a88  00022a88  2**2
                  CONTENTS, ALLOC, LOAD, DATA
  7 .fini_array   00000004  08012a8c  08012a8c  00022a8c  2**2
                  CONTENTS, ALLOC, LOAD, DATA
  8 .data         000001dc  20000000  08012a90  00030000  2**2
                  CONTENTS, ALLOC, LOAD, DATA
  9 .bss          00002ba8  200001e0  08012c6c  000301e0  2**3
                  ALLOC
 10 ._user_heap_stack 00000600  20002d88  08012c6c  00032d88  2**0
                  ALLOC
 11 .ARM.attributes 00000030  00000000  00000000  000301dc  2**0
                  CONTENTS, READONLY
 12 .debug_info   0006f4d4  00000000  00000000  0003020c  2**0
                  CONTENTS, READONLY, DEBUGGING
 13 .debug_abbrev 00005bb9  00000000  00000000  0009f6e0  2**0
                  CONTENTS, READONLY, DEBUGGING
 14 .debug_aranges 00002280  00000000  00000000  000a52a0  2**3
                  CONTENTS, READONLY, DEBUGGING
 15 .debug_ranges 00001f90  00000000  00000000  000a7520  2**3
                  CONTENTS, READONLY, DEBUGGING
 16 .debug_macro  0003102c  00000000  00000000  000a94b0  2**0
                  CONTENTS, READONLY, DEBUGGING
 17 .debug_line   0001e75f  00000000  00000000  000da4dc  2**0
                  CONTENTS, READONLY, DEBUGGING
 18 .debug_str    00124c43  00000000  00000000  000f8c3b  2**0
                  CONTENTS, READONLY, DEBUGGING
 19 .comment      0000007b  00000000  00000000  0021d87e  2**0
                  CONTENTS, READONLY
 20 .debug_frame  00009ea8  00000000  00000000  0021d8fc  2**2
                  CONTENTS, READONLY, DEBUGGING

Disassembly of section .text:

080001c0 <__do_global_dtors_aux>:
 80001c0:	b510      	push	{r4, lr}
 80001c2:	4c05      	ldr	r4, [pc, #20]	; (80001d8 <__do_global_dtors_aux+0x18>)
 80001c4:	7823      	ldrb	r3, [r4, #0]
 80001c6:	b933      	cbnz	r3, 80001d6 <__do_global_dtors_aux+0x16>
 80001c8:	4b04      	ldr	r3, [pc, #16]	; (80001dc <__do_global_dtors_aux+0x1c>)
 80001ca:	b113      	cbz	r3, 80001d2 <__do_global_dtors_aux+0x12>
 80001cc:	4804      	ldr	r0, [pc, #16]	; (80001e0 <__do_global_dtors_aux+0x20>)
 80001ce:	f3af 8000 	nop.w
 80001d2:	2301      	movs	r3, #1
 80001d4:	7023      	strb	r3, [r4, #0]
 80001d6:	bd10      	pop	{r4, pc}
 80001d8:	200001e0 	.word	0x200001e0
 80001dc:	00000000 	.word	0x00000000
 80001e0:	08011c14 	.word	0x08011c14

080001e4 <frame_dummy>:
 80001e4:	b508      	push	{r3, lr}
 80001e6:	4b03      	ldr	r3, [pc, #12]	; (80001f4 <frame_dummy+0x10>)
 80001e8:	b11b      	cbz	r3, 80001f2 <frame_dummy+0xe>
 80001ea:	4903      	ldr	r1, [pc, #12]	; (80001f8 <frame_dummy+0x14>)
 80001ec:	4803      	ldr	r0, [pc, #12]	; (80001fc <frame_dummy+0x18>)
 80001ee:	f3af 8000 	nop.w
 80001f2:	bd08      	pop	{r3, pc}
 80001f4:	00000000 	.word	0x00000000
 80001f8:	200001e4 	.word	0x200001e4
 80001fc:	08011c14 	.word	0x08011c14

08000200 <strlen>:
 8000200:	4603      	mov	r3, r0
 8000202:	f813 2b01 	ldrb.w	r2, [r3], #1
 8000206:	2a00      	cmp	r2, #0
 8000208:	d1fb      	bne.n	8000202 <strlen+0x2>
 800020a:	1a18      	subs	r0, r3, r0
 800020c:	3801      	subs	r0, #1
 800020e:	4770      	bx	lr

08000210 <memchr>:
 8000210:	f001 01ff 	and.w	r1, r1, #255	; 0xff
 8000214:	2a10      	cmp	r2, #16
 8000216:	db2b      	blt.n	8000270 <memchr+0x60>
 8000218:	f010 0f07 	tst.w	r0, #7
 800021c:	d008      	beq.n	8000230 <memchr+0x20>
 800021e:	f810 3b01 	ldrb.w	r3, [r0], #1
 8000222:	3a01      	subs	r2, #1
 8000224:	428b      	cmp	r3, r1
 8000226:	d02d      	beq.n	8000284 <memchr+0x74>
 8000228:	f010 0f07 	tst.w	r0, #7
 800022c:	b342      	cbz	r2, 8000280 <memchr+0x70>
 800022e:	d1f6      	bne.n	800021e <memchr+0xe>
 8000230:	b4f0      	push	{r4, r5, r6, r7}
 8000232:	ea41 2101 	orr.w	r1, r1, r1, lsl #8
 8000236:	ea41 4101 	orr.w	r1, r1, r1, lsl #16
 800023a:	f022 0407 	bic.w	r4, r2, #7
 800023e:	f07f 0700 	mvns.w	r7, #0
 8000242:	2300      	movs	r3, #0
 8000244:	e8f0 5602 	ldrd	r5, r6, [r0], #8
 8000248:	3c08      	subs	r4, #8
 800024a:	ea85 0501 	eor.w	r5, r5, r1
 800024e:	ea86 0601 	eor.w	r6, r6, r1
 8000252:	fa85 f547 	uadd8	r5, r5, r7
 8000256:	faa3 f587 	sel	r5, r3, r7
 800025a:	fa86 f647 	uadd8	r6, r6, r7
 800025e:	faa5 f687 	sel	r6, r5, r7
 8000262:	b98e      	cbnz	r6, 8000288 <memchr+0x78>
 8000264:	d1ee      	bne.n	8000244 <memchr+0x34>
 8000266:	bcf0      	pop	{r4, r5, r6, r7}
 8000268:	f001 01ff 	and.w	r1, r1, #255	; 0xff
 800026c:	f002 0207 	and.w	r2, r2, #7
 8000270:	b132      	cbz	r2, 8000280 <memchr+0x70>
 8000272:	f810 3b01 	ldrb.w	r3, [r0], #1
 8000276:	3a01      	subs	r2, #1
 8000278:	ea83 0301 	eor.w	r3, r3, r1
 800027c:	b113      	cbz	r3, 8000284 <memchr+0x74>
 800027e:	d1f8      	bne.n	8000272 <memchr+0x62>
 8000280:	2000      	movs	r0, #0
 8000282:	4770      	bx	lr
 8000284:	3801      	subs	r0, #1
 8000286:	4770      	bx	lr
 8000288:	2d00      	cmp	r5, #0
 800028a:	bf06      	itte	eq
 800028c:	4635      	moveq	r5, r6
 800028e:	3803      	subeq	r0, #3
 8000290:	3807      	subne	r0, #7
 8000292:	f015 0f01 	tst.w	r5, #1
 8000296:	d107      	bne.n	80002a8 <memchr+0x98>
 8000298:	3001      	adds	r0, #1
 800029a:	f415 7f80 	tst.w	r5, #256	; 0x100
 800029e:	bf02      	ittt	eq
 80002a0:	3001      	addeq	r0, #1
 80002a2:	f415 3fc0 	tsteq.w	r5, #98304	; 0x18000
 80002a6:	3001      	addeq	r0, #1
 80002a8:	bcf0      	pop	{r4, r5, r6, r7}
 80002aa:	3801      	subs	r0, #1
 80002ac:	4770      	bx	lr
 80002ae:	bf00      	nop

080002b0 <__aeabi_drsub>:
 80002b0:	f081 4100 	eor.w	r1, r1, #2147483648	; 0x80000000
 80002b4:	e002      	b.n	80002bc <__adddf3>
 80002b6:	bf00      	nop

080002b8 <__aeabi_dsub>:
 80002b8:	f083 4300 	eor.w	r3, r3, #2147483648	; 0x80000000

080002bc <__adddf3>:
 80002bc:	b530      	push	{r4, r5, lr}
 80002be:	ea4f 0441 	mov.w	r4, r1, lsl #1
 80002c2:	ea4f 0543 	mov.w	r5, r3, lsl #1
 80002c6:	ea94 0f05 	teq	r4, r5
 80002ca:	bf08      	it	eq
 80002cc:	ea90 0f02 	teqeq	r0, r2
 80002d0:	bf1f      	itttt	ne
 80002d2:	ea54 0c00 	orrsne.w	ip, r4, r0
 80002d6:	ea55 0c02 	orrsne.w	ip, r5, r2
 80002da:	ea7f 5c64 	mvnsne.w	ip, r4, asr #21
 80002de:	ea7f 5c65 	mvnsne.w	ip, r5, asr #21
 80002e2:	f000 80e2 	beq.w	80004aa <__adddf3+0x1ee>
 80002e6:	ea4f 5454 	mov.w	r4, r4, lsr #21
 80002ea:	ebd4 5555 	rsbs	r5, r4, r5, lsr #21
 80002ee:	bfb8      	it	lt
 80002f0:	426d      	neglt	r5, r5
 80002f2:	dd0c      	ble.n	800030e <__adddf3+0x52>
 80002f4:	442c      	add	r4, r5
 80002f6:	ea80 0202 	eor.w	r2, r0, r2
 80002fa:	ea81 0303 	eor.w	r3, r1, r3
 80002fe:	ea82 0000 	eor.w	r0, r2, r0
 8000302:	ea83 0101 	eor.w	r1, r3, r1
 8000306:	ea80 0202 	eor.w	r2, r0, r2
 800030a:	ea81 0303 	eor.w	r3, r1, r3
 800030e:	2d36      	cmp	r5, #54	; 0x36
 8000310:	bf88      	it	hi
 8000312:	bd30      	pophi	{r4, r5, pc}
 8000314:	f011 4f00 	tst.w	r1, #2147483648	; 0x80000000
 8000318:	ea4f 3101 	mov.w	r1, r1, lsl #12
 800031c:	f44f 1c80 	mov.w	ip, #1048576	; 0x100000
 8000320:	ea4c 3111 	orr.w	r1, ip, r1, lsr #12
 8000324:	d002      	beq.n	800032c <__adddf3+0x70>
 8000326:	4240      	negs	r0, r0
 8000328:	eb61 0141 	sbc.w	r1, r1, r1, lsl #1
 800032c:	f013 4f00 	tst.w	r3, #2147483648	; 0x80000000
 8000330:	ea4f 3303 	mov.w	r3, r3, lsl #12
 8000334:	ea4c 3313 	orr.w	r3, ip, r3, lsr #12
 8000338:	d002      	beq.n	8000340 <__adddf3+0x84>
 800033a:	4252      	negs	r2, r2
 800033c:	eb63 0343 	sbc.w	r3, r3, r3, lsl #1
 8000340:	ea94 0f05 	teq	r4, r5
 8000344:	f000 80a7 	beq.w	8000496 <__adddf3+0x1da>
 8000348:	f1a4 0401 	sub.w	r4, r4, #1
 800034c:	f1d5 0e20 	rsbs	lr, r5, #32
 8000350:	db0d      	blt.n	800036e <__adddf3+0xb2>
 8000352:	fa02 fc0e 	lsl.w	ip, r2, lr
 8000356:	fa22 f205 	lsr.w	r2, r2, r5
 800035a:	1880      	adds	r0, r0, r2
 800035c:	f141 0100 	adc.w	r1, r1, #0
 8000360:	fa03 f20e 	lsl.w	r2, r3, lr
 8000364:	1880      	adds	r0, r0, r2
 8000366:	fa43 f305 	asr.w	r3, r3, r5
 800036a:	4159      	adcs	r1, r3
 800036c:	e00e      	b.n	800038c <__adddf3+0xd0>
 800036e:	f1a5 0520 	sub.w	r5, r5, #32
 8000372:	f10e 0e20 	add.w	lr, lr, #32
 8000376:	2a01      	cmp	r2, #1
 8000378:	fa03 fc0e 	lsl.w	ip, r3, lr
 800037c:	bf28      	it	cs
 800037e:	f04c 0c02 	orrcs.w	ip, ip, #2
 8000382:	fa43 f305 	asr.w	r3, r3, r5
 8000386:	18c0      	adds	r0, r0, r3
 8000388:	eb51 71e3 	adcs.w	r1, r1, r3, asr #31
 800038c:	f001 4500 	and.w	r5, r1, #2147483648	; 0x80000000
 8000390:	d507      	bpl.n	80003a2 <__adddf3+0xe6>
 8000392:	f04f 0e00 	mov.w	lr, #0
 8000396:	f1dc 0c00 	rsbs	ip, ip, #0
 800039a:	eb7e 0000 	sbcs.w	r0, lr, r0
 800039e:	eb6e 0101 	sbc.w	r1, lr, r1
 80003a2:	f5b1 1f80 	cmp.w	r1, #1048576	; 0x100000
 80003a6:	d31b      	bcc.n	80003e0 <__adddf3+0x124>
 80003a8:	f5b1 1f00 	cmp.w	r1, #2097152	; 0x200000
 80003ac:	d30c      	bcc.n	80003c8 <__adddf3+0x10c>
 80003ae:	0849      	lsrs	r1, r1, #1
 80003b0:	ea5f 0030 	movs.w	r0, r0, rrx
 80003b4:	ea4f 0c3c 	mov.w	ip, ip, rrx
 80003b8:	f104 0401 	add.w	r4, r4, #1
 80003bc:	ea4f 5244 	mov.w	r2, r4, lsl #21
 80003c0:	f512 0f80 	cmn.w	r2, #4194304	; 0x400000
 80003c4:	f080 809a 	bcs.w	80004fc <__adddf3+0x240>
 80003c8:	f1bc 4f00 	cmp.w	ip, #2147483648	; 0x80000000
 80003cc:	bf08      	it	eq
 80003ce:	ea5f 0c50 	movseq.w	ip, r0, lsr #1
 80003d2:	f150 0000 	adcs.w	r0, r0, #0
 80003d6:	eb41 5104 	adc.w	r1, r1, r4, lsl #20
 80003da:	ea41 0105 	orr.w	r1, r1, r5
 80003de:	bd30      	pop	{r4, r5, pc}
 80003e0:	ea5f 0c4c 	movs.w	ip, ip, lsl #1
 80003e4:	4140      	adcs	r0, r0
 80003e6:	eb41 0101 	adc.w	r1, r1, r1
 80003ea:	f411 1f80 	tst.w	r1, #1048576	; 0x100000
 80003ee:	f1a4 0401 	sub.w	r4, r4, #1
 80003f2:	d1e9      	bne.n	80003c8 <__adddf3+0x10c>
 80003f4:	f091 0f00 	teq	r1, #0
 80003f8:	bf04      	itt	eq
 80003fa:	4601      	moveq	r1, r0
 80003fc:	2000      	moveq	r0, #0
 80003fe:	fab1 f381 	clz	r3, r1
 8000402:	bf08      	it	eq
 8000404:	3320      	addeq	r3, #32
 8000406:	f1a3 030b 	sub.w	r3, r3, #11
 800040a:	f1b3 0220 	subs.w	r2, r3, #32
 800040e:	da0c      	bge.n	800042a <__adddf3+0x16e>
 8000410:	320c      	adds	r2, #12
 8000412:	dd08      	ble.n	8000426 <__adddf3+0x16a>
 8000414:	f102 0c14 	add.w	ip, r2, #20
 8000418:	f1c2 020c 	rsb	r2, r2, #12
 800041c:	fa01 f00c 	lsl.w	r0, r1, ip
 8000420:	fa21 f102 	lsr.w	r1, r1, r2
 8000424:	e00c      	b.n	8000440 <__adddf3+0x184>
 8000426:	f102 0214 	add.w	r2, r2, #20
 800042a:	bfd8      	it	le
 800042c:	f1c2 0c20 	rsble	ip, r2, #32
 8000430:	fa01 f102 	lsl.w	r1, r1, r2
 8000434:	fa20 fc0c 	lsr.w	ip, r0, ip
 8000438:	bfdc      	itt	le
 800043a:	ea41 010c 	orrle.w	r1, r1, ip
 800043e:	4090      	lslle	r0, r2
 8000440:	1ae4      	subs	r4, r4, r3
 8000442:	bfa2      	ittt	ge
 8000444:	eb01 5104 	addge.w	r1, r1, r4, lsl #20
 8000448:	4329      	orrge	r1, r5
 800044a:	bd30      	popge	{r4, r5, pc}
 800044c:	ea6f 0404 	mvn.w	r4, r4
 8000450:	3c1f      	subs	r4, #31
 8000452:	da1c      	bge.n	800048e <__adddf3+0x1d2>
 8000454:	340c      	adds	r4, #12
 8000456:	dc0e      	bgt.n	8000476 <__adddf3+0x1ba>
 8000458:	f104 0414 	add.w	r4, r4, #20
 800045c:	f1c4 0220 	rsb	r2, r4, #32
 8000460:	fa20 f004 	lsr.w	r0, r0, r4
 8000464:	fa01 f302 	lsl.w	r3, r1, r2
 8000468:	ea40 0003 	orr.w	r0, r0, r3
 800046c:	fa21 f304 	lsr.w	r3, r1, r4
 8000470:	ea45 0103 	orr.w	r1, r5, r3
 8000474:	bd30      	pop	{r4, r5, pc}
 8000476:	f1c4 040c 	rsb	r4, r4, #12
 800047a:	f1c4 0220 	rsb	r2, r4, #32
 800047e:	fa20 f002 	lsr.w	r0, r0, r2
 8000482:	fa01 f304 	lsl.w	r3, r1, r4
 8000486:	ea40 0003 	orr.w	r0, r0, r3
 800048a:	4629      	mov	r1, r5
 800048c:	bd30      	pop	{r4, r5, pc}
 800048e:	fa21 f004 	lsr.w	r0, r1, r4
 8000492:	4629      	mov	r1, r5
 8000494:	bd30      	pop	{r4, r5, pc}
 8000496:	f094 0f00 	teq	r4, #0
 800049a:	f483 1380 	eor.w	r3, r3, #1048576	; 0x100000
 800049e:	bf06      	itte	eq
 80004a0:	f481 1180 	eoreq.w	r1, r1, #1048576	; 0x100000
 80004a4:	3401      	addeq	r4, #1
 80004a6:	3d01      	subne	r5, #1
 80004a8:	e74e      	b.n	8000348 <__adddf3+0x8c>
 80004aa:	ea7f 5c64 	mvns.w	ip, r4, asr #21
 80004ae:	bf18      	it	ne
 80004b0:	ea7f 5c65 	mvnsne.w	ip, r5, asr #21
 80004b4:	d029      	beq.n	800050a <__adddf3+0x24e>
 80004b6:	ea94 0f05 	teq	r4, r5
 80004ba:	bf08      	it	eq
 80004bc:	ea90 0f02 	teqeq	r0, r2
 80004c0:	d005      	beq.n	80004ce <__adddf3+0x212>
 80004c2:	ea54 0c00 	orrs.w	ip, r4, r0
 80004c6:	bf04      	itt	eq
 80004c8:	4619      	moveq	r1, r3
 80004ca:	4610      	moveq	r0, r2
 80004cc:	bd30      	pop	{r4, r5, pc}
 80004ce:	ea91 0f03 	teq	r1, r3
 80004d2:	bf1e      	ittt	ne
 80004d4:	2100      	movne	r1, #0
 80004d6:	2000      	movne	r0, #0
 80004d8:	bd30      	popne	{r4, r5, pc}
 80004da:	ea5f 5c54 	movs.w	ip, r4, lsr #21
 80004de:	d105      	bne.n	80004ec <__adddf3+0x230>
 80004e0:	0040      	lsls	r0, r0, #1
 80004e2:	4149      	adcs	r1, r1
 80004e4:	bf28      	it	cs
 80004e6:	f041 4100 	orrcs.w	r1, r1, #2147483648	; 0x80000000
 80004ea:	bd30      	pop	{r4, r5, pc}
 80004ec:	f514 0480 	adds.w	r4, r4, #4194304	; 0x400000
 80004f0:	bf3c      	itt	cc
 80004f2:	f501 1180 	addcc.w	r1, r1, #1048576	; 0x100000
 80004f6:	bd30      	popcc	{r4, r5, pc}
 80004f8:	f001 4500 	and.w	r5, r1, #2147483648	; 0x80000000
 80004fc:	f045 41fe 	orr.w	r1, r5, #2130706432	; 0x7f000000
 8000500:	f441 0170 	orr.w	r1, r1, #15728640	; 0xf00000
 8000504:	f04f 0000 	mov.w	r0, #0
 8000508:	bd30      	pop	{r4, r5, pc}
 800050a:	ea7f 5c64 	mvns.w	ip, r4, asr #21
 800050e:	bf1a      	itte	ne
 8000510:	4619      	movne	r1, r3
 8000512:	4610      	movne	r0, r2
 8000514:	ea7f 5c65 	mvnseq.w	ip, r5, asr #21
 8000518:	bf1c      	itt	ne
 800051a:	460b      	movne	r3, r1
 800051c:	4602      	movne	r2, r0
 800051e:	ea50 3401 	orrs.w	r4, r0, r1, lsl #12
 8000522:	bf06      	itte	eq
 8000524:	ea52 3503 	orrseq.w	r5, r2, r3, lsl #12
 8000528:	ea91 0f03 	teqeq	r1, r3
 800052c:	f441 2100 	orrne.w	r1, r1, #524288	; 0x80000
 8000530:	bd30      	pop	{r4, r5, pc}
 8000532:	bf00      	nop

08000534 <__aeabi_ui2d>:
 8000534:	f090 0f00 	teq	r0, #0
 8000538:	bf04      	itt	eq
 800053a:	2100      	moveq	r1, #0
 800053c:	4770      	bxeq	lr
 800053e:	b530      	push	{r4, r5, lr}
 8000540:	f44f 6480 	mov.w	r4, #1024	; 0x400
 8000544:	f104 0432 	add.w	r4, r4, #50	; 0x32
 8000548:	f04f 0500 	mov.w	r5, #0
 800054c:	f04f 0100 	mov.w	r1, #0
 8000550:	e750      	b.n	80003f4 <__adddf3+0x138>
 8000552:	bf00      	nop

08000554 <__aeabi_i2d>:
 8000554:	f090 0f00 	teq	r0, #0
 8000558:	bf04      	itt	eq
 800055a:	2100      	moveq	r1, #0
 800055c:	4770      	bxeq	lr
 800055e:	b530      	push	{r4, r5, lr}
 8000560:	f44f 6480 	mov.w	r4, #1024	; 0x400
 8000564:	f104 0432 	add.w	r4, r4, #50	; 0x32
 8000568:	f010 4500 	ands.w	r5, r0, #2147483648	; 0x80000000
 800056c:	bf48      	it	mi
 800056e:	4240      	negmi	r0, r0
 8000570:	f04f 0100 	mov.w	r1, #0
 8000574:	e73e      	b.n	80003f4 <__adddf3+0x138>
 8000576:	bf00      	nop

08000578 <__aeabi_f2d>:
 8000578:	0042      	lsls	r2, r0, #1
 800057a:	ea4f 01e2 	mov.w	r1, r2, asr #3
 800057e:	ea4f 0131 	mov.w	r1, r1, rrx
 8000582:	ea4f 7002 	mov.w	r0, r2, lsl #28
 8000586:	bf1f      	itttt	ne
 8000588:	f012 437f 	andsne.w	r3, r2, #4278190080	; 0xff000000
 800058c:	f093 4f7f 	teqne	r3, #4278190080	; 0xff000000
 8000590:	f081 5160 	eorne.w	r1, r1, #939524096	; 0x38000000
 8000594:	4770      	bxne	lr
 8000596:	f032 427f 	bics.w	r2, r2, #4278190080	; 0xff000000
 800059a:	bf08      	it	eq
 800059c:	4770      	bxeq	lr
 800059e:	f093 4f7f 	teq	r3, #4278190080	; 0xff000000
 80005a2:	bf04      	itt	eq
 80005a4:	f441 2100 	orreq.w	r1, r1, #524288	; 0x80000
 80005a8:	4770      	bxeq	lr
 80005aa:	b530      	push	{r4, r5, lr}
 80005ac:	f44f 7460 	mov.w	r4, #896	; 0x380
 80005b0:	f001 4500 	and.w	r5, r1, #2147483648	; 0x80000000
 80005b4:	f021 4100 	bic.w	r1, r1, #2147483648	; 0x80000000
 80005b8:	e71c      	b.n	80003f4 <__adddf3+0x138>
 80005ba:	bf00      	nop

080005bc <__aeabi_ul2d>:
 80005bc:	ea50 0201 	orrs.w	r2, r0, r1
 80005c0:	bf08      	it	eq
 80005c2:	4770      	bxeq	lr
 80005c4:	b530      	push	{r4, r5, lr}
 80005c6:	f04f 0500 	mov.w	r5, #0
 80005ca:	e00a      	b.n	80005e2 <__aeabi_l2d+0x16>

080005cc <__aeabi_l2d>:
 80005cc:	ea50 0201 	orrs.w	r2, r0, r1
 80005d0:	bf08      	it	eq
 80005d2:	4770      	bxeq	lr
 80005d4:	b530      	push	{r4, r5, lr}
 80005d6:	f011 4500 	ands.w	r5, r1, #2147483648	; 0x80000000
 80005da:	d502      	bpl.n	80005e2 <__aeabi_l2d+0x16>
 80005dc:	4240      	negs	r0, r0
 80005de:	eb61 0141 	sbc.w	r1, r1, r1, lsl #1
 80005e2:	f44f 6480 	mov.w	r4, #1024	; 0x400
 80005e6:	f104 0432 	add.w	r4, r4, #50	; 0x32
 80005ea:	ea5f 5c91 	movs.w	ip, r1, lsr #22
 80005ee:	f43f aed8 	beq.w	80003a2 <__adddf3+0xe6>
 80005f2:	f04f 0203 	mov.w	r2, #3
 80005f6:	ea5f 0cdc 	movs.w	ip, ip, lsr #3
 80005fa:	bf18      	it	ne
 80005fc:	3203      	addne	r2, #3
 80005fe:	ea5f 0cdc 	movs.w	ip, ip, lsr #3
 8000602:	bf18      	it	ne
 8000604:	3203      	addne	r2, #3
 8000606:	eb02 02dc 	add.w	r2, r2, ip, lsr #3
 800060a:	f1c2 0320 	rsb	r3, r2, #32
 800060e:	fa00 fc03 	lsl.w	ip, r0, r3
 8000612:	fa20 f002 	lsr.w	r0, r0, r2
 8000616:	fa01 fe03 	lsl.w	lr, r1, r3
 800061a:	ea40 000e 	orr.w	r0, r0, lr
 800061e:	fa21 f102 	lsr.w	r1, r1, r2
 8000622:	4414      	add	r4, r2
 8000624:	e6bd      	b.n	80003a2 <__adddf3+0xe6>
 8000626:	bf00      	nop

08000628 <__aeabi_dmul>:
 8000628:	b570      	push	{r4, r5, r6, lr}
 800062a:	f04f 0cff 	mov.w	ip, #255	; 0xff
 800062e:	f44c 6ce0 	orr.w	ip, ip, #1792	; 0x700
 8000632:	ea1c 5411 	ands.w	r4, ip, r1, lsr #20
 8000636:	bf1d      	ittte	ne
 8000638:	ea1c 5513 	andsne.w	r5, ip, r3, lsr #20
 800063c:	ea94 0f0c 	teqne	r4, ip
 8000640:	ea95 0f0c 	teqne	r5, ip
 8000644:	f000 f8de 	bleq	8000804 <__aeabi_dmul+0x1dc>
 8000648:	442c      	add	r4, r5
 800064a:	ea81 0603 	eor.w	r6, r1, r3
 800064e:	ea21 514c 	bic.w	r1, r1, ip, lsl #21
 8000652:	ea23 534c 	bic.w	r3, r3, ip, lsl #21
 8000656:	ea50 3501 	orrs.w	r5, r0, r1, lsl #12
 800065a:	bf18      	it	ne
 800065c:	ea52 3503 	orrsne.w	r5, r2, r3, lsl #12
 8000660:	f441 1180 	orr.w	r1, r1, #1048576	; 0x100000
 8000664:	f443 1380 	orr.w	r3, r3, #1048576	; 0x100000
 8000668:	d038      	beq.n	80006dc <__aeabi_dmul+0xb4>
 800066a:	fba0 ce02 	umull	ip, lr, r0, r2
 800066e:	f04f 0500 	mov.w	r5, #0
 8000672:	fbe1 e502 	umlal	lr, r5, r1, r2
 8000676:	f006 4200 	and.w	r2, r6, #2147483648	; 0x80000000
 800067a:	fbe0 e503 	umlal	lr, r5, r0, r3
 800067e:	f04f 0600 	mov.w	r6, #0
 8000682:	fbe1 5603 	umlal	r5, r6, r1, r3
 8000686:	f09c 0f00 	teq	ip, #0
 800068a:	bf18      	it	ne
 800068c:	f04e 0e01 	orrne.w	lr, lr, #1
 8000690:	f1a4 04ff 	sub.w	r4, r4, #255	; 0xff
 8000694:	f5b6 7f00 	cmp.w	r6, #512	; 0x200
 8000698:	f564 7440 	sbc.w	r4, r4, #768	; 0x300
 800069c:	d204      	bcs.n	80006a8 <__aeabi_dmul+0x80>
 800069e:	ea5f 0e4e 	movs.w	lr, lr, lsl #1
 80006a2:	416d      	adcs	r5, r5
 80006a4:	eb46 0606 	adc.w	r6, r6, r6
 80006a8:	ea42 21c6 	orr.w	r1, r2, r6, lsl #11
 80006ac:	ea41 5155 	orr.w	r1, r1, r5, lsr #21
 80006b0:	ea4f 20c5 	mov.w	r0, r5, lsl #11
 80006b4:	ea40 505e 	orr.w	r0, r0, lr, lsr #21
 80006b8:	ea4f 2ece 	mov.w	lr, lr, lsl #11
 80006bc:	f1b4 0cfd 	subs.w	ip, r4, #253	; 0xfd
 80006c0:	bf88      	it	hi
 80006c2:	f5bc 6fe0 	cmphi.w	ip, #1792	; 0x700
 80006c6:	d81e      	bhi.n	8000706 <__aeabi_dmul+0xde>
 80006c8:	f1be 4f00 	cmp.w	lr, #2147483648	; 0x80000000
 80006cc:	bf08      	it	eq
 80006ce:	ea5f 0e50 	movseq.w	lr, r0, lsr #1
 80006d2:	f150 0000 	adcs.w	r0, r0, #0
 80006d6:	eb41 5104 	adc.w	r1, r1, r4, lsl #20
 80006da:	bd70      	pop	{r4, r5, r6, pc}
 80006dc:	f006 4600 	and.w	r6, r6, #2147483648	; 0x80000000
 80006e0:	ea46 0101 	orr.w	r1, r6, r1
 80006e4:	ea40 0002 	orr.w	r0, r0, r2
 80006e8:	ea81 0103 	eor.w	r1, r1, r3
 80006ec:	ebb4 045c 	subs.w	r4, r4, ip, lsr #1
 80006f0:	bfc2      	ittt	gt
 80006f2:	ebd4 050c 	rsbsgt	r5, r4, ip
 80006f6:	ea41 5104 	orrgt.w	r1, r1, r4, lsl #20
 80006fa:	bd70      	popgt	{r4, r5, r6, pc}
 80006fc:	f441 1180 	orr.w	r1, r1, #1048576	; 0x100000
 8000700:	f04f 0e00 	mov.w	lr, #0
 8000704:	3c01      	subs	r4, #1
 8000706:	f300 80ab 	bgt.w	8000860 <__aeabi_dmul+0x238>
 800070a:	f114 0f36 	cmn.w	r4, #54	; 0x36
 800070e:	bfde      	ittt	le
 8000710:	2000      	movle	r0, #0
 8000712:	f001 4100 	andle.w	r1, r1, #2147483648	; 0x80000000
 8000716:	bd70      	pople	{r4, r5, r6, pc}
 8000718:	f1c4 0400 	rsb	r4, r4, #0
 800071c:	3c20      	subs	r4, #32
 800071e:	da35      	bge.n	800078c <__aeabi_dmul+0x164>
 8000720:	340c      	adds	r4, #12
 8000722:	dc1b      	bgt.n	800075c <__aeabi_dmul+0x134>
 8000724:	f104 0414 	add.w	r4, r4, #20
 8000728:	f1c4 0520 	rsb	r5, r4, #32
 800072c:	fa00 f305 	lsl.w	r3, r0, r5
 8000730:	fa20 f004 	lsr.w	r0, r0, r4
 8000734:	fa01 f205 	lsl.w	r2, r1, r5
 8000738:	ea40 0002 	orr.w	r0, r0, r2
 800073c:	f001 4200 	and.w	r2, r1, #2147483648	; 0x80000000
 8000740:	f021 4100 	bic.w	r1, r1, #2147483648	; 0x80000000
 8000744:	eb10 70d3 	adds.w	r0, r0, r3, lsr #31
 8000748:	fa21 f604 	lsr.w	r6, r1, r4
 800074c:	eb42 0106 	adc.w	r1, r2, r6
 8000750:	ea5e 0e43 	orrs.w	lr, lr, r3, lsl #1
 8000754:	bf08      	it	eq
 8000756:	ea20 70d3 	biceq.w	r0, r0, r3, lsr #31
 800075a:	bd70      	pop	{r4, r5, r6, pc}
 800075c:	f1c4 040c 	rsb	r4, r4, #12
 8000760:	f1c4 0520 	rsb	r5, r4, #32
 8000764:	fa00 f304 	lsl.w	r3, r0, r4
 8000768:	fa20 f005 	lsr.w	r0, r0, r5
 800076c:	fa01 f204 	lsl.w	r2, r1, r4
 8000770:	ea40 0002 	orr.w	r0, r0, r2
 8000774:	f001 4100 	and.w	r1, r1, #2147483648	; 0x80000000
 8000778:	eb10 70d3 	adds.w	r0, r0, r3, lsr #31
 800077c:	f141 0100 	adc.w	r1, r1, #0
 8000780:	ea5e 0e43 	orrs.w	lr, lr, r3, lsl #1
 8000784:	bf08      	it	eq
 8000786:	ea20 70d3 	biceq.w	r0, r0, r3, lsr #31
 800078a:	bd70      	pop	{r4, r5, r6, pc}
 800078c:	f1c4 0520 	rsb	r5, r4, #32
 8000790:	fa00 f205 	lsl.w	r2, r0, r5
 8000794:	ea4e 0e02 	orr.w	lr, lr, r2
 8000798:	fa20 f304 	lsr.w	r3, r0, r4
 800079c:	fa01 f205 	lsl.w	r2, r1, r5
 80007a0:	ea43 0302 	orr.w	r3, r3, r2
 80007a4:	fa21 f004 	lsr.w	r0, r1, r4
 80007a8:	f001 4100 	and.w	r1, r1, #2147483648	; 0x80000000
 80007ac:	fa21 f204 	lsr.w	r2, r1, r4
 80007b0:	ea20 0002 	bic.w	r0, r0, r2
 80007b4:	eb00 70d3 	add.w	r0, r0, r3, lsr #31
 80007b8:	ea5e 0e43 	orrs.w	lr, lr, r3, lsl #1
 80007bc:	bf08      	it	eq
 80007be:	ea20 70d3 	biceq.w	r0, r0, r3, lsr #31
 80007c2:	bd70      	pop	{r4, r5, r6, pc}
 80007c4:	f094 0f00 	teq	r4, #0
 80007c8:	d10f      	bne.n	80007ea <__aeabi_dmul+0x1c2>
 80007ca:	f001 4600 	and.w	r6, r1, #2147483648	; 0x80000000
 80007ce:	0040      	lsls	r0, r0, #1
 80007d0:	eb41 0101 	adc.w	r1, r1, r1
 80007d4:	f411 1f80 	tst.w	r1, #1048576	; 0x100000
 80007d8:	bf08      	it	eq
 80007da:	3c01      	subeq	r4, #1
 80007dc:	d0f7      	beq.n	80007ce <__aeabi_dmul+0x1a6>
 80007de:	ea41 0106 	orr.w	r1, r1, r6
 80007e2:	f095 0f00 	teq	r5, #0
 80007e6:	bf18      	it	ne
 80007e8:	4770      	bxne	lr
 80007ea:	f003 4600 	and.w	r6, r3, #2147483648	; 0x80000000
 80007ee:	0052      	lsls	r2, r2, #1
 80007f0:	eb43 0303 	adc.w	r3, r3, r3
 80007f4:	f413 1f80 	tst.w	r3, #1048576	; 0x100000
 80007f8:	bf08      	it	eq
 80007fa:	3d01      	subeq	r5, #1
 80007fc:	d0f7      	beq.n	80007ee <__aeabi_dmul+0x1c6>
 80007fe:	ea43 0306 	orr.w	r3, r3, r6
 8000802:	4770      	bx	lr
 8000804:	ea94 0f0c 	teq	r4, ip
 8000808:	ea0c 5513 	and.w	r5, ip, r3, lsr #20
 800080c:	bf18      	it	ne
 800080e:	ea95 0f0c 	teqne	r5, ip
 8000812:	d00c      	beq.n	800082e <__aeabi_dmul+0x206>
 8000814:	ea50 0641 	orrs.w	r6, r0, r1, lsl #1
 8000818:	bf18      	it	ne
 800081a:	ea52 0643 	orrsne.w	r6, r2, r3, lsl #1
 800081e:	d1d1      	bne.n	80007c4 <__aeabi_dmul+0x19c>
 8000820:	ea81 0103 	eor.w	r1, r1, r3
 8000824:	f001 4100 	and.w	r1, r1, #2147483648	; 0x80000000
 8000828:	f04f 0000 	mov.w	r0, #0
 800082c:	bd70      	pop	{r4, r5, r6, pc}
 800082e:	ea50 0641 	orrs.w	r6, r0, r1, lsl #1
 8000832:	bf06      	itte	eq
 8000834:	4610      	moveq	r0, r2
 8000836:	4619      	moveq	r1, r3
 8000838:	ea52 0643 	orrsne.w	r6, r2, r3, lsl #1
 800083c:	d019      	beq.n	8000872 <__aeabi_dmul+0x24a>
 800083e:	ea94 0f0c 	teq	r4, ip
 8000842:	d102      	bne.n	800084a <__aeabi_dmul+0x222>
 8000844:	ea50 3601 	orrs.w	r6, r0, r1, lsl #12
 8000848:	d113      	bne.n	8000872 <__aeabi_dmul+0x24a>
 800084a:	ea95 0f0c 	teq	r5, ip
 800084e:	d105      	bne.n	800085c <__aeabi_dmul+0x234>
 8000850:	ea52 3603 	orrs.w	r6, r2, r3, lsl #12
 8000854:	bf1c      	itt	ne
 8000856:	4610      	movne	r0, r2
 8000858:	4619      	movne	r1, r3
 800085a:	d10a      	bne.n	8000872 <__aeabi_dmul+0x24a>
 800085c:	ea81 0103 	eor.w	r1, r1, r3
 8000860:	f001 4100 	and.w	r1, r1, #2147483648	; 0x80000000
 8000864:	f041 41fe 	orr.w	r1, r1, #2130706432	; 0x7f000000
 8000868:	f441 0170 	orr.w	r1, r1, #15728640	; 0xf00000
 800086c:	f04f 0000 	mov.w	r0, #0
 8000870:	bd70      	pop	{r4, r5, r6, pc}
 8000872:	f041 41fe 	orr.w	r1, r1, #2130706432	; 0x7f000000
 8000876:	f441 0178 	orr.w	r1, r1, #16252928	; 0xf80000
 800087a:	bd70      	pop	{r4, r5, r6, pc}

0800087c <__aeabi_ddiv>:
 800087c:	b570      	push	{r4, r5, r6, lr}
 800087e:	f04f 0cff 	mov.w	ip, #255	; 0xff
 8000882:	f44c 6ce0 	orr.w	ip, ip, #1792	; 0x700
 8000886:	ea1c 5411 	ands.w	r4, ip, r1, lsr #20
 800088a:	bf1d      	ittte	ne
 800088c:	ea1c 5513 	andsne.w	r5, ip, r3, lsr #20
 8000890:	ea94 0f0c 	teqne	r4, ip
 8000894:	ea95 0f0c 	teqne	r5, ip
 8000898:	f000 f8a7 	bleq	80009ea <__aeabi_ddiv+0x16e>
 800089c:	eba4 0405 	sub.w	r4, r4, r5
 80008a0:	ea81 0e03 	eor.w	lr, r1, r3
 80008a4:	ea52 3503 	orrs.w	r5, r2, r3, lsl #12
 80008a8:	ea4f 3101 	mov.w	r1, r1, lsl #12
 80008ac:	f000 8088 	beq.w	80009c0 <__aeabi_ddiv+0x144>
 80008b0:	ea4f 3303 	mov.w	r3, r3, lsl #12
 80008b4:	f04f 5580 	mov.w	r5, #268435456	; 0x10000000
 80008b8:	ea45 1313 	orr.w	r3, r5, r3, lsr #4
 80008bc:	ea43 6312 	orr.w	r3, r3, r2, lsr #24
 80008c0:	ea4f 2202 	mov.w	r2, r2, lsl #8
 80008c4:	ea45 1511 	orr.w	r5, r5, r1, lsr #4
 80008c8:	ea45 6510 	orr.w	r5, r5, r0, lsr #24
 80008cc:	ea4f 2600 	mov.w	r6, r0, lsl #8
 80008d0:	f00e 4100 	and.w	r1, lr, #2147483648	; 0x80000000
 80008d4:	429d      	cmp	r5, r3
 80008d6:	bf08      	it	eq
 80008d8:	4296      	cmpeq	r6, r2
 80008da:	f144 04fd 	adc.w	r4, r4, #253	; 0xfd
 80008de:	f504 7440 	add.w	r4, r4, #768	; 0x300
 80008e2:	d202      	bcs.n	80008ea <__aeabi_ddiv+0x6e>
 80008e4:	085b      	lsrs	r3, r3, #1
 80008e6:	ea4f 0232 	mov.w	r2, r2, rrx
 80008ea:	1ab6      	subs	r6, r6, r2
 80008ec:	eb65 0503 	sbc.w	r5, r5, r3
 80008f0:	085b      	lsrs	r3, r3, #1
 80008f2:	ea4f 0232 	mov.w	r2, r2, rrx
 80008f6:	f44f 1080 	mov.w	r0, #1048576	; 0x100000
 80008fa:	f44f 2c00 	mov.w	ip, #524288	; 0x80000
 80008fe:	ebb6 0e02 	subs.w	lr, r6, r2
 8000902:	eb75 0e03 	sbcs.w	lr, r5, r3
 8000906:	bf22      	ittt	cs
 8000908:	1ab6      	subcs	r6, r6, r2
 800090a:	4675      	movcs	r5, lr
 800090c:	ea40 000c 	orrcs.w	r0, r0, ip
 8000910:	085b      	lsrs	r3, r3, #1
 8000912:	ea4f 0232 	mov.w	r2, r2, rrx
 8000916:	ebb6 0e02 	subs.w	lr, r6, r2
 800091a:	eb75 0e03 	sbcs.w	lr, r5, r3
 800091e:	bf22      	ittt	cs
 8000920:	1ab6      	subcs	r6, r6, r2
 8000922:	4675      	movcs	r5, lr
 8000924:	ea40 005c 	orrcs.w	r0, r0, ip, lsr #1
 8000928:	085b      	lsrs	r3, r3, #1
 800092a:	ea4f 0232 	mov.w	r2, r2, rrx
 800092e:	ebb6 0e02 	subs.w	lr, r6, r2
 8000932:	eb75 0e03 	sbcs.w	lr, r5, r3
 8000936:	bf22      	ittt	cs
 8000938:	1ab6      	subcs	r6, r6, r2
 800093a:	4675      	movcs	r5, lr
 800093c:	ea40 009c 	orrcs.w	r0, r0, ip, lsr #2
 8000940:	085b      	lsrs	r3, r3, #1
 8000942:	ea4f 0232 	mov.w	r2, r2, rrx
 8000946:	ebb6 0e02 	subs.w	lr, r6, r2
 800094a:	eb75 0e03 	sbcs.w	lr, r5, r3
 800094e:	bf22      	ittt	cs
 8000950:	1ab6      	subcs	r6, r6, r2
 8000952:	4675      	movcs	r5, lr
 8000954:	ea40 00dc 	orrcs.w	r0, r0, ip, lsr #3
 8000958:	ea55 0e06 	orrs.w	lr, r5, r6
 800095c:	d018      	beq.n	8000990 <__aeabi_ddiv+0x114>
 800095e:	ea4f 1505 	mov.w	r5, r5, lsl #4
 8000962:	ea45 7516 	orr.w	r5, r5, r6, lsr #28
 8000966:	ea4f 1606 	mov.w	r6, r6, lsl #4
 800096a:	ea4f 03c3 	mov.w	r3, r3, lsl #3
 800096e:	ea43 7352 	orr.w	r3, r3, r2, lsr #29
 8000972:	ea4f 02c2 	mov.w	r2, r2, lsl #3
 8000976:	ea5f 1c1c 	movs.w	ip, ip, lsr #4
 800097a:	d1c0      	bne.n	80008fe <__aeabi_ddiv+0x82>
 800097c:	f411 1f80 	tst.w	r1, #1048576	; 0x100000
 8000980:	d10b      	bne.n	800099a <__aeabi_ddiv+0x11e>
 8000982:	ea41 0100 	orr.w	r1, r1, r0
 8000986:	f04f 0000 	mov.w	r0, #0
 800098a:	f04f 4c00 	mov.w	ip, #2147483648	; 0x80000000
 800098e:	e7b6      	b.n	80008fe <__aeabi_ddiv+0x82>
 8000990:	f411 1f80 	tst.w	r1, #1048576	; 0x100000
 8000994:	bf04      	itt	eq
 8000996:	4301      	orreq	r1, r0
 8000998:	2000      	moveq	r0, #0
 800099a:	f1b4 0cfd 	subs.w	ip, r4, #253	; 0xfd
 800099e:	bf88      	it	hi
 80009a0:	f5bc 6fe0 	cmphi.w	ip, #1792	; 0x700
 80009a4:	f63f aeaf 	bhi.w	8000706 <__aeabi_dmul+0xde>
 80009a8:	ebb5 0c03 	subs.w	ip, r5, r3
 80009ac:	bf04      	itt	eq
 80009ae:	ebb6 0c02 	subseq.w	ip, r6, r2
 80009b2:	ea5f 0c50 	movseq.w	ip, r0, lsr #1
 80009b6:	f150 0000 	adcs.w	r0, r0, #0
 80009ba:	eb41 5104 	adc.w	r1, r1, r4, lsl #20
 80009be:	bd70      	pop	{r4, r5, r6, pc}
 80009c0:	f00e 4e00 	and.w	lr, lr, #2147483648	; 0x80000000
 80009c4:	ea4e 3111 	orr.w	r1, lr, r1, lsr #12
 80009c8:	eb14 045c 	adds.w	r4, r4, ip, lsr #1
 80009cc:	bfc2      	ittt	gt
 80009ce:	ebd4 050c 	rsbsgt	r5, r4, ip
 80009d2:	ea41 5104 	orrgt.w	r1, r1, r4, lsl #20
 80009d6:	bd70      	popgt	{r4, r5, r6, pc}
 80009d8:	f441 1180 	orr.w	r1, r1, #1048576	; 0x100000
 80009dc:	f04f 0e00 	mov.w	lr, #0
 80009e0:	3c01      	subs	r4, #1
 80009e2:	e690      	b.n	8000706 <__aeabi_dmul+0xde>
 80009e4:	ea45 0e06 	orr.w	lr, r5, r6
 80009e8:	e68d      	b.n	8000706 <__aeabi_dmul+0xde>
 80009ea:	ea0c 5513 	and.w	r5, ip, r3, lsr #20
 80009ee:	ea94 0f0c 	teq	r4, ip
 80009f2:	bf08      	it	eq
 80009f4:	ea95 0f0c 	teqeq	r5, ip
 80009f8:	f43f af3b 	beq.w	8000872 <__aeabi_dmul+0x24a>
 80009fc:	ea94 0f0c 	teq	r4, ip
 8000a00:	d10a      	bne.n	8000a18 <__aeabi_ddiv+0x19c>
 8000a02:	ea50 3401 	orrs.w	r4, r0, r1, lsl #12
 8000a06:	f47f af34 	bne.w	8000872 <__aeabi_dmul+0x24a>
 8000a0a:	ea95 0f0c 	teq	r5, ip
 8000a0e:	f47f af25 	bne.w	800085c <__aeabi_dmul+0x234>
 8000a12:	4610      	mov	r0, r2
 8000a14:	4619      	mov	r1, r3
 8000a16:	e72c      	b.n	8000872 <__aeabi_dmul+0x24a>
 8000a18:	ea95 0f0c 	teq	r5, ip
 8000a1c:	d106      	bne.n	8000a2c <__aeabi_ddiv+0x1b0>
 8000a1e:	ea52 3503 	orrs.w	r5, r2, r3, lsl #12
 8000a22:	f43f aefd 	beq.w	8000820 <__aeabi_dmul+0x1f8>
 8000a26:	4610      	mov	r0, r2
 8000a28:	4619      	mov	r1, r3
 8000a2a:	e722      	b.n	8000872 <__aeabi_dmul+0x24a>
 8000a2c:	ea50 0641 	orrs.w	r6, r0, r1, lsl #1
 8000a30:	bf18      	it	ne
 8000a32:	ea52 0643 	orrsne.w	r6, r2, r3, lsl #1
 8000a36:	f47f aec5 	bne.w	80007c4 <__aeabi_dmul+0x19c>
 8000a3a:	ea50 0441 	orrs.w	r4, r0, r1, lsl #1
 8000a3e:	f47f af0d 	bne.w	800085c <__aeabi_dmul+0x234>
 8000a42:	ea52 0543 	orrs.w	r5, r2, r3, lsl #1
 8000a46:	f47f aeeb 	bne.w	8000820 <__aeabi_dmul+0x1f8>
 8000a4a:	e712      	b.n	8000872 <__aeabi_dmul+0x24a>

08000a4c <__gedf2>:
 8000a4c:	f04f 3cff 	mov.w	ip, #4294967295
 8000a50:	e006      	b.n	8000a60 <__cmpdf2+0x4>
 8000a52:	bf00      	nop

08000a54 <__ledf2>:
 8000a54:	f04f 0c01 	mov.w	ip, #1
 8000a58:	e002      	b.n	8000a60 <__cmpdf2+0x4>
 8000a5a:	bf00      	nop

08000a5c <__cmpdf2>:
 8000a5c:	f04f 0c01 	mov.w	ip, #1
 8000a60:	f84d cd04 	str.w	ip, [sp, #-4]!
 8000a64:	ea4f 0c41 	mov.w	ip, r1, lsl #1
 8000a68:	ea7f 5c6c 	mvns.w	ip, ip, asr #21
 8000a6c:	ea4f 0c43 	mov.w	ip, r3, lsl #1
 8000a70:	bf18      	it	ne
 8000a72:	ea7f 5c6c 	mvnsne.w	ip, ip, asr #21
 8000a76:	d01b      	beq.n	8000ab0 <__cmpdf2+0x54>
 8000a78:	b001      	add	sp, #4
 8000a7a:	ea50 0c41 	orrs.w	ip, r0, r1, lsl #1
 8000a7e:	bf0c      	ite	eq
 8000a80:	ea52 0c43 	orrseq.w	ip, r2, r3, lsl #1
 8000a84:	ea91 0f03 	teqne	r1, r3
 8000a88:	bf02      	ittt	eq
 8000a8a:	ea90 0f02 	teqeq	r0, r2
 8000a8e:	2000      	moveq	r0, #0
 8000a90:	4770      	bxeq	lr
 8000a92:	f110 0f00 	cmn.w	r0, #0
 8000a96:	ea91 0f03 	teq	r1, r3
 8000a9a:	bf58      	it	pl
 8000a9c:	4299      	cmppl	r1, r3
 8000a9e:	bf08      	it	eq
 8000aa0:	4290      	cmpeq	r0, r2
 8000aa2:	bf2c      	ite	cs
 8000aa4:	17d8      	asrcs	r0, r3, #31
 8000aa6:	ea6f 70e3 	mvncc.w	r0, r3, asr #31
 8000aaa:	f040 0001 	orr.w	r0, r0, #1
 8000aae:	4770      	bx	lr
 8000ab0:	ea4f 0c41 	mov.w	ip, r1, lsl #1
 8000ab4:	ea7f 5c6c 	mvns.w	ip, ip, asr #21
 8000ab8:	d102      	bne.n	8000ac0 <__cmpdf2+0x64>
 8000aba:	ea50 3c01 	orrs.w	ip, r0, r1, lsl #12
 8000abe:	d107      	bne.n	8000ad0 <__cmpdf2+0x74>
 8000ac0:	ea4f 0c43 	mov.w	ip, r3, lsl #1
 8000ac4:	ea7f 5c6c 	mvns.w	ip, ip, asr #21
 8000ac8:	d1d6      	bne.n	8000a78 <__cmpdf2+0x1c>
 8000aca:	ea52 3c03 	orrs.w	ip, r2, r3, lsl #12
 8000ace:	d0d3      	beq.n	8000a78 <__cmpdf2+0x1c>
 8000ad0:	f85d 0b04 	ldr.w	r0, [sp], #4
 8000ad4:	4770      	bx	lr
 8000ad6:	bf00      	nop

08000ad8 <__aeabi_cdrcmple>:
 8000ad8:	4684      	mov	ip, r0
 8000ada:	4610      	mov	r0, r2
 8000adc:	4662      	mov	r2, ip
 8000ade:	468c      	mov	ip, r1
 8000ae0:	4619      	mov	r1, r3
 8000ae2:	4663      	mov	r3, ip
 8000ae4:	e000      	b.n	8000ae8 <__aeabi_cdcmpeq>
 8000ae6:	bf00      	nop

08000ae8 <__aeabi_cdcmpeq>:
 8000ae8:	b501      	push	{r0, lr}
 8000aea:	f7ff ffb7 	bl	8000a5c <__cmpdf2>
 8000aee:	2800      	cmp	r0, #0
 8000af0:	bf48      	it	mi
 8000af2:	f110 0f00 	cmnmi.w	r0, #0
 8000af6:	bd01      	pop	{r0, pc}

08000af8 <__aeabi_dcmpeq>:
 8000af8:	f84d ed08 	str.w	lr, [sp, #-8]!
 8000afc:	f7ff fff4 	bl	8000ae8 <__aeabi_cdcmpeq>
 8000b00:	bf0c      	ite	eq
 8000b02:	2001      	moveq	r0, #1
 8000b04:	2000      	movne	r0, #0
 8000b06:	f85d fb08 	ldr.w	pc, [sp], #8
 8000b0a:	bf00      	nop

08000b0c <__aeabi_dcmplt>:
 8000b0c:	f84d ed08 	str.w	lr, [sp, #-8]!
 8000b10:	f7ff ffea 	bl	8000ae8 <__aeabi_cdcmpeq>
 8000b14:	bf34      	ite	cc
 8000b16:	2001      	movcc	r0, #1
 8000b18:	2000      	movcs	r0, #0
 8000b1a:	f85d fb08 	ldr.w	pc, [sp], #8
 8000b1e:	bf00      	nop

08000b20 <__aeabi_dcmple>:
 8000b20:	f84d ed08 	str.w	lr, [sp, #-8]!
 8000b24:	f7ff ffe0 	bl	8000ae8 <__aeabi_cdcmpeq>
 8000b28:	bf94      	ite	ls
 8000b2a:	2001      	movls	r0, #1
 8000b2c:	2000      	movhi	r0, #0
 8000b2e:	f85d fb08 	ldr.w	pc, [sp], #8
 8000b32:	bf00      	nop

08000b34 <__aeabi_dcmpge>:
 8000b34:	f84d ed08 	str.w	lr, [sp, #-8]!
 8000b38:	f7ff ffce 	bl	8000ad8 <__aeabi_cdrcmple>
 8000b3c:	bf94      	ite	ls
 8000b3e:	2001      	movls	r0, #1
 8000b40:	2000      	movhi	r0, #0
 8000b42:	f85d fb08 	ldr.w	pc, [sp], #8
 8000b46:	bf00      	nop

08000b48 <__aeabi_dcmpgt>:
 8000b48:	f84d ed08 	str.w	lr, [sp, #-8]!
 8000b4c:	f7ff ffc4 	bl	8000ad8 <__aeabi_cdrcmple>
 8000b50:	bf34      	ite	cc
 8000b52:	2001      	movcc	r0, #1
 8000b54:	2000      	movcs	r0, #0
 8000b56:	f85d fb08 	ldr.w	pc, [sp], #8
 8000b5a:	bf00      	nop

08000b5c <__aeabi_dcmpun>:
 8000b5c:	ea4f 0c41 	mov.w	ip, r1, lsl #1
 8000b60:	ea7f 5c6c 	mvns.w	ip, ip, asr #21
 8000b64:	d102      	bne.n	8000b6c <__aeabi_dcmpun+0x10>
 8000b66:	ea50 3c01 	orrs.w	ip, r0, r1, lsl #12
 8000b6a:	d10a      	bne.n	8000b82 <__aeabi_dcmpun+0x26>
 8000b6c:	ea4f 0c43 	mov.w	ip, r3, lsl #1
 8000b70:	ea7f 5c6c 	mvns.w	ip, ip, asr #21
 8000b74:	d102      	bne.n	8000b7c <__aeabi_dcmpun+0x20>
 8000b76:	ea52 3c03 	orrs.w	ip, r2, r3, lsl #12
 8000b7a:	d102      	bne.n	8000b82 <__aeabi_dcmpun+0x26>
 8000b7c:	f04f 0000 	mov.w	r0, #0
 8000b80:	4770      	bx	lr
 8000b82:	f04f 0001 	mov.w	r0, #1
 8000b86:	4770      	bx	lr

08000b88 <__aeabi_d2iz>:
 8000b88:	ea4f 0241 	mov.w	r2, r1, lsl #1
 8000b8c:	f512 1200 	adds.w	r2, r2, #2097152	; 0x200000
 8000b90:	d215      	bcs.n	8000bbe <__aeabi_d2iz+0x36>
 8000b92:	d511      	bpl.n	8000bb8 <__aeabi_d2iz+0x30>
 8000b94:	f46f 7378 	mvn.w	r3, #992	; 0x3e0
 8000b98:	ebb3 5262 	subs.w	r2, r3, r2, asr #21
 8000b9c:	d912      	bls.n	8000bc4 <__aeabi_d2iz+0x3c>
 8000b9e:	ea4f 23c1 	mov.w	r3, r1, lsl #11
 8000ba2:	f043 4300 	orr.w	r3, r3, #2147483648	; 0x80000000
 8000ba6:	ea43 5350 	orr.w	r3, r3, r0, lsr #21
 8000baa:	f011 4f00 	tst.w	r1, #2147483648	; 0x80000000
 8000bae:	fa23 f002 	lsr.w	r0, r3, r2
 8000bb2:	bf18      	it	ne
 8000bb4:	4240      	negne	r0, r0
 8000bb6:	4770      	bx	lr
 8000bb8:	f04f 0000 	mov.w	r0, #0
 8000bbc:	4770      	bx	lr
 8000bbe:	ea50 3001 	orrs.w	r0, r0, r1, lsl #12
 8000bc2:	d105      	bne.n	8000bd0 <__aeabi_d2iz+0x48>
 8000bc4:	f011 4000 	ands.w	r0, r1, #2147483648	; 0x80000000
 8000bc8:	bf08      	it	eq
 8000bca:	f06f 4000 	mvneq.w	r0, #2147483648	; 0x80000000
 8000bce:	4770      	bx	lr
 8000bd0:	f04f 0000 	mov.w	r0, #0
 8000bd4:	4770      	bx	lr
 8000bd6:	bf00      	nop

08000bd8 <__aeabi_d2f>:
 8000bd8:	ea4f 0241 	mov.w	r2, r1, lsl #1
 8000bdc:	f1b2 43e0 	subs.w	r3, r2, #1879048192	; 0x70000000
 8000be0:	bf24      	itt	cs
 8000be2:	f5b3 1c00 	subscs.w	ip, r3, #2097152	; 0x200000
 8000be6:	f1dc 5cfe 	rsbscs	ip, ip, #532676608	; 0x1fc00000
 8000bea:	d90d      	bls.n	8000c08 <__aeabi_d2f+0x30>
 8000bec:	f001 4c00 	and.w	ip, r1, #2147483648	; 0x80000000
 8000bf0:	ea4f 02c0 	mov.w	r2, r0, lsl #3
 8000bf4:	ea4c 7050 	orr.w	r0, ip, r0, lsr #29
 8000bf8:	f1b2 4f00 	cmp.w	r2, #2147483648	; 0x80000000
 8000bfc:	eb40 0083 	adc.w	r0, r0, r3, lsl #2
 8000c00:	bf08      	it	eq
 8000c02:	f020 0001 	biceq.w	r0, r0, #1
 8000c06:	4770      	bx	lr
 8000c08:	f011 4f80 	tst.w	r1, #1073741824	; 0x40000000
 8000c0c:	d121      	bne.n	8000c52 <__aeabi_d2f+0x7a>
 8000c0e:	f113 7238 	adds.w	r2, r3, #48234496	; 0x2e00000
 8000c12:	bfbc      	itt	lt
 8000c14:	f001 4000 	andlt.w	r0, r1, #2147483648	; 0x80000000
 8000c18:	4770      	bxlt	lr
 8000c1a:	f441 1180 	orr.w	r1, r1, #1048576	; 0x100000
 8000c1e:	ea4f 5252 	mov.w	r2, r2, lsr #21
 8000c22:	f1c2 0218 	rsb	r2, r2, #24
 8000c26:	f1c2 0c20 	rsb	ip, r2, #32
 8000c2a:	fa10 f30c 	lsls.w	r3, r0, ip
 8000c2e:	fa20 f002 	lsr.w	r0, r0, r2
 8000c32:	bf18      	it	ne
 8000c34:	f040 0001 	orrne.w	r0, r0, #1
 8000c38:	ea4f 23c1 	mov.w	r3, r1, lsl #11
 8000c3c:	ea4f 23d3 	mov.w	r3, r3, lsr #11
 8000c40:	fa03 fc0c 	lsl.w	ip, r3, ip
 8000c44:	ea40 000c 	orr.w	r0, r0, ip
 8000c48:	fa23 f302 	lsr.w	r3, r3, r2
 8000c4c:	ea4f 0343 	mov.w	r3, r3, lsl #1
 8000c50:	e7cc      	b.n	8000bec <__aeabi_d2f+0x14>
 8000c52:	ea7f 5362 	mvns.w	r3, r2, asr #21
 8000c56:	d107      	bne.n	8000c68 <__aeabi_d2f+0x90>
 8000c58:	ea50 3301 	orrs.w	r3, r0, r1, lsl #12
 8000c5c:	bf1e      	ittt	ne
 8000c5e:	f04f 40fe 	movne.w	r0, #2130706432	; 0x7f000000
 8000c62:	f440 0040 	orrne.w	r0, r0, #12582912	; 0xc00000
 8000c66:	4770      	bxne	lr
 8000c68:	f001 4000 	and.w	r0, r1, #2147483648	; 0x80000000
 8000c6c:	f040 40fe 	orr.w	r0, r0, #2130706432	; 0x7f000000
 8000c70:	f440 0000 	orr.w	r0, r0, #8388608	; 0x800000
 8000c74:	4770      	bx	lr
 8000c76:	bf00      	nop

08000c78 <__aeabi_frsub>:
 8000c78:	f080 4000 	eor.w	r0, r0, #2147483648	; 0x80000000
 8000c7c:	e002      	b.n	8000c84 <__addsf3>
 8000c7e:	bf00      	nop

08000c80 <__aeabi_fsub>:
 8000c80:	f081 4100 	eor.w	r1, r1, #2147483648	; 0x80000000

08000c84 <__addsf3>:
 8000c84:	0042      	lsls	r2, r0, #1
 8000c86:	bf1f      	itttt	ne
 8000c88:	ea5f 0341 	movsne.w	r3, r1, lsl #1
 8000c8c:	ea92 0f03 	teqne	r2, r3
 8000c90:	ea7f 6c22 	mvnsne.w	ip, r2, asr #24
 8000c94:	ea7f 6c23 	mvnsne.w	ip, r3, asr #24
 8000c98:	d06a      	beq.n	8000d70 <__addsf3+0xec>
 8000c9a:	ea4f 6212 	mov.w	r2, r2, lsr #24
 8000c9e:	ebd2 6313 	rsbs	r3, r2, r3, lsr #24
 8000ca2:	bfc1      	itttt	gt
 8000ca4:	18d2      	addgt	r2, r2, r3
 8000ca6:	4041      	eorgt	r1, r0
 8000ca8:	4048      	eorgt	r0, r1
 8000caa:	4041      	eorgt	r1, r0
 8000cac:	bfb8      	it	lt
 8000cae:	425b      	neglt	r3, r3
 8000cb0:	2b19      	cmp	r3, #25
 8000cb2:	bf88      	it	hi
 8000cb4:	4770      	bxhi	lr
 8000cb6:	f010 4f00 	tst.w	r0, #2147483648	; 0x80000000
 8000cba:	f440 0000 	orr.w	r0, r0, #8388608	; 0x800000
 8000cbe:	f020 407f 	bic.w	r0, r0, #4278190080	; 0xff000000
 8000cc2:	bf18      	it	ne
 8000cc4:	4240      	negne	r0, r0
 8000cc6:	f011 4f00 	tst.w	r1, #2147483648	; 0x80000000
 8000cca:	f441 0100 	orr.w	r1, r1, #8388608	; 0x800000
 8000cce:	f021 417f 	bic.w	r1, r1, #4278190080	; 0xff000000
 8000cd2:	bf18      	it	ne
 8000cd4:	4249      	negne	r1, r1
 8000cd6:	ea92 0f03 	teq	r2, r3
 8000cda:	d03f      	beq.n	8000d5c <__addsf3+0xd8>
 8000cdc:	f1a2 0201 	sub.w	r2, r2, #1
 8000ce0:	fa41 fc03 	asr.w	ip, r1, r3
 8000ce4:	eb10 000c 	adds.w	r0, r0, ip
 8000ce8:	f1c3 0320 	rsb	r3, r3, #32
 8000cec:	fa01 f103 	lsl.w	r1, r1, r3
 8000cf0:	f000 4300 	and.w	r3, r0, #2147483648	; 0x80000000
 8000cf4:	d502      	bpl.n	8000cfc <__addsf3+0x78>
 8000cf6:	4249      	negs	r1, r1
 8000cf8:	eb60 0040 	sbc.w	r0, r0, r0, lsl #1
 8000cfc:	f5b0 0f00 	cmp.w	r0, #8388608	; 0x800000
 8000d00:	d313      	bcc.n	8000d2a <__addsf3+0xa6>
 8000d02:	f1b0 7f80 	cmp.w	r0, #16777216	; 0x1000000
 8000d06:	d306      	bcc.n	8000d16 <__addsf3+0x92>
 8000d08:	0840      	lsrs	r0, r0, #1
 8000d0a:	ea4f 0131 	mov.w	r1, r1, rrx
 8000d0e:	f102 0201 	add.w	r2, r2, #1
 8000d12:	2afe      	cmp	r2, #254	; 0xfe
 8000d14:	d251      	bcs.n	8000dba <__addsf3+0x136>
 8000d16:	f1b1 4f00 	cmp.w	r1, #2147483648	; 0x80000000
 8000d1a:	eb40 50c2 	adc.w	r0, r0, r2, lsl #23
 8000d1e:	bf08      	it	eq
 8000d20:	f020 0001 	biceq.w	r0, r0, #1
 8000d24:	ea40 0003 	orr.w	r0, r0, r3
 8000d28:	4770      	bx	lr
 8000d2a:	0049      	lsls	r1, r1, #1
 8000d2c:	eb40 0000 	adc.w	r0, r0, r0
 8000d30:	f410 0f00 	tst.w	r0, #8388608	; 0x800000
 8000d34:	f1a2 0201 	sub.w	r2, r2, #1
 8000d38:	d1ed      	bne.n	8000d16 <__addsf3+0x92>
 8000d3a:	fab0 fc80 	clz	ip, r0
 8000d3e:	f1ac 0c08 	sub.w	ip, ip, #8
 8000d42:	ebb2 020c 	subs.w	r2, r2, ip
 8000d46:	fa00 f00c 	lsl.w	r0, r0, ip
 8000d4a:	bfaa      	itet	ge
 8000d4c:	eb00 50c2 	addge.w	r0, r0, r2, lsl #23
 8000d50:	4252      	neglt	r2, r2
 8000d52:	4318      	orrge	r0, r3
 8000d54:	bfbc      	itt	lt
 8000d56:	40d0      	lsrlt	r0, r2
 8000d58:	4318      	orrlt	r0, r3
 8000d5a:	4770      	bx	lr
 8000d5c:	f092 0f00 	teq	r2, #0
 8000d60:	f481 0100 	eor.w	r1, r1, #8388608	; 0x800000
 8000d64:	bf06      	itte	eq
 8000d66:	f480 0000 	eoreq.w	r0, r0, #8388608	; 0x800000
 8000d6a:	3201      	addeq	r2, #1
 8000d6c:	3b01      	subne	r3, #1
 8000d6e:	e7b5      	b.n	8000cdc <__addsf3+0x58>
 8000d70:	ea4f 0341 	mov.w	r3, r1, lsl #1
 8000d74:	ea7f 6c22 	mvns.w	ip, r2, asr #24
 8000d78:	bf18      	it	ne
 8000d7a:	ea7f 6c23 	mvnsne.w	ip, r3, asr #24
 8000d7e:	d021      	beq.n	8000dc4 <__addsf3+0x140>
 8000d80:	ea92 0f03 	teq	r2, r3
 8000d84:	d004      	beq.n	8000d90 <__addsf3+0x10c>
 8000d86:	f092 0f00 	teq	r2, #0
 8000d8a:	bf08      	it	eq
 8000d8c:	4608      	moveq	r0, r1
 8000d8e:	4770      	bx	lr
 8000d90:	ea90 0f01 	teq	r0, r1
 8000d94:	bf1c      	itt	ne
 8000d96:	2000      	movne	r0, #0
 8000d98:	4770      	bxne	lr
 8000d9a:	f012 4f7f 	tst.w	r2, #4278190080	; 0xff000000
 8000d9e:	d104      	bne.n	8000daa <__addsf3+0x126>
 8000da0:	0040      	lsls	r0, r0, #1
 8000da2:	bf28      	it	cs
 8000da4:	f040 4000 	orrcs.w	r0, r0, #2147483648	; 0x80000000
 8000da8:	4770      	bx	lr
 8000daa:	f112 7200 	adds.w	r2, r2, #33554432	; 0x2000000
 8000dae:	bf3c      	itt	cc
 8000db0:	f500 0000 	addcc.w	r0, r0, #8388608	; 0x800000
 8000db4:	4770      	bxcc	lr
 8000db6:	f000 4300 	and.w	r3, r0, #2147483648	; 0x80000000
 8000dba:	f043 40fe 	orr.w	r0, r3, #2130706432	; 0x7f000000
 8000dbe:	f440 0000 	orr.w	r0, r0, #8388608	; 0x800000
 8000dc2:	4770      	bx	lr
 8000dc4:	ea7f 6222 	mvns.w	r2, r2, asr #24
 8000dc8:	bf16      	itet	ne
 8000dca:	4608      	movne	r0, r1
 8000dcc:	ea7f 6323 	mvnseq.w	r3, r3, asr #24
 8000dd0:	4601      	movne	r1, r0
 8000dd2:	0242      	lsls	r2, r0, #9
 8000dd4:	bf06      	itte	eq
 8000dd6:	ea5f 2341 	movseq.w	r3, r1, lsl #9
 8000dda:	ea90 0f01 	teqeq	r0, r1
 8000dde:	f440 0080 	orrne.w	r0, r0, #4194304	; 0x400000
 8000de2:	4770      	bx	lr

08000de4 <__aeabi_ui2f>:
 8000de4:	f04f 0300 	mov.w	r3, #0
 8000de8:	e004      	b.n	8000df4 <__aeabi_i2f+0x8>
 8000dea:	bf00      	nop

08000dec <__aeabi_i2f>:
 8000dec:	f010 4300 	ands.w	r3, r0, #2147483648	; 0x80000000
 8000df0:	bf48      	it	mi
 8000df2:	4240      	negmi	r0, r0
 8000df4:	ea5f 0c00 	movs.w	ip, r0
 8000df8:	bf08      	it	eq
 8000dfa:	4770      	bxeq	lr
 8000dfc:	f043 4396 	orr.w	r3, r3, #1258291200	; 0x4b000000
 8000e00:	4601      	mov	r1, r0
 8000e02:	f04f 0000 	mov.w	r0, #0
 8000e06:	e01c      	b.n	8000e42 <__aeabi_l2f+0x2a>

08000e08 <__aeabi_ul2f>:
 8000e08:	ea50 0201 	orrs.w	r2, r0, r1
 8000e0c:	bf08      	it	eq
 8000e0e:	4770      	bxeq	lr
 8000e10:	f04f 0300 	mov.w	r3, #0
 8000e14:	e00a      	b.n	8000e2c <__aeabi_l2f+0x14>
 8000e16:	bf00      	nop

08000e18 <__aeabi_l2f>:
 8000e18:	ea50 0201 	orrs.w	r2, r0, r1
 8000e1c:	bf08      	it	eq
 8000e1e:	4770      	bxeq	lr
 8000e20:	f011 4300 	ands.w	r3, r1, #2147483648	; 0x80000000
 8000e24:	d502      	bpl.n	8000e2c <__aeabi_l2f+0x14>
 8000e26:	4240      	negs	r0, r0
 8000e28:	eb61 0141 	sbc.w	r1, r1, r1, lsl #1
 8000e2c:	ea5f 0c01 	movs.w	ip, r1
 8000e30:	bf02      	ittt	eq
 8000e32:	4684      	moveq	ip, r0
 8000e34:	4601      	moveq	r1, r0
 8000e36:	2000      	moveq	r0, #0
 8000e38:	f043 43b6 	orr.w	r3, r3, #1526726656	; 0x5b000000
 8000e3c:	bf08      	it	eq
 8000e3e:	f1a3 5380 	subeq.w	r3, r3, #268435456	; 0x10000000
 8000e42:	f5a3 0300 	sub.w	r3, r3, #8388608	; 0x800000
 8000e46:	fabc f28c 	clz	r2, ip
 8000e4a:	3a08      	subs	r2, #8
 8000e4c:	eba3 53c2 	sub.w	r3, r3, r2, lsl #23
 8000e50:	db10      	blt.n	8000e74 <__aeabi_l2f+0x5c>
 8000e52:	fa01 fc02 	lsl.w	ip, r1, r2
 8000e56:	4463      	add	r3, ip
 8000e58:	fa00 fc02 	lsl.w	ip, r0, r2
 8000e5c:	f1c2 0220 	rsb	r2, r2, #32
 8000e60:	f1bc 4f00 	cmp.w	ip, #2147483648	; 0x80000000
 8000e64:	fa20 f202 	lsr.w	r2, r0, r2
 8000e68:	eb43 0002 	adc.w	r0, r3, r2
 8000e6c:	bf08      	it	eq
 8000e6e:	f020 0001 	biceq.w	r0, r0, #1
 8000e72:	4770      	bx	lr
 8000e74:	f102 0220 	add.w	r2, r2, #32
 8000e78:	fa01 fc02 	lsl.w	ip, r1, r2
 8000e7c:	f1c2 0220 	rsb	r2, r2, #32
 8000e80:	ea50 004c 	orrs.w	r0, r0, ip, lsl #1
 8000e84:	fa21 f202 	lsr.w	r2, r1, r2
 8000e88:	eb43 0002 	adc.w	r0, r3, r2
 8000e8c:	bf08      	it	eq
 8000e8e:	ea20 70dc 	biceq.w	r0, r0, ip, lsr #31
 8000e92:	4770      	bx	lr

08000e94 <__aeabi_ldivmod>:
 8000e94:	b97b      	cbnz	r3, 8000eb6 <__aeabi_ldivmod+0x22>
 8000e96:	b972      	cbnz	r2, 8000eb6 <__aeabi_ldivmod+0x22>
 8000e98:	2900      	cmp	r1, #0
 8000e9a:	bfbe      	ittt	lt
 8000e9c:	2000      	movlt	r0, #0
 8000e9e:	f04f 4100 	movlt.w	r1, #2147483648	; 0x80000000
 8000ea2:	e006      	blt.n	8000eb2 <__aeabi_ldivmod+0x1e>
 8000ea4:	bf08      	it	eq
 8000ea6:	2800      	cmpeq	r0, #0
 8000ea8:	bf1c      	itt	ne
 8000eaa:	f06f 4100 	mvnne.w	r1, #2147483648	; 0x80000000
 8000eae:	f04f 30ff 	movne.w	r0, #4294967295
 8000eb2:	f000 b9bd 	b.w	8001230 <__aeabi_idiv0>
 8000eb6:	f1ad 0c08 	sub.w	ip, sp, #8
 8000eba:	e96d ce04 	strd	ip, lr, [sp, #-16]!
 8000ebe:	2900      	cmp	r1, #0
 8000ec0:	db09      	blt.n	8000ed6 <__aeabi_ldivmod+0x42>
 8000ec2:	2b00      	cmp	r3, #0
 8000ec4:	db1a      	blt.n	8000efc <__aeabi_ldivmod+0x68>
 8000ec6:	f000 f84d 	bl	8000f64 <__udivmoddi4>
 8000eca:	f8dd e004 	ldr.w	lr, [sp, #4]
 8000ece:	e9dd 2302 	ldrd	r2, r3, [sp, #8]
 8000ed2:	b004      	add	sp, #16
 8000ed4:	4770      	bx	lr
 8000ed6:	4240      	negs	r0, r0
 8000ed8:	eb61 0141 	sbc.w	r1, r1, r1, lsl #1
 8000edc:	2b00      	cmp	r3, #0
 8000ede:	db1b      	blt.n	8000f18 <__aeabi_ldivmod+0x84>
 8000ee0:	f000 f840 	bl	8000f64 <__udivmoddi4>
 8000ee4:	f8dd e004 	ldr.w	lr, [sp, #4]
 8000ee8:	e9dd 2302 	ldrd	r2, r3, [sp, #8]
 8000eec:	b004      	add	sp, #16
 8000eee:	4240      	negs	r0, r0
 8000ef0:	eb61 0141 	sbc.w	r1, r1, r1, lsl #1
 8000ef4:	4252      	negs	r2, r2
 8000ef6:	eb63 0343 	sbc.w	r3, r3, r3, lsl #1
 8000efa:	4770      	bx	lr
 8000efc:	4252      	negs	r2, r2
 8000efe:	eb63 0343 	sbc.w	r3, r3, r3, lsl #1
 8000f02:	f000 f82f 	bl	8000f64 <__udivmoddi4>
 8000f06:	f8dd e004 	ldr.w	lr, [sp, #4]
 8000f0a:	e9dd 2302 	ldrd	r2, r3, [sp, #8]
 8000f0e:	b004      	add	sp, #16
 8000f10:	4240      	negs	r0, r0
 8000f12:	eb61 0141 	sbc.w	r1, r1, r1, lsl #1
 8000f16:	4770      	bx	lr
 8000f18:	4252      	negs	r2, r2
 8000f1a:	eb63 0343 	sbc.w	r3, r3, r3, lsl #1
 8000f1e:	f000 f821 	bl	8000f64 <__udivmoddi4>
 8000f22:	f8dd e004 	ldr.w	lr, [sp, #4]
 8000f26:	e9dd 2302 	ldrd	r2, r3, [sp, #8]
 8000f2a:	b004      	add	sp, #16
 8000f2c:	4252      	negs	r2, r2
 8000f2e:	eb63 0343 	sbc.w	r3, r3, r3, lsl #1
 8000f32:	4770      	bx	lr

08000f34 <__aeabi_uldivmod>:
 8000f34:	b953      	cbnz	r3, 8000f4c <__aeabi_uldivmod+0x18>
 8000f36:	b94a      	cbnz	r2, 8000f4c <__aeabi_uldivmod+0x18>
 8000f38:	2900      	cmp	r1, #0
 8000f3a:	bf08      	it	eq
 8000f3c:	2800      	cmpeq	r0, #0
 8000f3e:	bf1c      	itt	ne
 8000f40:	f04f 31ff 	movne.w	r1, #4294967295
 8000f44:	f04f 30ff 	movne.w	r0, #4294967295
 8000f48:	f000 b972 	b.w	8001230 <__aeabi_idiv0>
 8000f4c:	f1ad 0c08 	sub.w	ip, sp, #8
 8000f50:	e96d ce04 	strd	ip, lr, [sp, #-16]!
 8000f54:	f000 f806 	bl	8000f64 <__udivmoddi4>
 8000f58:	f8dd e004 	ldr.w	lr, [sp, #4]
 8000f5c:	e9dd 2302 	ldrd	r2, r3, [sp, #8]
 8000f60:	b004      	add	sp, #16
 8000f62:	4770      	bx	lr

08000f64 <__udivmoddi4>:
 8000f64:	e92d 47f0 	stmdb	sp!, {r4, r5, r6, r7, r8, r9, sl, lr}
 8000f68:	9e08      	ldr	r6, [sp, #32]
 8000f6a:	4604      	mov	r4, r0
 8000f6c:	4688      	mov	r8, r1
 8000f6e:	2b00      	cmp	r3, #0
 8000f70:	d14b      	bne.n	800100a <__udivmoddi4+0xa6>
 8000f72:	428a      	cmp	r2, r1
 8000f74:	4615      	mov	r5, r2
 8000f76:	d967      	bls.n	8001048 <__udivmoddi4+0xe4>
 8000f78:	fab2 f282 	clz	r2, r2
 8000f7c:	b14a      	cbz	r2, 8000f92 <__udivmoddi4+0x2e>
 8000f7e:	f1c2 0720 	rsb	r7, r2, #32
 8000f82:	fa01 f302 	lsl.w	r3, r1, r2
 8000f86:	fa20 f707 	lsr.w	r7, r0, r7
 8000f8a:	4095      	lsls	r5, r2
 8000f8c:	ea47 0803 	orr.w	r8, r7, r3
 8000f90:	4094      	lsls	r4, r2
 8000f92:	ea4f 4e15 	mov.w	lr, r5, lsr #16
 8000f96:	0c23      	lsrs	r3, r4, #16
 8000f98:	fbb8 f7fe 	udiv	r7, r8, lr
 8000f9c:	fa1f fc85 	uxth.w	ip, r5
 8000fa0:	fb0e 8817 	mls	r8, lr, r7, r8
 8000fa4:	ea43 4308 	orr.w	r3, r3, r8, lsl #16
 8000fa8:	fb07 f10c 	mul.w	r1, r7, ip
 8000fac:	4299      	cmp	r1, r3
 8000fae:	d909      	bls.n	8000fc4 <__udivmoddi4+0x60>
 8000fb0:	18eb      	adds	r3, r5, r3
 8000fb2:	f107 30ff 	add.w	r0, r7, #4294967295
 8000fb6:	f080 811b 	bcs.w	80011f0 <__udivmoddi4+0x28c>
 8000fba:	4299      	cmp	r1, r3
 8000fbc:	f240 8118 	bls.w	80011f0 <__udivmoddi4+0x28c>
 8000fc0:	3f02      	subs	r7, #2
 8000fc2:	442b      	add	r3, r5
 8000fc4:	1a5b      	subs	r3, r3, r1
 8000fc6:	b2a4      	uxth	r4, r4
 8000fc8:	fbb3 f0fe 	udiv	r0, r3, lr
 8000fcc:	fb0e 3310 	mls	r3, lr, r0, r3
 8000fd0:	ea44 4403 	orr.w	r4, r4, r3, lsl #16
 8000fd4:	fb00 fc0c 	mul.w	ip, r0, ip
 8000fd8:	45a4      	cmp	ip, r4
 8000fda:	d909      	bls.n	8000ff0 <__udivmoddi4+0x8c>
 8000fdc:	192c      	adds	r4, r5, r4
 8000fde:	f100 33ff 	add.w	r3, r0, #4294967295
 8000fe2:	f080 8107 	bcs.w	80011f4 <__udivmoddi4+0x290>
 8000fe6:	45a4      	cmp	ip, r4
 8000fe8:	f240 8104 	bls.w	80011f4 <__udivmoddi4+0x290>
 8000fec:	3802      	subs	r0, #2
 8000fee:	442c      	add	r4, r5
 8000ff0:	ea40 4007 	orr.w	r0, r0, r7, lsl #16
 8000ff4:	eba4 040c 	sub.w	r4, r4, ip
 8000ff8:	2700      	movs	r7, #0
 8000ffa:	b11e      	cbz	r6, 8001004 <__udivmoddi4+0xa0>
 8000ffc:	40d4      	lsrs	r4, r2
 8000ffe:	2300      	movs	r3, #0
 8001000:	e9c6 4300 	strd	r4, r3, [r6]
 8001004:	4639      	mov	r1, r7
 8001006:	e8bd 87f0 	ldmia.w	sp!, {r4, r5, r6, r7, r8, r9, sl, pc}
 800100a:	428b      	cmp	r3, r1
 800100c:	d909      	bls.n	8001022 <__udivmoddi4+0xbe>
 800100e:	2e00      	cmp	r6, #0
 8001010:	f000 80eb 	beq.w	80011ea <__udivmoddi4+0x286>
 8001014:	2700      	movs	r7, #0
 8001016:	e9c6 0100 	strd	r0, r1, [r6]
 800101a:	4638      	mov	r0, r7
 800101c:	4639      	mov	r1, r7
 800101e:	e8bd 87f0 	ldmia.w	sp!, {r4, r5, r6, r7, r8, r9, sl, pc}
 8001022:	fab3 f783 	clz	r7, r3
 8001026:	2f00      	cmp	r7, #0
 8001028:	d147      	bne.n	80010ba <__udivmoddi4+0x156>
 800102a:	428b      	cmp	r3, r1
 800102c:	d302      	bcc.n	8001034 <__udivmoddi4+0xd0>
 800102e:	4282      	cmp	r2, r0
 8001030:	f200 80fa 	bhi.w	8001228 <__udivmoddi4+0x2c4>
 8001034:	1a84      	subs	r4, r0, r2
 8001036:	eb61 0303 	sbc.w	r3, r1, r3
 800103a:	2001      	movs	r0, #1
 800103c:	4698      	mov	r8, r3
 800103e:	2e00      	cmp	r6, #0
 8001040:	d0e0      	beq.n	8001004 <__udivmoddi4+0xa0>
 8001042:	e9c6 4800 	strd	r4, r8, [r6]
 8001046:	e7dd      	b.n	8001004 <__udivmoddi4+0xa0>
 8001048:	b902      	cbnz	r2, 800104c <__udivmoddi4+0xe8>
 800104a:	deff      	udf	#255	; 0xff
 800104c:	fab2 f282 	clz	r2, r2
 8001050:	2a00      	cmp	r2, #0
 8001052:	f040 808f 	bne.w	8001174 <__udivmoddi4+0x210>
 8001056:	1b49      	subs	r1, r1, r5
 8001058:	ea4f 4e15 	mov.w	lr, r5, lsr #16
 800105c:	fa1f f885 	uxth.w	r8, r5
 8001060:	2701      	movs	r7, #1
 8001062:	fbb1 fcfe 	udiv	ip, r1, lr
 8001066:	0c23      	lsrs	r3, r4, #16
 8001068:	fb0e 111c 	mls	r1, lr, ip, r1
 800106c:	ea43 4301 	orr.w	r3, r3, r1, lsl #16
 8001070:	fb08 f10c 	mul.w	r1, r8, ip
 8001074:	4299      	cmp	r1, r3
 8001076:	d907      	bls.n	8001088 <__udivmoddi4+0x124>
 8001078:	18eb      	adds	r3, r5, r3
 800107a:	f10c 30ff 	add.w	r0, ip, #4294967295
 800107e:	d202      	bcs.n	8001086 <__udivmoddi4+0x122>
 8001080:	4299      	cmp	r1, r3
 8001082:	f200 80cd 	bhi.w	8001220 <__udivmoddi4+0x2bc>
 8001086:	4684      	mov	ip, r0
 8001088:	1a59      	subs	r1, r3, r1
 800108a:	b2a3      	uxth	r3, r4
 800108c:	fbb1 f0fe 	udiv	r0, r1, lr
 8001090:	fb0e 1410 	mls	r4, lr, r0, r1
 8001094:	ea43 4404 	orr.w	r4, r3, r4, lsl #16
 8001098:	fb08 f800 	mul.w	r8, r8, r0
 800109c:	45a0      	cmp	r8, r4
 800109e:	d907      	bls.n	80010b0 <__udivmoddi4+0x14c>
 80010a0:	192c      	adds	r4, r5, r4
 80010a2:	f100 33ff 	add.w	r3, r0, #4294967295
 80010a6:	d202      	bcs.n	80010ae <__udivmoddi4+0x14a>
 80010a8:	45a0      	cmp	r8, r4
 80010aa:	f200 80b6 	bhi.w	800121a <__udivmoddi4+0x2b6>
 80010ae:	4618      	mov	r0, r3
 80010b0:	eba4 0408 	sub.w	r4, r4, r8
 80010b4:	ea40 400c 	orr.w	r0, r0, ip, lsl #16
 80010b8:	e79f      	b.n	8000ffa <__udivmoddi4+0x96>
 80010ba:	f1c7 0c20 	rsb	ip, r7, #32
 80010be:	40bb      	lsls	r3, r7
 80010c0:	fa22 fe0c 	lsr.w	lr, r2, ip
 80010c4:	ea4e 0e03 	orr.w	lr, lr, r3
 80010c8:	fa01 f407 	lsl.w	r4, r1, r7
 80010cc:	fa20 f50c 	lsr.w	r5, r0, ip
 80010d0:	fa21 f30c 	lsr.w	r3, r1, ip
 80010d4:	ea4f 481e 	mov.w	r8, lr, lsr #16
 80010d8:	4325      	orrs	r5, r4
 80010da:	fbb3 f9f8 	udiv	r9, r3, r8
 80010de:	0c2c      	lsrs	r4, r5, #16
 80010e0:	fb08 3319 	mls	r3, r8, r9, r3
 80010e4:	fa1f fa8e 	uxth.w	sl, lr
 80010e8:	ea44 4303 	orr.w	r3, r4, r3, lsl #16
 80010ec:	fb09 f40a 	mul.w	r4, r9, sl
 80010f0:	429c      	cmp	r4, r3
 80010f2:	fa02 f207 	lsl.w	r2, r2, r7
 80010f6:	fa00 f107 	lsl.w	r1, r0, r7
 80010fa:	d90b      	bls.n	8001114 <__udivmoddi4+0x1b0>
 80010fc:	eb1e 0303 	adds.w	r3, lr, r3
 8001100:	f109 30ff 	add.w	r0, r9, #4294967295
 8001104:	f080 8087 	bcs.w	8001216 <__udivmoddi4+0x2b2>
 8001108:	429c      	cmp	r4, r3
 800110a:	f240 8084 	bls.w	8001216 <__udivmoddi4+0x2b2>
 800110e:	f1a9 0902 	sub.w	r9, r9, #2
 8001112:	4473      	add	r3, lr
 8001114:	1b1b      	subs	r3, r3, r4
 8001116:	b2ad      	uxth	r5, r5
 8001118:	fbb3 f0f8 	udiv	r0, r3, r8
 800111c:	fb08 3310 	mls	r3, r8, r0, r3
 8001120:	ea45 4403 	orr.w	r4, r5, r3, lsl #16
 8001124:	fb00 fa0a 	mul.w	sl, r0, sl
 8001128:	45a2      	cmp	sl, r4
 800112a:	d908      	bls.n	800113e <__udivmoddi4+0x1da>
 800112c:	eb1e 0404 	adds.w	r4, lr, r4
 8001130:	f100 33ff 	add.w	r3, r0, #4294967295
 8001134:	d26b      	bcs.n	800120e <__udivmoddi4+0x2aa>
 8001136:	45a2      	cmp	sl, r4
 8001138:	d969      	bls.n	800120e <__udivmoddi4+0x2aa>
 800113a:	3802      	subs	r0, #2
 800113c:	4474      	add	r4, lr
 800113e:	ea40 4009 	orr.w	r0, r0, r9, lsl #16
 8001142:	fba0 8902 	umull	r8, r9, r0, r2
 8001146:	eba4 040a 	sub.w	r4, r4, sl
 800114a:	454c      	cmp	r4, r9
 800114c:	46c2      	mov	sl, r8
 800114e:	464b      	mov	r3, r9
 8001150:	d354      	bcc.n	80011fc <__udivmoddi4+0x298>
 8001152:	d051      	beq.n	80011f8 <__udivmoddi4+0x294>
 8001154:	2e00      	cmp	r6, #0
 8001156:	d069      	beq.n	800122c <__udivmoddi4+0x2c8>
 8001158:	ebb1 050a 	subs.w	r5, r1, sl
 800115c:	eb64 0403 	sbc.w	r4, r4, r3
 8001160:	fa04 fc0c 	lsl.w	ip, r4, ip
 8001164:	40fd      	lsrs	r5, r7
 8001166:	40fc      	lsrs	r4, r7
 8001168:	ea4c 0505 	orr.w	r5, ip, r5
 800116c:	e9c6 5400 	strd	r5, r4, [r6]
 8001170:	2700      	movs	r7, #0
 8001172:	e747      	b.n	8001004 <__udivmoddi4+0xa0>
 8001174:	f1c2 0320 	rsb	r3, r2, #32
 8001178:	fa20 f703 	lsr.w	r7, r0, r3
 800117c:	4095      	lsls	r5, r2
 800117e:	fa01 f002 	lsl.w	r0, r1, r2
 8001182:	fa21 f303 	lsr.w	r3, r1, r3
 8001186:	ea4f 4e15 	mov.w	lr, r5, lsr #16
 800118a:	4338      	orrs	r0, r7
 800118c:	0c01      	lsrs	r1, r0, #16
 800118e:	fbb3 f7fe 	udiv	r7, r3, lr
 8001192:	fa1f f885 	uxth.w	r8, r5
 8001196:	fb0e 3317 	mls	r3, lr, r7, r3
 800119a:	ea41 4103 	orr.w	r1, r1, r3, lsl #16
 800119e:	fb07 f308 	mul.w	r3, r7, r8
 80011a2:	428b      	cmp	r3, r1
 80011a4:	fa04 f402 	lsl.w	r4, r4, r2
 80011a8:	d907      	bls.n	80011ba <__udivmoddi4+0x256>
 80011aa:	1869      	adds	r1, r5, r1
 80011ac:	f107 3cff 	add.w	ip, r7, #4294967295
 80011b0:	d22f      	bcs.n	8001212 <__udivmoddi4+0x2ae>
 80011b2:	428b      	cmp	r3, r1
 80011b4:	d92d      	bls.n	8001212 <__udivmoddi4+0x2ae>
 80011b6:	3f02      	subs	r7, #2
 80011b8:	4429      	add	r1, r5
 80011ba:	1acb      	subs	r3, r1, r3
 80011bc:	b281      	uxth	r1, r0
 80011be:	fbb3 f0fe 	udiv	r0, r3, lr
 80011c2:	fb0e 3310 	mls	r3, lr, r0, r3
 80011c6:	ea41 4103 	orr.w	r1, r1, r3, lsl #16
 80011ca:	fb00 f308 	mul.w	r3, r0, r8
 80011ce:	428b      	cmp	r3, r1
 80011d0:	d907      	bls.n	80011e2 <__udivmoddi4+0x27e>
 80011d2:	1869      	adds	r1, r5, r1
 80011d4:	f100 3cff 	add.w	ip, r0, #4294967295
 80011d8:	d217      	bcs.n	800120a <__udivmoddi4+0x2a6>
 80011da:	428b      	cmp	r3, r1
 80011dc:	d915      	bls.n	800120a <__udivmoddi4+0x2a6>
 80011de:	3802      	subs	r0, #2
 80011e0:	4429      	add	r1, r5
 80011e2:	1ac9      	subs	r1, r1, r3
 80011e4:	ea40 4707 	orr.w	r7, r0, r7, lsl #16
 80011e8:	e73b      	b.n	8001062 <__udivmoddi4+0xfe>
 80011ea:	4637      	mov	r7, r6
 80011ec:	4630      	mov	r0, r6
 80011ee:	e709      	b.n	8001004 <__udivmoddi4+0xa0>
 80011f0:	4607      	mov	r7, r0
 80011f2:	e6e7      	b.n	8000fc4 <__udivmoddi4+0x60>
 80011f4:	4618      	mov	r0, r3
 80011f6:	e6fb      	b.n	8000ff0 <__udivmoddi4+0x8c>
 80011f8:	4541      	cmp	r1, r8
 80011fa:	d2ab      	bcs.n	8001154 <__udivmoddi4+0x1f0>
 80011fc:	ebb8 0a02 	subs.w	sl, r8, r2
 8001200:	eb69 020e 	sbc.w	r2, r9, lr
 8001204:	3801      	subs	r0, #1
 8001206:	4613      	mov	r3, r2
 8001208:	e7a4      	b.n	8001154 <__udivmoddi4+0x1f0>
 800120a:	4660      	mov	r0, ip
 800120c:	e7e9      	b.n	80011e2 <__udivmoddi4+0x27e>
 800120e:	4618      	mov	r0, r3
 8001210:	e795      	b.n	800113e <__udivmoddi4+0x1da>
 8001212:	4667      	mov	r7, ip
 8001214:	e7d1      	b.n	80011ba <__udivmoddi4+0x256>
 8001216:	4681      	mov	r9, r0
 8001218:	e77c      	b.n	8001114 <__udivmoddi4+0x1b0>
 800121a:	3802      	subs	r0, #2
 800121c:	442c      	add	r4, r5
 800121e:	e747      	b.n	80010b0 <__udivmoddi4+0x14c>
 8001220:	f1ac 0c02 	sub.w	ip, ip, #2
 8001224:	442b      	add	r3, r5
 8001226:	e72f      	b.n	8001088 <__udivmoddi4+0x124>
 8001228:	4638      	mov	r0, r7
 800122a:	e708      	b.n	800103e <__udivmoddi4+0xda>
 800122c:	4637      	mov	r7, r6
 800122e:	e6e9      	b.n	8001004 <__udivmoddi4+0xa0>

08001230 <__aeabi_idiv0>:
 8001230:	4770      	bx	lr
 8001232:	bf00      	nop

08001234 <tampil_init>:
 */
#include "design_gui.h"



void tampil_init(void){
 8001234:	b580      	push	{r7, lr}
 8001236:	af00      	add	r7, sp, #0
		u8g2_SetFont(&u8g2, u8g2_font_ncenB08_tr  );
 8001238:	4902      	ldr	r1, [pc, #8]	; (8001244 <tampil_init+0x10>)
 800123a:	4803      	ldr	r0, [pc, #12]	; (8001248 <tampil_init+0x14>)
 800123c:	f00c ffc6 	bl	800e1cc <u8g2_SetFont>
		//sw=u8g2_GetStrWidth(&u8g2, buff);
}
 8001240:	bf00      	nop
 8001242:	bd80      	pop	{r7, pc}
 8001244:	080122ac 	.word	0x080122ac
 8001248:	20001cc0 	.word	0x20001cc0

0800124c <set_menu>:

void set_menu(uint8_t num){
 800124c:	b590      	push	{r4, r7, lr}
 800124e:	b09f      	sub	sp, #124	; 0x7c
 8001250:	af02      	add	r7, sp, #8
 8001252:	4603      	mov	r3, r0
 8001254:	71fb      	strb	r3, [r7, #7]
	uint8_t buff[100];

	u8g2_ClearBuffer(&u8g2);
 8001256:	4851      	ldr	r0, [pc, #324]	; (800139c <set_menu+0x150>)
 8001258:	f00c f910 	bl	800d47c <u8g2_ClearBuffer>

	sprintf(buff,"Menu");
 800125c:	f107 0308 	add.w	r3, r7, #8
 8001260:	4a4f      	ldr	r2, [pc, #316]	; (80013a0 <set_menu+0x154>)
 8001262:	e892 0003 	ldmia.w	r2, {r0, r1}
 8001266:	6018      	str	r0, [r3, #0]
 8001268:	3304      	adds	r3, #4
 800126a:	7019      	strb	r1, [r3, #0]
	u8g2_DrawStr(&u8g2,50,9,buff);
 800126c:	f107 0308 	add.w	r3, r7, #8
 8001270:	2209      	movs	r2, #9
 8001272:	2132      	movs	r1, #50	; 0x32
 8001274:	4849      	ldr	r0, [pc, #292]	; (800139c <set_menu+0x150>)
 8001276:	f00c ff07 	bl	800e088 <u8g2_DrawStr>
	u8g2_DrawLine(&u8g2,0,11,128,11);
 800127a:	230b      	movs	r3, #11
 800127c:	9300      	str	r3, [sp, #0]
 800127e:	2380      	movs	r3, #128	; 0x80
 8001280:	220b      	movs	r2, #11
 8001282:	2100      	movs	r1, #0
 8001284:	4845      	ldr	r0, [pc, #276]	; (800139c <set_menu+0x150>)
 8001286:	f00d f947 	bl	800e518 <u8g2_DrawLine>
	sprintf(buff,"Back");
 800128a:	f107 0308 	add.w	r3, r7, #8
 800128e:	4a45      	ldr	r2, [pc, #276]	; (80013a4 <set_menu+0x158>)
 8001290:	e892 0003 	ldmia.w	r2, {r0, r1}
 8001294:	6018      	str	r0, [r3, #0]
 8001296:	3304      	adds	r3, #4
 8001298:	7019      	strb	r1, [r3, #0]
	u8g2_DrawStr(&u8g2,20,22,buff);
 800129a:	f107 0308 	add.w	r3, r7, #8
 800129e:	2216      	movs	r2, #22
 80012a0:	2114      	movs	r1, #20
 80012a2:	483e      	ldr	r0, [pc, #248]	; (800139c <set_menu+0x150>)
 80012a4:	f00c fef0 	bl	800e088 <u8g2_DrawStr>
	sprintf(buff,"View Config");
 80012a8:	f107 0308 	add.w	r3, r7, #8
 80012ac:	4a3e      	ldr	r2, [pc, #248]	; (80013a8 <set_menu+0x15c>)
 80012ae:	ca07      	ldmia	r2, {r0, r1, r2}
 80012b0:	e883 0007 	stmia.w	r3, {r0, r1, r2}
	u8g2_DrawStr(&u8g2,20,32,buff);
 80012b4:	f107 0308 	add.w	r3, r7, #8
 80012b8:	2220      	movs	r2, #32
 80012ba:	2114      	movs	r1, #20
 80012bc:	4837      	ldr	r0, [pc, #220]	; (800139c <set_menu+0x150>)
 80012be:	f00c fee3 	bl	800e088 <u8g2_DrawStr>
	sprintf(buff,"Callibrate");
 80012c2:	f107 0308 	add.w	r3, r7, #8
 80012c6:	4a39      	ldr	r2, [pc, #228]	; (80013ac <set_menu+0x160>)
 80012c8:	ca07      	ldmia	r2, {r0, r1, r2}
 80012ca:	c303      	stmia	r3!, {r0, r1}
 80012cc:	801a      	strh	r2, [r3, #0]
 80012ce:	3302      	adds	r3, #2
 80012d0:	0c12      	lsrs	r2, r2, #16
 80012d2:	701a      	strb	r2, [r3, #0]
	u8g2_DrawStr(&u8g2,20,42,buff);
 80012d4:	f107 0308 	add.w	r3, r7, #8
 80012d8:	222a      	movs	r2, #42	; 0x2a
 80012da:	2114      	movs	r1, #20
 80012dc:	482f      	ldr	r0, [pc, #188]	; (800139c <set_menu+0x150>)
 80012de:	f00c fed3 	bl	800e088 <u8g2_DrawStr>
	sprintf(buff,"FW Info");
 80012e2:	f107 0308 	add.w	r3, r7, #8
 80012e6:	4a32      	ldr	r2, [pc, #200]	; (80013b0 <set_menu+0x164>)
 80012e8:	e892 0003 	ldmia.w	r2, {r0, r1}
 80012ec:	e883 0003 	stmia.w	r3, {r0, r1}
	u8g2_DrawStr(&u8g2,20,52,buff);
 80012f0:	f107 0308 	add.w	r3, r7, #8
 80012f4:	2234      	movs	r2, #52	; 0x34
 80012f6:	2114      	movs	r1, #20
 80012f8:	4828      	ldr	r0, [pc, #160]	; (800139c <set_menu+0x150>)
 80012fa:	f00c fec5 	bl	800e088 <u8g2_DrawStr>
	sprintf(buff,"Configuration");
 80012fe:	f107 0308 	add.w	r3, r7, #8
 8001302:	4a2c      	ldr	r2, [pc, #176]	; (80013b4 <set_menu+0x168>)
 8001304:	461c      	mov	r4, r3
 8001306:	4613      	mov	r3, r2
 8001308:	cb0f      	ldmia	r3, {r0, r1, r2, r3}
 800130a:	c407      	stmia	r4!, {r0, r1, r2}
 800130c:	8023      	strh	r3, [r4, #0]
	u8g2_DrawStr(&u8g2,20,62,buff);
 800130e:	f107 0308 	add.w	r3, r7, #8
 8001312:	223e      	movs	r2, #62	; 0x3e
 8001314:	2114      	movs	r1, #20
 8001316:	4821      	ldr	r0, [pc, #132]	; (800139c <set_menu+0x150>)
 8001318:	f00c feb6 	bl	800e088 <u8g2_DrawStr>

	uint8_t baris;

	sprintf(buff,"->");
 800131c:	f107 0308 	add.w	r3, r7, #8
 8001320:	4a25      	ldr	r2, [pc, #148]	; (80013b8 <set_menu+0x16c>)
 8001322:	6812      	ldr	r2, [r2, #0]
 8001324:	4611      	mov	r1, r2
 8001326:	8019      	strh	r1, [r3, #0]
 8001328:	3302      	adds	r3, #2
 800132a:	0c12      	lsrs	r2, r2, #16
 800132c:	701a      	strb	r2, [r3, #0]
	baris = ((num+1)*10)+12;
 800132e:	79fb      	ldrb	r3, [r7, #7]
 8001330:	3301      	adds	r3, #1
 8001332:	b2db      	uxtb	r3, r3
 8001334:	461a      	mov	r2, r3
 8001336:	0092      	lsls	r2, r2, #2
 8001338:	4413      	add	r3, r2
 800133a:	005b      	lsls	r3, r3, #1
 800133c:	b2db      	uxtb	r3, r3
 800133e:	330c      	adds	r3, #12
 8001340:	f887 306f 	strb.w	r3, [r7, #111]	; 0x6f
	u8g2_DrawStr(&u8g2,5,baris,buff);
 8001344:	f897 306f 	ldrb.w	r3, [r7, #111]	; 0x6f
 8001348:	b29a      	uxth	r2, r3
 800134a:	f107 0308 	add.w	r3, r7, #8
 800134e:	2105      	movs	r1, #5
 8001350:	4812      	ldr	r0, [pc, #72]	; (800139c <set_menu+0x150>)
 8001352:	f00c fe99 	bl	800e088 <u8g2_DrawStr>

	sprintf(buff,"  ");
 8001356:	f107 0308 	add.w	r3, r7, #8
 800135a:	4a18      	ldr	r2, [pc, #96]	; (80013bc <set_menu+0x170>)
 800135c:	6812      	ldr	r2, [r2, #0]
 800135e:	4611      	mov	r1, r2
 8001360:	8019      	strh	r1, [r3, #0]
 8001362:	3302      	adds	r3, #2
 8001364:	0c12      	lsrs	r2, r2, #16
 8001366:	701a      	strb	r2, [r3, #0]
	baris = ((num)*10)+12;
 8001368:	79fb      	ldrb	r3, [r7, #7]
 800136a:	461a      	mov	r2, r3
 800136c:	0092      	lsls	r2, r2, #2
 800136e:	4413      	add	r3, r2
 8001370:	005b      	lsls	r3, r3, #1
 8001372:	b2db      	uxtb	r3, r3
 8001374:	330c      	adds	r3, #12
 8001376:	f887 306f 	strb.w	r3, [r7, #111]	; 0x6f
	u8g2_DrawStr(&u8g2,5,baris,buff);
 800137a:	f897 306f 	ldrb.w	r3, [r7, #111]	; 0x6f
 800137e:	b29a      	uxth	r2, r3
 8001380:	f107 0308 	add.w	r3, r7, #8
 8001384:	2105      	movs	r1, #5
 8001386:	4805      	ldr	r0, [pc, #20]	; (800139c <set_menu+0x150>)
 8001388:	f00c fe7e 	bl	800e088 <u8g2_DrawStr>

	u8g2_UpdateDisplay(&u8g2);
 800138c:	4803      	ldr	r0, [pc, #12]	; (800139c <set_menu+0x150>)
 800138e:	f00c f942 	bl	800d616 <u8g2_UpdateDisplay>
}
 8001392:	bf00      	nop
 8001394:	3774      	adds	r7, #116	; 0x74
 8001396:	46bd      	mov	sp, r7
 8001398:	bd90      	pop	{r4, r7, pc}
 800139a:	bf00      	nop
 800139c:	20001cc0 	.word	0x20001cc0
 80013a0:	08011c30 	.word	0x08011c30
 80013a4:	08011c38 	.word	0x08011c38
 80013a8:	08011c40 	.word	0x08011c40
 80013ac:	08011c4c 	.word	0x08011c4c
 80013b0:	08011c58 	.word	0x08011c58
 80013b4:	08011c60 	.word	0x08011c60
 80013b8:	08011c70 	.word	0x08011c70
 80013bc:	08011c74 	.word	0x08011c74

080013c0 <view_saved_calibrate>:

void view_saved_calibrate(float *value){
 80013c0:	b5b0      	push	{r4, r5, r7, lr}
 80013c2:	b09e      	sub	sp, #120	; 0x78
 80013c4:	af02      	add	r7, sp, #8
 80013c6:	6078      	str	r0, [r7, #4]
	uint8_t buff[100];

	u8g2_ClearBuffer(&u8g2);
 80013c8:	4824      	ldr	r0, [pc, #144]	; (800145c <view_saved_calibrate+0x9c>)
 80013ca:	f00c f857 	bl	800d47c <u8g2_ClearBuffer>

	sprintf(buff,"Calibrate");
 80013ce:	f107 030c 	add.w	r3, r7, #12
 80013d2:	4a23      	ldr	r2, [pc, #140]	; (8001460 <view_saved_calibrate+0xa0>)
 80013d4:	ca07      	ldmia	r2, {r0, r1, r2}
 80013d6:	c303      	stmia	r3!, {r0, r1}
 80013d8:	801a      	strh	r2, [r3, #0]
	u8g2_DrawStr(&u8g2,39,9,buff);
 80013da:	f107 030c 	add.w	r3, r7, #12
 80013de:	2209      	movs	r2, #9
 80013e0:	2127      	movs	r1, #39	; 0x27
 80013e2:	481e      	ldr	r0, [pc, #120]	; (800145c <view_saved_calibrate+0x9c>)
 80013e4:	f00c fe50 	bl	800e088 <u8g2_DrawStr>
	u8g2_DrawLine(&u8g2,0,11,128,11);
 80013e8:	230b      	movs	r3, #11
 80013ea:	9300      	str	r3, [sp, #0]
 80013ec:	2380      	movs	r3, #128	; 0x80
 80013ee:	220b      	movs	r2, #11
 80013f0:	2100      	movs	r1, #0
 80013f2:	481a      	ldr	r0, [pc, #104]	; (800145c <view_saved_calibrate+0x9c>)
 80013f4:	f00d f890 	bl	800e518 <u8g2_DrawLine>
//	sprintf(buff,"Please Tap Tranducer");
//	u8g2_DrawStr(&u8g2,0,22,buff);
//	sprintf(buff,"CH1 into 5mm");
//	u8g2_DrawStr(&u8g2,0,32,buff);
	sprintf(buff,"            Calibrated");
 80013f8:	f107 030c 	add.w	r3, r7, #12
 80013fc:	4a19      	ldr	r2, [pc, #100]	; (8001464 <view_saved_calibrate+0xa4>)
 80013fe:	461c      	mov	r4, r3
 8001400:	4615      	mov	r5, r2
 8001402:	cd0f      	ldmia	r5!, {r0, r1, r2, r3}
 8001404:	c40f      	stmia	r4!, {r0, r1, r2, r3}
 8001406:	e895 0003 	ldmia.w	r5, {r0, r1}
 800140a:	6020      	str	r0, [r4, #0]
 800140c:	3404      	adds	r4, #4
 800140e:	8021      	strh	r1, [r4, #0]
 8001410:	3402      	adds	r4, #2
 8001412:	0c0b      	lsrs	r3, r1, #16
 8001414:	7023      	strb	r3, [r4, #0]
	u8g2_DrawStr(&u8g2,0,42,buff);
 8001416:	f107 030c 	add.w	r3, r7, #12
 800141a:	222a      	movs	r2, #42	; 0x2a
 800141c:	2100      	movs	r1, #0
 800141e:	480f      	ldr	r0, [pc, #60]	; (800145c <view_saved_calibrate+0x9c>)
 8001420:	f00c fe32 	bl	800e088 <u8g2_DrawStr>

	sprintf(buff,"Measure : %.2f mm",*value);
 8001424:	687b      	ldr	r3, [r7, #4]
 8001426:	681b      	ldr	r3, [r3, #0]
 8001428:	4618      	mov	r0, r3
 800142a:	f7ff f8a5 	bl	8000578 <__aeabi_f2d>
 800142e:	4603      	mov	r3, r0
 8001430:	460c      	mov	r4, r1
 8001432:	f107 000c 	add.w	r0, r7, #12
 8001436:	461a      	mov	r2, r3
 8001438:	4623      	mov	r3, r4
 800143a:	490b      	ldr	r1, [pc, #44]	; (8001468 <view_saved_calibrate+0xa8>)
 800143c:	f00e fb86 	bl	800fb4c <siprintf>
	u8g2_DrawStr(&u8g2,0,62,buff);
 8001440:	f107 030c 	add.w	r3, r7, #12
 8001444:	223e      	movs	r2, #62	; 0x3e
 8001446:	2100      	movs	r1, #0
 8001448:	4804      	ldr	r0, [pc, #16]	; (800145c <view_saved_calibrate+0x9c>)
 800144a:	f00c fe1d 	bl	800e088 <u8g2_DrawStr>

	u8g2_UpdateDisplay(&u8g2);
 800144e:	4803      	ldr	r0, [pc, #12]	; (800145c <view_saved_calibrate+0x9c>)
 8001450:	f00c f8e1 	bl	800d616 <u8g2_UpdateDisplay>
}
 8001454:	bf00      	nop
 8001456:	3770      	adds	r7, #112	; 0x70
 8001458:	46bd      	mov	sp, r7
 800145a:	bdb0      	pop	{r4, r5, r7, pc}
 800145c:	20001cc0 	.word	0x20001cc0
 8001460:	08011c78 	.word	0x08011c78
 8001464:	08011c84 	.word	0x08011c84
 8001468:	08011c9c 	.word	0x08011c9c

0800146c <view_calibrate>:
void view_calibrate(float *value){
 800146c:	b5b0      	push	{r4, r5, r7, lr}
 800146e:	b09e      	sub	sp, #120	; 0x78
 8001470:	af02      	add	r7, sp, #8
 8001472:	6078      	str	r0, [r7, #4]
	uint8_t buff[100];

	u8g2_ClearBuffer(&u8g2);
 8001474:	4832      	ldr	r0, [pc, #200]	; (8001540 <view_calibrate+0xd4>)
 8001476:	f00c f801 	bl	800d47c <u8g2_ClearBuffer>

	sprintf(buff,"Calibrate");
 800147a:	f107 030c 	add.w	r3, r7, #12
 800147e:	4a31      	ldr	r2, [pc, #196]	; (8001544 <view_calibrate+0xd8>)
 8001480:	ca07      	ldmia	r2, {r0, r1, r2}
 8001482:	c303      	stmia	r3!, {r0, r1}
 8001484:	801a      	strh	r2, [r3, #0]
	u8g2_DrawStr(&u8g2,39,9,buff);
 8001486:	f107 030c 	add.w	r3, r7, #12
 800148a:	2209      	movs	r2, #9
 800148c:	2127      	movs	r1, #39	; 0x27
 800148e:	482c      	ldr	r0, [pc, #176]	; (8001540 <view_calibrate+0xd4>)
 8001490:	f00c fdfa 	bl	800e088 <u8g2_DrawStr>
	u8g2_DrawLine(&u8g2,0,11,128,11);
 8001494:	230b      	movs	r3, #11
 8001496:	9300      	str	r3, [sp, #0]
 8001498:	2380      	movs	r3, #128	; 0x80
 800149a:	220b      	movs	r2, #11
 800149c:	2100      	movs	r1, #0
 800149e:	4828      	ldr	r0, [pc, #160]	; (8001540 <view_calibrate+0xd4>)
 80014a0:	f00d f83a 	bl	800e518 <u8g2_DrawLine>
	sprintf(buff,"Please Tap Tranducer");
 80014a4:	f107 030c 	add.w	r3, r7, #12
 80014a8:	4a27      	ldr	r2, [pc, #156]	; (8001548 <view_calibrate+0xdc>)
 80014aa:	461c      	mov	r4, r3
 80014ac:	4615      	mov	r5, r2
 80014ae:	cd0f      	ldmia	r5!, {r0, r1, r2, r3}
 80014b0:	c40f      	stmia	r4!, {r0, r1, r2, r3}
 80014b2:	e895 0003 	ldmia.w	r5, {r0, r1}
 80014b6:	6020      	str	r0, [r4, #0]
 80014b8:	3404      	adds	r4, #4
 80014ba:	7021      	strb	r1, [r4, #0]
	u8g2_DrawStr(&u8g2,0,22,buff);
 80014bc:	f107 030c 	add.w	r3, r7, #12
 80014c0:	2216      	movs	r2, #22
 80014c2:	2100      	movs	r1, #0
 80014c4:	481e      	ldr	r0, [pc, #120]	; (8001540 <view_calibrate+0xd4>)
 80014c6:	f00c fddf 	bl	800e088 <u8g2_DrawStr>
	sprintf(buff,"CH1 into 5mm");
 80014ca:	f107 030c 	add.w	r3, r7, #12
 80014ce:	4a1f      	ldr	r2, [pc, #124]	; (800154c <view_calibrate+0xe0>)
 80014d0:	461c      	mov	r4, r3
 80014d2:	4613      	mov	r3, r2
 80014d4:	cb0f      	ldmia	r3, {r0, r1, r2, r3}
 80014d6:	c407      	stmia	r4!, {r0, r1, r2}
 80014d8:	7023      	strb	r3, [r4, #0]
	u8g2_DrawStr(&u8g2,0,32,buff);
 80014da:	f107 030c 	add.w	r3, r7, #12
 80014de:	2220      	movs	r2, #32
 80014e0:	2100      	movs	r1, #0
 80014e2:	4817      	ldr	r0, [pc, #92]	; (8001540 <view_calibrate+0xd4>)
 80014e4:	f00c fdd0 	bl	800e088 <u8g2_DrawStr>
	sprintf(buff,"Calibration Block");
 80014e8:	f107 030c 	add.w	r3, r7, #12
 80014ec:	4a18      	ldr	r2, [pc, #96]	; (8001550 <view_calibrate+0xe4>)
 80014ee:	461c      	mov	r4, r3
 80014f0:	4615      	mov	r5, r2
 80014f2:	cd0f      	ldmia	r5!, {r0, r1, r2, r3}
 80014f4:	c40f      	stmia	r4!, {r0, r1, r2, r3}
 80014f6:	682b      	ldr	r3, [r5, #0]
 80014f8:	8023      	strh	r3, [r4, #0]
	u8g2_DrawStr(&u8g2,0,42,buff);
 80014fa:	f107 030c 	add.w	r3, r7, #12
 80014fe:	222a      	movs	r2, #42	; 0x2a
 8001500:	2100      	movs	r1, #0
 8001502:	480f      	ldr	r0, [pc, #60]	; (8001540 <view_calibrate+0xd4>)
 8001504:	f00c fdc0 	bl	800e088 <u8g2_DrawStr>

	sprintf(buff,"Measure : %.2f mm",*value);
 8001508:	687b      	ldr	r3, [r7, #4]
 800150a:	681b      	ldr	r3, [r3, #0]
 800150c:	4618      	mov	r0, r3
 800150e:	f7ff f833 	bl	8000578 <__aeabi_f2d>
 8001512:	4603      	mov	r3, r0
 8001514:	460c      	mov	r4, r1
 8001516:	f107 000c 	add.w	r0, r7, #12
 800151a:	461a      	mov	r2, r3
 800151c:	4623      	mov	r3, r4
 800151e:	490d      	ldr	r1, [pc, #52]	; (8001554 <view_calibrate+0xe8>)
 8001520:	f00e fb14 	bl	800fb4c <siprintf>
	u8g2_DrawStr(&u8g2,0,62,buff);
 8001524:	f107 030c 	add.w	r3, r7, #12
 8001528:	223e      	movs	r2, #62	; 0x3e
 800152a:	2100      	movs	r1, #0
 800152c:	4804      	ldr	r0, [pc, #16]	; (8001540 <view_calibrate+0xd4>)
 800152e:	f00c fdab 	bl	800e088 <u8g2_DrawStr>

	u8g2_UpdateDisplay(&u8g2);
 8001532:	4803      	ldr	r0, [pc, #12]	; (8001540 <view_calibrate+0xd4>)
 8001534:	f00c f86f 	bl	800d616 <u8g2_UpdateDisplay>
}
 8001538:	bf00      	nop
 800153a:	3770      	adds	r7, #112	; 0x70
 800153c:	46bd      	mov	sp, r7
 800153e:	bdb0      	pop	{r4, r5, r7, pc}
 8001540:	20001cc0 	.word	0x20001cc0
 8001544:	08011c78 	.word	0x08011c78
 8001548:	08011cb0 	.word	0x08011cb0
 800154c:	08011cc8 	.word	0x08011cc8
 8001550:	08011cd8 	.word	0x08011cd8
 8001554:	08011c9c 	.word	0x08011c9c

08001558 <view_fw_info>:

	u8g2_UpdateDisplay(&u8g2);

}

void view_fw_info(){
 8001558:	b5b0      	push	{r4, r5, r7, lr}
 800155a:	b09c      	sub	sp, #112	; 0x70
 800155c:	af02      	add	r7, sp, #8
	uint8_t buff[100];

	u8g2_ClearBuffer(&u8g2);
 800155e:	481e      	ldr	r0, [pc, #120]	; (80015d8 <view_fw_info+0x80>)
 8001560:	f00b ff8c 	bl	800d47c <u8g2_ClearBuffer>

	sprintf(buff,"FW info");
 8001564:	1d3b      	adds	r3, r7, #4
 8001566:	4a1d      	ldr	r2, [pc, #116]	; (80015dc <view_fw_info+0x84>)
 8001568:	e892 0003 	ldmia.w	r2, {r0, r1}
 800156c:	e883 0003 	stmia.w	r3, {r0, r1}
	u8g2_DrawStr(&u8g2,39,9,buff);
 8001570:	1d3b      	adds	r3, r7, #4
 8001572:	2209      	movs	r2, #9
 8001574:	2127      	movs	r1, #39	; 0x27
 8001576:	4818      	ldr	r0, [pc, #96]	; (80015d8 <view_fw_info+0x80>)
 8001578:	f00c fd86 	bl	800e088 <u8g2_DrawStr>
	u8g2_DrawLine(&u8g2,0,11,128,11);
 800157c:	230b      	movs	r3, #11
 800157e:	9300      	str	r3, [sp, #0]
 8001580:	2380      	movs	r3, #128	; 0x80
 8001582:	220b      	movs	r2, #11
 8001584:	2100      	movs	r1, #0
 8001586:	4814      	ldr	r0, [pc, #80]	; (80015d8 <view_fw_info+0x80>)
 8001588:	f00c ffc6 	bl	800e518 <u8g2_DrawLine>
	sprintf(buff,"Version: v2.0.0");
 800158c:	1d3b      	adds	r3, r7, #4
 800158e:	4a14      	ldr	r2, [pc, #80]	; (80015e0 <view_fw_info+0x88>)
 8001590:	461c      	mov	r4, r3
 8001592:	4613      	mov	r3, r2
 8001594:	cb0f      	ldmia	r3, {r0, r1, r2, r3}
 8001596:	e884 000f 	stmia.w	r4, {r0, r1, r2, r3}
	u8g2_DrawStr(&u8g2,0,22,buff);
 800159a:	1d3b      	adds	r3, r7, #4
 800159c:	2216      	movs	r2, #22
 800159e:	2100      	movs	r1, #0
 80015a0:	480d      	ldr	r0, [pc, #52]	; (80015d8 <view_fw_info+0x80>)
 80015a2:	f00c fd71 	bl	800e088 <u8g2_DrawStr>
	sprintf(buff,"By Korosi Specindo");
 80015a6:	1d3b      	adds	r3, r7, #4
 80015a8:	4a0e      	ldr	r2, [pc, #56]	; (80015e4 <view_fw_info+0x8c>)
 80015aa:	461c      	mov	r4, r3
 80015ac:	4615      	mov	r5, r2
 80015ae:	cd0f      	ldmia	r5!, {r0, r1, r2, r3}
 80015b0:	c40f      	stmia	r4!, {r0, r1, r2, r3}
 80015b2:	682b      	ldr	r3, [r5, #0]
 80015b4:	461a      	mov	r2, r3
 80015b6:	8022      	strh	r2, [r4, #0]
 80015b8:	3402      	adds	r4, #2
 80015ba:	0c1b      	lsrs	r3, r3, #16
 80015bc:	7023      	strb	r3, [r4, #0]
	u8g2_DrawStr(&u8g2,0,42,buff);
 80015be:	1d3b      	adds	r3, r7, #4
 80015c0:	222a      	movs	r2, #42	; 0x2a
 80015c2:	2100      	movs	r1, #0
 80015c4:	4804      	ldr	r0, [pc, #16]	; (80015d8 <view_fw_info+0x80>)
 80015c6:	f00c fd5f 	bl	800e088 <u8g2_DrawStr>

	u8g2_UpdateDisplay(&u8g2);
 80015ca:	4803      	ldr	r0, [pc, #12]	; (80015d8 <view_fw_info+0x80>)
 80015cc:	f00c f823 	bl	800d616 <u8g2_UpdateDisplay>
}
 80015d0:	bf00      	nop
 80015d2:	3768      	adds	r7, #104	; 0x68
 80015d4:	46bd      	mov	sp, r7
 80015d6:	bdb0      	pop	{r4, r5, r7, pc}
 80015d8:	20001cc0 	.word	0x20001cc0
 80015dc:	08011d5c 	.word	0x08011d5c
 80015e0:	08011d64 	.word	0x08011d64
 80015e4:	08011d74 	.word	0x08011d74

080015e8 <byte_to_string_type_probe>:
    char tag_name[30]; v
};
type_probe

 */
uint8_t byte_to_string_type_probe(uint8_t prb_dat,char *prb_str){
 80015e8:	b490      	push	{r4, r7}
 80015ea:	b084      	sub	sp, #16
 80015ec:	af00      	add	r7, sp, #0
 80015ee:	4603      	mov	r3, r0
 80015f0:	6039      	str	r1, [r7, #0]
 80015f2:	71fb      	strb	r3, [r7, #7]
	uint8_t stats = 0;
 80015f4:	2300      	movs	r3, #0
 80015f6:	73fb      	strb	r3, [r7, #15]
	switch(prb_dat){
 80015f8:	79fb      	ldrb	r3, [r7, #7]
 80015fa:	2b01      	cmp	r3, #1
 80015fc:	d002      	beq.n	8001604 <byte_to_string_type_probe+0x1c>
 80015fe:	2b02      	cmp	r3, #2
 8001600:	d009      	beq.n	8001616 <byte_to_string_type_probe+0x2e>
 8001602:	e013      	b.n	800162c <byte_to_string_type_probe+0x44>
	case PROBE_5_MHZ:
		sprintf(prb_str,"5 MHZ PROBE");
 8001604:	683b      	ldr	r3, [r7, #0]
 8001606:	4a0e      	ldr	r2, [pc, #56]	; (8001640 <byte_to_string_type_probe+0x58>)
 8001608:	461c      	mov	r4, r3
 800160a:	4613      	mov	r3, r2
 800160c:	cb07      	ldmia	r3!, {r0, r1, r2}
 800160e:	6020      	str	r0, [r4, #0]
 8001610:	6061      	str	r1, [r4, #4]
 8001612:	60a2      	str	r2, [r4, #8]
		break;
 8001614:	e00d      	b.n	8001632 <byte_to_string_type_probe+0x4a>
	case PROBE_10_MHZ:
		sprintf(prb_str,"10 MHZ PROBE");
 8001616:	683b      	ldr	r3, [r7, #0]
 8001618:	4a0a      	ldr	r2, [pc, #40]	; (8001644 <byte_to_string_type_probe+0x5c>)
 800161a:	461c      	mov	r4, r3
 800161c:	4613      	mov	r3, r2
 800161e:	cb07      	ldmia	r3!, {r0, r1, r2}
 8001620:	6020      	str	r0, [r4, #0]
 8001622:	6061      	str	r1, [r4, #4]
 8001624:	60a2      	str	r2, [r4, #8]
 8001626:	781b      	ldrb	r3, [r3, #0]
 8001628:	7323      	strb	r3, [r4, #12]
		break;
 800162a:	e002      	b.n	8001632 <byte_to_string_type_probe+0x4a>
	default:
		stats = 1;
 800162c:	2301      	movs	r3, #1
 800162e:	73fb      	strb	r3, [r7, #15]
		break;
 8001630:	bf00      	nop
	}
	return stats;
 8001632:	7bfb      	ldrb	r3, [r7, #15]
}
 8001634:	4618      	mov	r0, r3
 8001636:	3710      	adds	r7, #16
 8001638:	46bd      	mov	sp, r7
 800163a:	bc90      	pop	{r4, r7}
 800163c:	4770      	bx	lr
 800163e:	bf00      	nop
 8001640:	08011d88 	.word	0x08011d88
 8001644:	08011d94 	.word	0x08011d94

08001648 <byte_to_string_material>:


uint8_t byte_to_string_material(uint8_t mat_dat,char *mat_str){
 8001648:	b490      	push	{r4, r7}
 800164a:	b084      	sub	sp, #16
 800164c:	af00      	add	r7, sp, #0
 800164e:	4603      	mov	r3, r0
 8001650:	6039      	str	r1, [r7, #0]
 8001652:	71fb      	strb	r3, [r7, #7]
	uint8_t stats = 0;
 8001654:	2300      	movs	r3, #0
 8001656:	73fb      	strb	r3, [r7, #15]
	switch(mat_dat){
 8001658:	79fb      	ldrb	r3, [r7, #7]
 800165a:	3b01      	subs	r3, #1
 800165c:	2b07      	cmp	r3, #7
 800165e:	d861      	bhi.n	8001724 <byte_to_string_material+0xdc>
 8001660:	a201      	add	r2, pc, #4	; (adr r2, 8001668 <byte_to_string_material+0x20>)
 8001662:	f852 f023 	ldr.w	pc, [r2, r3, lsl #2]
 8001666:	bf00      	nop
 8001668:	08001689 	.word	0x08001689
 800166c:	08001699 	.word	0x08001699
 8001670:	080016a9 	.word	0x080016a9
 8001674:	080016bb 	.word	0x080016bb
 8001678:	080016d1 	.word	0x080016d1
 800167c:	080016e7 	.word	0x080016e7
 8001680:	080016f5 	.word	0x080016f5
 8001684:	0800170d 	.word	0x0800170d
	case MAT_INCONEL:
		sprintf(mat_str,"INCONEL");
 8001688:	683b      	ldr	r3, [r7, #0]
 800168a:	492b      	ldr	r1, [pc, #172]	; (8001738 <byte_to_string_material+0xf0>)
 800168c:	461a      	mov	r2, r3
 800168e:	460b      	mov	r3, r1
 8001690:	cb03      	ldmia	r3!, {r0, r1}
 8001692:	6010      	str	r0, [r2, #0]
 8001694:	6051      	str	r1, [r2, #4]
		break;
 8001696:	e048      	b.n	800172a <byte_to_string_material+0xe2>
	case MAT_INCOLOY:
		sprintf(mat_str,"INCOLOY");
 8001698:	683b      	ldr	r3, [r7, #0]
 800169a:	4928      	ldr	r1, [pc, #160]	; (800173c <byte_to_string_material+0xf4>)
 800169c:	461a      	mov	r2, r3
 800169e:	460b      	mov	r3, r1
 80016a0:	cb03      	ldmia	r3!, {r0, r1}
 80016a2:	6010      	str	r0, [r2, #0]
 80016a4:	6051      	str	r1, [r2, #4]
		break;
 80016a6:	e040      	b.n	800172a <byte_to_string_material+0xe2>
	case MAT_DUPLEX:
		sprintf(mat_str,"DUPLEX");
 80016a8:	683b      	ldr	r3, [r7, #0]
 80016aa:	4a25      	ldr	r2, [pc, #148]	; (8001740 <byte_to_string_material+0xf8>)
 80016ac:	6810      	ldr	r0, [r2, #0]
 80016ae:	6018      	str	r0, [r3, #0]
 80016b0:	8891      	ldrh	r1, [r2, #4]
 80016b2:	7992      	ldrb	r2, [r2, #6]
 80016b4:	8099      	strh	r1, [r3, #4]
 80016b6:	719a      	strb	r2, [r3, #6]
		break;
 80016b8:	e037      	b.n	800172a <byte_to_string_material+0xe2>
	case MAT_SUPER_DUPLEX:
		sprintf(mat_str,"SUPER_DUPLEX");
 80016ba:	683b      	ldr	r3, [r7, #0]
 80016bc:	4a21      	ldr	r2, [pc, #132]	; (8001744 <byte_to_string_material+0xfc>)
 80016be:	461c      	mov	r4, r3
 80016c0:	4613      	mov	r3, r2
 80016c2:	cb07      	ldmia	r3!, {r0, r1, r2}
 80016c4:	6020      	str	r0, [r4, #0]
 80016c6:	6061      	str	r1, [r4, #4]
 80016c8:	60a2      	str	r2, [r4, #8]
 80016ca:	781b      	ldrb	r3, [r3, #0]
 80016cc:	7323      	strb	r3, [r4, #12]
		break;
 80016ce:	e02c      	b.n	800172a <byte_to_string_material+0xe2>
	case MAT_CARBON_STEEL:
		sprintf(mat_str,"CARBON_STEEL");
 80016d0:	683b      	ldr	r3, [r7, #0]
 80016d2:	4a1d      	ldr	r2, [pc, #116]	; (8001748 <byte_to_string_material+0x100>)
 80016d4:	461c      	mov	r4, r3
 80016d6:	4613      	mov	r3, r2
 80016d8:	cb07      	ldmia	r3!, {r0, r1, r2}
 80016da:	6020      	str	r0, [r4, #0]
 80016dc:	6061      	str	r1, [r4, #4]
 80016de:	60a2      	str	r2, [r4, #8]
 80016e0:	781b      	ldrb	r3, [r3, #0]
 80016e2:	7323      	strb	r3, [r4, #12]
		break;
 80016e4:	e021      	b.n	800172a <byte_to_string_material+0xe2>
	case MAT_SS316:
		sprintf(mat_str,"SS316");
 80016e6:	683b      	ldr	r3, [r7, #0]
 80016e8:	4a18      	ldr	r2, [pc, #96]	; (800174c <byte_to_string_material+0x104>)
 80016ea:	6810      	ldr	r0, [r2, #0]
 80016ec:	6018      	str	r0, [r3, #0]
 80016ee:	8892      	ldrh	r2, [r2, #4]
 80016f0:	809a      	strh	r2, [r3, #4]
		break;
 80016f2:	e01a      	b.n	800172a <byte_to_string_material+0xe2>
	case MAT_ALLUMUNIUM:
		sprintf(mat_str,"ALLUMUNIUM");
 80016f4:	683b      	ldr	r3, [r7, #0]
 80016f6:	4916      	ldr	r1, [pc, #88]	; (8001750 <byte_to_string_material+0x108>)
 80016f8:	461a      	mov	r2, r3
 80016fa:	460b      	mov	r3, r1
 80016fc:	cb03      	ldmia	r3!, {r0, r1}
 80016fe:	6010      	str	r0, [r2, #0]
 8001700:	6051      	str	r1, [r2, #4]
 8001702:	8819      	ldrh	r1, [r3, #0]
 8001704:	789b      	ldrb	r3, [r3, #2]
 8001706:	8111      	strh	r1, [r2, #8]
 8001708:	7293      	strb	r3, [r2, #10]
		break;
 800170a:	e00e      	b.n	800172a <byte_to_string_material+0xe2>
	case MAT_STEEL_MILD:
		sprintf(mat_str,"STEEL,MILD");
 800170c:	683b      	ldr	r3, [r7, #0]
 800170e:	4911      	ldr	r1, [pc, #68]	; (8001754 <byte_to_string_material+0x10c>)
 8001710:	461a      	mov	r2, r3
 8001712:	460b      	mov	r3, r1
 8001714:	cb03      	ldmia	r3!, {r0, r1}
 8001716:	6010      	str	r0, [r2, #0]
 8001718:	6051      	str	r1, [r2, #4]
 800171a:	8819      	ldrh	r1, [r3, #0]
 800171c:	789b      	ldrb	r3, [r3, #2]
 800171e:	8111      	strh	r1, [r2, #8]
 8001720:	7293      	strb	r3, [r2, #10]
		break;
 8001722:	e002      	b.n	800172a <byte_to_string_material+0xe2>
	default:
		stats = 1;
 8001724:	2301      	movs	r3, #1
 8001726:	73fb      	strb	r3, [r7, #15]
		break;
 8001728:	bf00      	nop
	}
	return stats;
 800172a:	7bfb      	ldrb	r3, [r7, #15]
}
 800172c:	4618      	mov	r0, r3
 800172e:	3710      	adds	r7, #16
 8001730:	46bd      	mov	sp, r7
 8001732:	bc90      	pop	{r4, r7}
 8001734:	4770      	bx	lr
 8001736:	bf00      	nop
 8001738:	08011da4 	.word	0x08011da4
 800173c:	08011dac 	.word	0x08011dac
 8001740:	08011db4 	.word	0x08011db4
 8001744:	08011dbc 	.word	0x08011dbc
 8001748:	08011dcc 	.word	0x08011dcc
 800174c:	08011ddc 	.word	0x08011ddc
 8001750:	08011de4 	.word	0x08011de4
 8001754:	08011df0 	.word	0x08011df0

08001758 <material_to_velo>:

uint8_t material_to_velo(uint8_t mat_dat,uint16_t *velo_mat){
 8001758:	b580      	push	{r7, lr}
 800175a:	b084      	sub	sp, #16
 800175c:	af00      	add	r7, sp, #0
 800175e:	4603      	mov	r3, r0
 8001760:	6039      	str	r1, [r7, #0]
 8001762:	71fb      	strb	r3, [r7, #7]
	uint8_t stats = 0;
 8001764:	2300      	movs	r3, #0
 8001766:	73fb      	strb	r3, [r7, #15]
	switch(mat_dat){
 8001768:	79fb      	ldrb	r3, [r7, #7]
 800176a:	3b01      	subs	r3, #1
 800176c:	2b07      	cmp	r3, #7
 800176e:	d83b      	bhi.n	80017e8 <material_to_velo+0x90>
 8001770:	a201      	add	r2, pc, #4	; (adr r2, 8001778 <material_to_velo+0x20>)
 8001772:	f852 f023 	ldr.w	pc, [r2, r3, lsl #2]
 8001776:	bf00      	nop
 8001778:	08001799 	.word	0x08001799
 800177c:	080017a3 	.word	0x080017a3
 8001780:	080017ad 	.word	0x080017ad
 8001784:	080017b7 	.word	0x080017b7
 8001788:	080017c1 	.word	0x080017c1
 800178c:	080017cb 	.word	0x080017cb
 8001790:	080017d5 	.word	0x080017d5
 8001794:	080017df 	.word	0x080017df
	case MAT_INCONEL:
		*velo_mat = VELO_INCONEL;
 8001798:	683b      	ldr	r3, [r7, #0]
 800179a:	f241 6244 	movw	r2, #5700	; 0x1644
 800179e:	801a      	strh	r2, [r3, #0]
		break;
 80017a0:	e025      	b.n	80017ee <material_to_velo+0x96>
	case MAT_INCOLOY:
		*velo_mat = VELO_INCOLOY;
 80017a2:	683b      	ldr	r3, [r7, #0]
 80017a4:	f641 42d0 	movw	r2, #7376	; 0x1cd0
 80017a8:	801a      	strh	r2, [r3, #0]
		break;
 80017aa:	e020      	b.n	80017ee <material_to_velo+0x96>
	case MAT_DUPLEX:
		*velo_mat = VELO_DUPLEX;
 80017ac:	683b      	ldr	r3, [r7, #0]
 80017ae:	f241 52df 	movw	r2, #5599	; 0x15df
 80017b2:	801a      	strh	r2, [r3, #0]
		break;
 80017b4:	e01b      	b.n	80017ee <material_to_velo+0x96>
	case MAT_SUPER_DUPLEX:
		*velo_mat = VELO_SUPER_DUPLEX;
 80017b6:	683b      	ldr	r3, [r7, #0]
 80017b8:	f241 52df 	movw	r2, #5599	; 0x15df
 80017bc:	801a      	strh	r2, [r3, #0]
		break;
 80017be:	e016      	b.n	80017ee <material_to_velo+0x96>
	case MAT_CARBON_STEEL:
		*velo_mat = VELO_CARBON_STEEL;
 80017c0:	683b      	ldr	r3, [r7, #0]
 80017c2:	f241 722b 	movw	r2, #5931	; 0x172b
 80017c6:	801a      	strh	r2, [r3, #0]
		break;
 80017c8:	e011      	b.n	80017ee <material_to_velo+0x96>
	case MAT_SS316:
		*velo_mat = VELO_SS316;
 80017ca:	683b      	ldr	r3, [r7, #0]
 80017cc:	f241 626c 	movw	r2, #5740	; 0x166c
 80017d0:	801a      	strh	r2, [r3, #0]
		break;
 80017d2:	e00c      	b.n	80017ee <material_to_velo+0x96>
	case MAT_ALLUMUNIUM:
		*velo_mat = VELO_ALLUMUNIUM;
 80017d4:	683b      	ldr	r3, [r7, #0]
 80017d6:	f641 029c 	movw	r2, #6300	; 0x189c
 80017da:	801a      	strh	r2, [r3, #0]
		break;
 80017dc:	e007      	b.n	80017ee <material_to_velo+0x96>
	case MAT_STEEL_MILD:
		*velo_mat = VELO_STEEL_MILD;
 80017de:	683b      	ldr	r3, [r7, #0]
 80017e0:	f44f 52b9 	mov.w	r2, #5920	; 0x1720
 80017e4:	801a      	strh	r2, [r3, #0]
		break;
 80017e6:	e002      	b.n	80017ee <material_to_velo+0x96>
	default:
		stats = 1;
 80017e8:	2301      	movs	r3, #1
 80017ea:	73fb      	strb	r3, [r7, #15]
		break;
 80017ec:	bf00      	nop
	}
	printf("velo_mat = %d\r\n",*velo_mat);
 80017ee:	683b      	ldr	r3, [r7, #0]
 80017f0:	881b      	ldrh	r3, [r3, #0]
 80017f2:	4619      	mov	r1, r3
 80017f4:	4803      	ldr	r0, [pc, #12]	; (8001804 <material_to_velo+0xac>)
 80017f6:	f00e f92d 	bl	800fa54 <iprintf>
	return stats;
 80017fa:	7bfb      	ldrb	r3, [r7, #15]
}
 80017fc:	4618      	mov	r0, r3
 80017fe:	3710      	adds	r7, #16
 8001800:	46bd      	mov	sp, r7
 8001802:	bd80      	pop	{r7, pc}
 8001804:	08011dfc 	.word	0x08011dfc

08001808 <view_look_config>:



void view_look_config(struct setting_ut view_conf,uint8_t page){
 8001808:	b084      	sub	sp, #16
 800180a:	b580      	push	{r7, lr}
 800180c:	b0a6      	sub	sp, #152	; 0x98
 800180e:	af02      	add	r7, sp, #8
 8001810:	f107 0c98 	add.w	ip, r7, #152	; 0x98
 8001814:	e88c 000f 	stmia.w	ip, {r0, r1, r2, r3}
	uint8_t buff[100];
	uint8_t str_dat[30];

	u8g2_ClearBuffer(&u8g2);
 8001818:	4871      	ldr	r0, [pc, #452]	; (80019e0 <view_look_config+0x1d8>)
 800181a:	f00b fe2f 	bl	800d47c <u8g2_ClearBuffer>

	sprintf(buff,"View Config");
 800181e:	f107 032c 	add.w	r3, r7, #44	; 0x2c
 8001822:	4a70      	ldr	r2, [pc, #448]	; (80019e4 <view_look_config+0x1dc>)
 8001824:	ca07      	ldmia	r2, {r0, r1, r2}
 8001826:	e883 0007 	stmia.w	r3, {r0, r1, r2}
	u8g2_DrawStr(&u8g2,29,9,buff);
 800182a:	f107 032c 	add.w	r3, r7, #44	; 0x2c
 800182e:	2209      	movs	r2, #9
 8001830:	211d      	movs	r1, #29
 8001832:	486b      	ldr	r0, [pc, #428]	; (80019e0 <view_look_config+0x1d8>)
 8001834:	f00c fc28 	bl	800e088 <u8g2_DrawStr>
	u8g2_DrawLine(&u8g2,0,11,128,11);
 8001838:	230b      	movs	r3, #11
 800183a:	9300      	str	r3, [sp, #0]
 800183c:	2380      	movs	r3, #128	; 0x80
 800183e:	220b      	movs	r2, #11
 8001840:	2100      	movs	r1, #0
 8001842:	4867      	ldr	r0, [pc, #412]	; (80019e0 <view_look_config+0x1d8>)
 8001844:	f00c fe68 	bl	800e518 <u8g2_DrawLine>
	if(page == 0){
 8001848:	f897 30c4 	ldrb.w	r3, [r7, #196]	; 0xc4
 800184c:	2b00      	cmp	r3, #0
 800184e:	d159      	bne.n	8001904 <view_look_config+0xfc>
		sprintf(buff,"Tag: %s",view_conf.tag_name);
 8001850:	f107 02a4 	add.w	r2, r7, #164	; 0xa4
 8001854:	f107 032c 	add.w	r3, r7, #44	; 0x2c
 8001858:	4963      	ldr	r1, [pc, #396]	; (80019e8 <view_look_config+0x1e0>)
 800185a:	4618      	mov	r0, r3
 800185c:	f00e f976 	bl	800fb4c <siprintf>
		u8g2_DrawStr(&u8g2,0,22,buff);
 8001860:	f107 032c 	add.w	r3, r7, #44	; 0x2c
 8001864:	2216      	movs	r2, #22
 8001866:	2100      	movs	r1, #0
 8001868:	485d      	ldr	r0, [pc, #372]	; (80019e0 <view_look_config+0x1d8>)
 800186a:	f00c fc0d 	bl	800e088 <u8g2_DrawStr>
		sprintf(buff,"Interval: %d hr %d min",view_conf.interval_jam,view_conf.interval_menit);
 800186e:	f897 309a 	ldrb.w	r3, [r7, #154]	; 0x9a
 8001872:	461a      	mov	r2, r3
 8001874:	f897 309b 	ldrb.w	r3, [r7, #155]	; 0x9b
 8001878:	f107 002c 	add.w	r0, r7, #44	; 0x2c
 800187c:	495b      	ldr	r1, [pc, #364]	; (80019ec <view_look_config+0x1e4>)
 800187e:	f00e f965 	bl	800fb4c <siprintf>
		u8g2_DrawStr(&u8g2,0,32,buff);
 8001882:	f107 032c 	add.w	r3, r7, #44	; 0x2c
 8001886:	2220      	movs	r2, #32
 8001888:	2100      	movs	r1, #0
 800188a:	4855      	ldr	r0, [pc, #340]	; (80019e0 <view_look_config+0x1d8>)
 800188c:	f00c fbfc 	bl	800e088 <u8g2_DrawStr>

		byte_to_string_material(view_conf.jenis_material,str_dat);
 8001890:	f897 309c 	ldrb.w	r3, [r7, #156]	; 0x9c
 8001894:	f107 020c 	add.w	r2, r7, #12
 8001898:	4611      	mov	r1, r2
 800189a:	4618      	mov	r0, r3
 800189c:	f7ff fed4 	bl	8001648 <byte_to_string_material>
		sprintf(buff,"Material : %s",str_dat);
 80018a0:	f107 020c 	add.w	r2, r7, #12
 80018a4:	f107 032c 	add.w	r3, r7, #44	; 0x2c
 80018a8:	4951      	ldr	r1, [pc, #324]	; (80019f0 <view_look_config+0x1e8>)
 80018aa:	4618      	mov	r0, r3
 80018ac:	f00e f94e 	bl	800fb4c <siprintf>
		u8g2_DrawStr(&u8g2,0,42,buff);
 80018b0:	f107 032c 	add.w	r3, r7, #44	; 0x2c
 80018b4:	222a      	movs	r2, #42	; 0x2a
 80018b6:	2100      	movs	r1, #0
 80018b8:	4849      	ldr	r0, [pc, #292]	; (80019e0 <view_look_config+0x1d8>)
 80018ba:	f00c fbe5 	bl	800e088 <u8g2_DrawStr>
		uint16_t velocity_material;
		material_to_velo(view_conf.jenis_material,&velocity_material);
 80018be:	f897 309c 	ldrb.w	r3, [r7, #156]	; 0x9c
 80018c2:	f107 020a 	add.w	r2, r7, #10
 80018c6:	4611      	mov	r1, r2
 80018c8:	4618      	mov	r0, r3
 80018ca:	f7ff ff45 	bl	8001758 <material_to_velo>
	//	printf("velocity_material = %d\r\n",velocity_material);
		sprintf(buff,"Velocity : %d m/s",velocity_material);
 80018ce:	897b      	ldrh	r3, [r7, #10]
 80018d0:	461a      	mov	r2, r3
 80018d2:	f107 032c 	add.w	r3, r7, #44	; 0x2c
 80018d6:	4947      	ldr	r1, [pc, #284]	; (80019f4 <view_look_config+0x1ec>)
 80018d8:	4618      	mov	r0, r3
 80018da:	f00e f937 	bl	800fb4c <siprintf>
		u8g2_DrawStr(&u8g2,0,52,buff);
 80018de:	f107 032c 	add.w	r3, r7, #44	; 0x2c
 80018e2:	2234      	movs	r2, #52	; 0x34
 80018e4:	2100      	movs	r1, #0
 80018e6:	483e      	ldr	r0, [pc, #248]	; (80019e0 <view_look_config+0x1d8>)
 80018e8:	f00c fbce 	bl	800e088 <u8g2_DrawStr>

		sprintf(buff,">");
 80018ec:	f107 032c 	add.w	r3, r7, #44	; 0x2c
 80018f0:	223e      	movs	r2, #62	; 0x3e
 80018f2:	801a      	strh	r2, [r3, #0]
		u8g2_DrawStr(&u8g2,120,62,buff);
 80018f4:	f107 032c 	add.w	r3, r7, #44	; 0x2c
 80018f8:	223e      	movs	r2, #62	; 0x3e
 80018fa:	2178      	movs	r1, #120	; 0x78
 80018fc:	4838      	ldr	r0, [pc, #224]	; (80019e0 <view_look_config+0x1d8>)
 80018fe:	f00c fbc3 	bl	800e088 <u8g2_DrawStr>
 8001902:	e063      	b.n	80019cc <view_look_config+0x1c4>
	}else if(page == 1){
 8001904:	f897 30c4 	ldrb.w	r3, [r7, #196]	; 0xc4
 8001908:	2b01      	cmp	r3, #1
 800190a:	d15f      	bne.n	80019cc <view_look_config+0x1c4>
		byte_to_string_type_probe(view_conf.type_probe,str_dat);
 800190c:	f897 3099 	ldrb.w	r3, [r7, #153]	; 0x99
 8001910:	f107 020c 	add.w	r2, r7, #12
 8001914:	4611      	mov	r1, r2
 8001916:	4618      	mov	r0, r3
 8001918:	f7ff fe66 	bl	80015e8 <byte_to_string_type_probe>
		sprintf(buff,"Type : %s",str_dat);
 800191c:	f107 020c 	add.w	r2, r7, #12
 8001920:	f107 032c 	add.w	r3, r7, #44	; 0x2c
 8001924:	4934      	ldr	r1, [pc, #208]	; (80019f8 <view_look_config+0x1f0>)
 8001926:	4618      	mov	r0, r3
 8001928:	f00e f910 	bl	800fb4c <siprintf>
		u8g2_DrawStr(&u8g2,0,22,buff);
 800192c:	f107 032c 	add.w	r3, r7, #44	; 0x2c
 8001930:	2216      	movs	r2, #22
 8001932:	2100      	movs	r1, #0
 8001934:	482a      	ldr	r0, [pc, #168]	; (80019e0 <view_look_config+0x1d8>)
 8001936:	f00c fba7 	bl	800e088 <u8g2_DrawStr>
		sprintf(buff,"Num CH/Data: %d/%d",view_conf.jum_ch,view_conf.jml_data);
 800193a:	f897 3098 	ldrb.w	r3, [r7, #152]	; 0x98
 800193e:	461a      	mov	r2, r3
 8001940:	f8b7 309e 	ldrh.w	r3, [r7, #158]	; 0x9e
 8001944:	f107 002c 	add.w	r0, r7, #44	; 0x2c
 8001948:	492c      	ldr	r1, [pc, #176]	; (80019fc <view_look_config+0x1f4>)
 800194a:	f00e f8ff 	bl	800fb4c <siprintf>
		u8g2_DrawStr(&u8g2,0,32,buff);
 800194e:	f107 032c 	add.w	r3, r7, #44	; 0x2c
 8001952:	2220      	movs	r2, #32
 8001954:	2100      	movs	r1, #0
 8001956:	4822      	ldr	r0, [pc, #136]	; (80019e0 <view_look_config+0x1d8>)
 8001958:	f00c fb96 	bl	800e088 <u8g2_DrawStr>
//		sprintf(buff,"Epoch: %d",view_conf.set_waktu);
//		u8g2_DrawStr(&u8g2,0,42,buff);

		struct DateTime set_date;
		convertUnixTimeToDate(view_conf.set_waktu, &set_date);
 800195c:	f8d7 30a0 	ldr.w	r3, [r7, #160]	; 0xa0
 8001960:	463a      	mov	r2, r7
 8001962:	4611      	mov	r1, r2
 8001964:	4618      	mov	r0, r3
 8001966:	f000 f989 	bl	8001c7c <convertUnixTimeToDate>
		sprintf(buff,"Date: %02d-%02d-%02d",set_date.day,set_date.month,set_date.year);
 800196a:	78fb      	ldrb	r3, [r7, #3]
 800196c:	461a      	mov	r2, r3
 800196e:	78bb      	ldrb	r3, [r7, #2]
 8001970:	4619      	mov	r1, r3
 8001972:	883b      	ldrh	r3, [r7, #0]
 8001974:	f107 002c 	add.w	r0, r7, #44	; 0x2c
 8001978:	9300      	str	r3, [sp, #0]
 800197a:	460b      	mov	r3, r1
 800197c:	4920      	ldr	r1, [pc, #128]	; (8001a00 <view_look_config+0x1f8>)
 800197e:	f00e f8e5 	bl	800fb4c <siprintf>
		u8g2_DrawStr(&u8g2,0,42,buff);
 8001982:	f107 032c 	add.w	r3, r7, #44	; 0x2c
 8001986:	222a      	movs	r2, #42	; 0x2a
 8001988:	2100      	movs	r1, #0
 800198a:	4815      	ldr	r0, [pc, #84]	; (80019e0 <view_look_config+0x1d8>)
 800198c:	f00c fb7c 	bl	800e088 <u8g2_DrawStr>

		sprintf(buff,"Time: %02d:%02d:%02d",set_date.hours,set_date.minutes,set_date.seconds);
 8001990:	797b      	ldrb	r3, [r7, #5]
 8001992:	461a      	mov	r2, r3
 8001994:	79bb      	ldrb	r3, [r7, #6]
 8001996:	4619      	mov	r1, r3
 8001998:	79fb      	ldrb	r3, [r7, #7]
 800199a:	f107 002c 	add.w	r0, r7, #44	; 0x2c
 800199e:	9300      	str	r3, [sp, #0]
 80019a0:	460b      	mov	r3, r1
 80019a2:	4918      	ldr	r1, [pc, #96]	; (8001a04 <view_look_config+0x1fc>)
 80019a4:	f00e f8d2 	bl	800fb4c <siprintf>
		u8g2_DrawStr(&u8g2,0,52,buff);
 80019a8:	f107 032c 	add.w	r3, r7, #44	; 0x2c
 80019ac:	2234      	movs	r2, #52	; 0x34
 80019ae:	2100      	movs	r1, #0
 80019b0:	480b      	ldr	r0, [pc, #44]	; (80019e0 <view_look_config+0x1d8>)
 80019b2:	f00c fb69 	bl	800e088 <u8g2_DrawStr>

		sprintf(buff,"<");
 80019b6:	f107 032c 	add.w	r3, r7, #44	; 0x2c
 80019ba:	223c      	movs	r2, #60	; 0x3c
 80019bc:	801a      	strh	r2, [r3, #0]
		u8g2_DrawStr(&u8g2,0,62,buff);
 80019be:	f107 032c 	add.w	r3, r7, #44	; 0x2c
 80019c2:	223e      	movs	r2, #62	; 0x3e
 80019c4:	2100      	movs	r1, #0
 80019c6:	4806      	ldr	r0, [pc, #24]	; (80019e0 <view_look_config+0x1d8>)
 80019c8:	f00c fb5e 	bl	800e088 <u8g2_DrawStr>

	}
	u8g2_UpdateDisplay(&u8g2);
 80019cc:	4804      	ldr	r0, [pc, #16]	; (80019e0 <view_look_config+0x1d8>)
 80019ce:	f00b fe22 	bl	800d616 <u8g2_UpdateDisplay>
}
 80019d2:	bf00      	nop
 80019d4:	3790      	adds	r7, #144	; 0x90
 80019d6:	46bd      	mov	sp, r7
 80019d8:	e8bd 4080 	ldmia.w	sp!, {r7, lr}
 80019dc:	b004      	add	sp, #16
 80019de:	4770      	bx	lr
 80019e0:	20001cc0 	.word	0x20001cc0
 80019e4:	08011c40 	.word	0x08011c40
 80019e8:	08011e0c 	.word	0x08011e0c
 80019ec:	08011e14 	.word	0x08011e14
 80019f0:	08011e2c 	.word	0x08011e2c
 80019f4:	08011e3c 	.word	0x08011e3c
 80019f8:	08011e50 	.word	0x08011e50
 80019fc:	08011e5c 	.word	0x08011e5c
 8001a00:	08011e70 	.word	0x08011e70
 8001a04:	08011e88 	.word	0x08011e88

08001a08 <view_ut_data>:
	u8g2_DrawStr(&u8g2,0,62,buff);

	u8g2_UpdateDisplay(&u8g2);
}

void view_ut_data(float *ut_ch,int data_ke){
 8001a08:	b590      	push	{r4, r7, lr}
 8001a0a:	b09d      	sub	sp, #116	; 0x74
 8001a0c:	af00      	add	r7, sp, #0
 8001a0e:	6078      	str	r0, [r7, #4]
 8001a10:	6039      	str	r1, [r7, #0]
	uint8_t buff[100];

	//	  	cmd_lcd(0xAE);

	//	  	u8g2_ClearDisplay(&u8g2);
	u8g2_ClearBuffer(&u8g2);
 8001a12:	485e      	ldr	r0, [pc, #376]	; (8001b8c <view_ut_data+0x184>)
 8001a14:	f00b fd32 	bl	800d47c <u8g2_ClearBuffer>
	//sw=u8g2_GetStrWidth(&u8g2, buff);
	sprintf(buff,"Thickness(mm):");
 8001a18:	f107 030c 	add.w	r3, r7, #12
 8001a1c:	4a5c      	ldr	r2, [pc, #368]	; (8001b90 <view_ut_data+0x188>)
 8001a1e:	461c      	mov	r4, r3
 8001a20:	4613      	mov	r3, r2
 8001a22:	cb0f      	ldmia	r3, {r0, r1, r2, r3}
 8001a24:	c407      	stmia	r4!, {r0, r1, r2}
 8001a26:	8023      	strh	r3, [r4, #0]
 8001a28:	3402      	adds	r4, #2
 8001a2a:	0c1b      	lsrs	r3, r3, #16
 8001a2c:	7023      	strb	r3, [r4, #0]
	u8g2_DrawStr(&u8g2,5,9,buff);
 8001a2e:	f107 030c 	add.w	r3, r7, #12
 8001a32:	2209      	movs	r2, #9
 8001a34:	2105      	movs	r1, #5
 8001a36:	4855      	ldr	r0, [pc, #340]	; (8001b8c <view_ut_data+0x184>)
 8001a38:	f00c fb26 	bl	800e088 <u8g2_DrawStr>
	sprintf(buff,"Ch");
 8001a3c:	f107 030c 	add.w	r3, r7, #12
 8001a40:	4a54      	ldr	r2, [pc, #336]	; (8001b94 <view_ut_data+0x18c>)
 8001a42:	6812      	ldr	r2, [r2, #0]
 8001a44:	4611      	mov	r1, r2
 8001a46:	8019      	strh	r1, [r3, #0]
 8001a48:	3302      	adds	r3, #2
 8001a4a:	0c12      	lsrs	r2, r2, #16
 8001a4c:	701a      	strb	r2, [r3, #0]
	u8g2_DrawStr(&u8g2,5,19,buff);
 8001a4e:	f107 030c 	add.w	r3, r7, #12
 8001a52:	2213      	movs	r2, #19
 8001a54:	2105      	movs	r1, #5
 8001a56:	484d      	ldr	r0, [pc, #308]	; (8001b8c <view_ut_data+0x184>)
 8001a58:	f00c fb16 	bl	800e088 <u8g2_DrawStr>
	sprintf(buff,"1:   %.2f",ut_ch[0]);
 8001a5c:	687b      	ldr	r3, [r7, #4]
 8001a5e:	681b      	ldr	r3, [r3, #0]
 8001a60:	4618      	mov	r0, r3
 8001a62:	f7fe fd89 	bl	8000578 <__aeabi_f2d>
 8001a66:	4603      	mov	r3, r0
 8001a68:	460c      	mov	r4, r1
 8001a6a:	f107 000c 	add.w	r0, r7, #12
 8001a6e:	461a      	mov	r2, r3
 8001a70:	4623      	mov	r3, r4
 8001a72:	4949      	ldr	r1, [pc, #292]	; (8001b98 <view_ut_data+0x190>)
 8001a74:	f00e f86a 	bl	800fb4c <siprintf>
	u8g2_DrawStr(&u8g2,5,29,buff);
 8001a78:	f107 030c 	add.w	r3, r7, #12
 8001a7c:	221d      	movs	r2, #29
 8001a7e:	2105      	movs	r1, #5
 8001a80:	4842      	ldr	r0, [pc, #264]	; (8001b8c <view_ut_data+0x184>)
 8001a82:	f00c fb01 	bl	800e088 <u8g2_DrawStr>
	sprintf(buff,"2:   %.2f",ut_ch[1]);
 8001a86:	687b      	ldr	r3, [r7, #4]
 8001a88:	3304      	adds	r3, #4
 8001a8a:	681b      	ldr	r3, [r3, #0]
 8001a8c:	4618      	mov	r0, r3
 8001a8e:	f7fe fd73 	bl	8000578 <__aeabi_f2d>
 8001a92:	4603      	mov	r3, r0
 8001a94:	460c      	mov	r4, r1
 8001a96:	f107 000c 	add.w	r0, r7, #12
 8001a9a:	461a      	mov	r2, r3
 8001a9c:	4623      	mov	r3, r4
 8001a9e:	493f      	ldr	r1, [pc, #252]	; (8001b9c <view_ut_data+0x194>)
 8001aa0:	f00e f854 	bl	800fb4c <siprintf>
	u8g2_DrawStr(&u8g2,5,39,buff);
 8001aa4:	f107 030c 	add.w	r3, r7, #12
 8001aa8:	2227      	movs	r2, #39	; 0x27
 8001aaa:	2105      	movs	r1, #5
 8001aac:	4837      	ldr	r0, [pc, #220]	; (8001b8c <view_ut_data+0x184>)
 8001aae:	f00c faeb 	bl	800e088 <u8g2_DrawStr>
	sprintf(buff,"3:   %.2f",ut_ch[2]);
 8001ab2:	687b      	ldr	r3, [r7, #4]
 8001ab4:	3308      	adds	r3, #8
 8001ab6:	681b      	ldr	r3, [r3, #0]
 8001ab8:	4618      	mov	r0, r3
 8001aba:	f7fe fd5d 	bl	8000578 <__aeabi_f2d>
 8001abe:	4603      	mov	r3, r0
 8001ac0:	460c      	mov	r4, r1
 8001ac2:	f107 000c 	add.w	r0, r7, #12
 8001ac6:	461a      	mov	r2, r3
 8001ac8:	4623      	mov	r3, r4
 8001aca:	4935      	ldr	r1, [pc, #212]	; (8001ba0 <view_ut_data+0x198>)
 8001acc:	f00e f83e 	bl	800fb4c <siprintf>
	u8g2_DrawStr(&u8g2,5,49,buff);
 8001ad0:	f107 030c 	add.w	r3, r7, #12
 8001ad4:	2231      	movs	r2, #49	; 0x31
 8001ad6:	2105      	movs	r1, #5
 8001ad8:	482c      	ldr	r0, [pc, #176]	; (8001b8c <view_ut_data+0x184>)
 8001ada:	f00c fad5 	bl	800e088 <u8g2_DrawStr>
	sprintf(buff,"4:   %.2f",ut_ch[3]);
 8001ade:	687b      	ldr	r3, [r7, #4]
 8001ae0:	330c      	adds	r3, #12
 8001ae2:	681b      	ldr	r3, [r3, #0]
 8001ae4:	4618      	mov	r0, r3
 8001ae6:	f7fe fd47 	bl	8000578 <__aeabi_f2d>
 8001aea:	4603      	mov	r3, r0
 8001aec:	460c      	mov	r4, r1
 8001aee:	f107 000c 	add.w	r0, r7, #12
 8001af2:	461a      	mov	r2, r3
 8001af4:	4623      	mov	r3, r4
 8001af6:	492b      	ldr	r1, [pc, #172]	; (8001ba4 <view_ut_data+0x19c>)
 8001af8:	f00e f828 	bl	800fb4c <siprintf>
	u8g2_DrawStr(&u8g2,70,29,buff);
 8001afc:	f107 030c 	add.w	r3, r7, #12
 8001b00:	221d      	movs	r2, #29
 8001b02:	2146      	movs	r1, #70	; 0x46
 8001b04:	4821      	ldr	r0, [pc, #132]	; (8001b8c <view_ut_data+0x184>)
 8001b06:	f00c fabf 	bl	800e088 <u8g2_DrawStr>
	sprintf(buff,"5:   %.2f",ut_ch[4]);
 8001b0a:	687b      	ldr	r3, [r7, #4]
 8001b0c:	3310      	adds	r3, #16
 8001b0e:	681b      	ldr	r3, [r3, #0]
 8001b10:	4618      	mov	r0, r3
 8001b12:	f7fe fd31 	bl	8000578 <__aeabi_f2d>
 8001b16:	4603      	mov	r3, r0
 8001b18:	460c      	mov	r4, r1
 8001b1a:	f107 000c 	add.w	r0, r7, #12
 8001b1e:	461a      	mov	r2, r3
 8001b20:	4623      	mov	r3, r4
 8001b22:	4921      	ldr	r1, [pc, #132]	; (8001ba8 <view_ut_data+0x1a0>)
 8001b24:	f00e f812 	bl	800fb4c <siprintf>
	u8g2_DrawStr(&u8g2,70,39,buff);
 8001b28:	f107 030c 	add.w	r3, r7, #12
 8001b2c:	2227      	movs	r2, #39	; 0x27
 8001b2e:	2146      	movs	r1, #70	; 0x46
 8001b30:	4816      	ldr	r0, [pc, #88]	; (8001b8c <view_ut_data+0x184>)
 8001b32:	f00c faa9 	bl	800e088 <u8g2_DrawStr>
	sprintf(buff,"6:   %.2f",ut_ch[5]);
 8001b36:	687b      	ldr	r3, [r7, #4]
 8001b38:	3314      	adds	r3, #20
 8001b3a:	681b      	ldr	r3, [r3, #0]
 8001b3c:	4618      	mov	r0, r3
 8001b3e:	f7fe fd1b 	bl	8000578 <__aeabi_f2d>
 8001b42:	4603      	mov	r3, r0
 8001b44:	460c      	mov	r4, r1
 8001b46:	f107 000c 	add.w	r0, r7, #12
 8001b4a:	461a      	mov	r2, r3
 8001b4c:	4623      	mov	r3, r4
 8001b4e:	4917      	ldr	r1, [pc, #92]	; (8001bac <view_ut_data+0x1a4>)
 8001b50:	f00d fffc 	bl	800fb4c <siprintf>
	u8g2_DrawStr(&u8g2,70,49,buff);
 8001b54:	f107 030c 	add.w	r3, r7, #12
 8001b58:	2231      	movs	r2, #49	; 0x31
 8001b5a:	2146      	movs	r1, #70	; 0x46
 8001b5c:	480b      	ldr	r0, [pc, #44]	; (8001b8c <view_ut_data+0x184>)
 8001b5e:	f00c fa93 	bl	800e088 <u8g2_DrawStr>

	sprintf(buff,"%d",data_ke);
 8001b62:	f107 030c 	add.w	r3, r7, #12
 8001b66:	683a      	ldr	r2, [r7, #0]
 8001b68:	4911      	ldr	r1, [pc, #68]	; (8001bb0 <view_ut_data+0x1a8>)
 8001b6a:	4618      	mov	r0, r3
 8001b6c:	f00d ffee 	bl	800fb4c <siprintf>
	u8g2_DrawStr(&u8g2,5,60,buff);
 8001b70:	f107 030c 	add.w	r3, r7, #12
 8001b74:	223c      	movs	r2, #60	; 0x3c
 8001b76:	2105      	movs	r1, #5
 8001b78:	4804      	ldr	r0, [pc, #16]	; (8001b8c <view_ut_data+0x184>)
 8001b7a:	f00c fa85 	bl	800e088 <u8g2_DrawStr>

	//	  	cmd_lcd(0xAF);
	u8g2_UpdateDisplay(&u8g2);
 8001b7e:	4803      	ldr	r0, [pc, #12]	; (8001b8c <view_ut_data+0x184>)
 8001b80:	f00b fd49 	bl	800d616 <u8g2_UpdateDisplay>
}
 8001b84:	bf00      	nop
 8001b86:	3774      	adds	r7, #116	; 0x74
 8001b88:	46bd      	mov	sp, r7
 8001b8a:	bd90      	pop	{r4, r7, pc}
 8001b8c:	20001cc0 	.word	0x20001cc0
 8001b90:	08011eec 	.word	0x08011eec
 8001b94:	08011efc 	.word	0x08011efc
 8001b98:	08011f00 	.word	0x08011f00
 8001b9c:	08011f0c 	.word	0x08011f0c
 8001ba0:	08011f18 	.word	0x08011f18
 8001ba4:	08011f24 	.word	0x08011f24
 8001ba8:	08011f30 	.word	0x08011f30
 8001bac:	08011f3c 	.word	0x08011f3c
 8001bb0:	08011f48 	.word	0x08011f48

08001bb4 <computeDayOfWeek>:
  * @param[in] d Day of month (in range 1 to 31)
  * @return Day of week (in range 1 to 7)
  **/

uint8_t computeDayOfWeek(uint16_t y, uint8_t m, uint8_t d)
{
 8001bb4:	b480      	push	{r7}
 8001bb6:	b085      	sub	sp, #20
 8001bb8:	af00      	add	r7, sp, #0
 8001bba:	4603      	mov	r3, r0
 8001bbc:	80fb      	strh	r3, [r7, #6]
 8001bbe:	460b      	mov	r3, r1
 8001bc0:	717b      	strb	r3, [r7, #5]
 8001bc2:	4613      	mov	r3, r2
 8001bc4:	713b      	strb	r3, [r7, #4]
    uint8_t h;
    uint8_t j;
    uint8_t k;

    //January and February are counted as months 13 and 14 of the previous year
    if(m <= 2)
 8001bc6:	797b      	ldrb	r3, [r7, #5]
 8001bc8:	2b02      	cmp	r3, #2
 8001bca:	d805      	bhi.n	8001bd8 <computeDayOfWeek+0x24>
    {
       m += 12;
 8001bcc:	797b      	ldrb	r3, [r7, #5]
 8001bce:	330c      	adds	r3, #12
 8001bd0:	717b      	strb	r3, [r7, #5]
       y -= 1;
 8001bd2:	88fb      	ldrh	r3, [r7, #6]
 8001bd4:	3b01      	subs	r3, #1
 8001bd6:	80fb      	strh	r3, [r7, #6]
    }

    //J is the century
    j = y / 100;
 8001bd8:	88fb      	ldrh	r3, [r7, #6]
 8001bda:	4a25      	ldr	r2, [pc, #148]	; (8001c70 <computeDayOfWeek+0xbc>)
 8001bdc:	fba2 2303 	umull	r2, r3, r2, r3
 8001be0:	095b      	lsrs	r3, r3, #5
 8001be2:	b29b      	uxth	r3, r3
 8001be4:	73fb      	strb	r3, [r7, #15]
    //K the year of the century
    k = y % 100;
 8001be6:	88fb      	ldrh	r3, [r7, #6]
 8001be8:	4a21      	ldr	r2, [pc, #132]	; (8001c70 <computeDayOfWeek+0xbc>)
 8001bea:	fba2 1203 	umull	r1, r2, r2, r3
 8001bee:	0952      	lsrs	r2, r2, #5
 8001bf0:	2164      	movs	r1, #100	; 0x64
 8001bf2:	fb01 f202 	mul.w	r2, r1, r2
 8001bf6:	1a9b      	subs	r3, r3, r2
 8001bf8:	b29b      	uxth	r3, r3
 8001bfa:	73bb      	strb	r3, [r7, #14]

    //Compute H using Zeller's congruence
    h = d + (26 * (m + 1) / 10) + k + (k / 4) + (5 * j) + (j / 4);
 8001bfc:	797b      	ldrb	r3, [r7, #5]
 8001bfe:	3301      	adds	r3, #1
 8001c00:	221a      	movs	r2, #26
 8001c02:	fb02 f303 	mul.w	r3, r2, r3
 8001c06:	4a1b      	ldr	r2, [pc, #108]	; (8001c74 <computeDayOfWeek+0xc0>)
 8001c08:	fb82 1203 	smull	r1, r2, r2, r3
 8001c0c:	1092      	asrs	r2, r2, #2
 8001c0e:	17db      	asrs	r3, r3, #31
 8001c10:	1ad3      	subs	r3, r2, r3
 8001c12:	b2da      	uxtb	r2, r3
 8001c14:	793b      	ldrb	r3, [r7, #4]
 8001c16:	4413      	add	r3, r2
 8001c18:	b2da      	uxtb	r2, r3
 8001c1a:	7bbb      	ldrb	r3, [r7, #14]
 8001c1c:	4413      	add	r3, r2
 8001c1e:	b2da      	uxtb	r2, r3
 8001c20:	7bbb      	ldrb	r3, [r7, #14]
 8001c22:	089b      	lsrs	r3, r3, #2
 8001c24:	b2db      	uxtb	r3, r3
 8001c26:	4413      	add	r3, r2
 8001c28:	b2da      	uxtb	r2, r3
 8001c2a:	7bfb      	ldrb	r3, [r7, #15]
 8001c2c:	4619      	mov	r1, r3
 8001c2e:	0089      	lsls	r1, r1, #2
 8001c30:	440b      	add	r3, r1
 8001c32:	b2db      	uxtb	r3, r3
 8001c34:	4413      	add	r3, r2
 8001c36:	b2da      	uxtb	r2, r3
 8001c38:	7bfb      	ldrb	r3, [r7, #15]
 8001c3a:	089b      	lsrs	r3, r3, #2
 8001c3c:	b2db      	uxtb	r3, r3
 8001c3e:	4413      	add	r3, r2
 8001c40:	737b      	strb	r3, [r7, #13]

    //Return the day of the week
    return ((h + 5) % 7) + 1;
 8001c42:	7b7b      	ldrb	r3, [r7, #13]
 8001c44:	1d5a      	adds	r2, r3, #5
 8001c46:	4b0c      	ldr	r3, [pc, #48]	; (8001c78 <computeDayOfWeek+0xc4>)
 8001c48:	fb83 1302 	smull	r1, r3, r3, r2
 8001c4c:	4413      	add	r3, r2
 8001c4e:	1099      	asrs	r1, r3, #2
 8001c50:	17d3      	asrs	r3, r2, #31
 8001c52:	1ac9      	subs	r1, r1, r3
 8001c54:	460b      	mov	r3, r1
 8001c56:	00db      	lsls	r3, r3, #3
 8001c58:	1a5b      	subs	r3, r3, r1
 8001c5a:	1ad1      	subs	r1, r2, r3
 8001c5c:	b2cb      	uxtb	r3, r1
 8001c5e:	3301      	adds	r3, #1
 8001c60:	b2db      	uxtb	r3, r3
}
 8001c62:	4618      	mov	r0, r3
 8001c64:	3714      	adds	r7, #20
 8001c66:	46bd      	mov	sp, r7
 8001c68:	f85d 7b04 	ldr.w	r7, [sp], #4
 8001c6c:	4770      	bx	lr
 8001c6e:	bf00      	nop
 8001c70:	51eb851f 	.word	0x51eb851f
 8001c74:	66666667 	.word	0x66666667
 8001c78:	92492493 	.word	0x92492493

08001c7c <convertUnixTimeToDate>:
  * @param[in] t Unix timestamp
  * @param[out] date Pointer to a structure representing the date and time
 **/

void convertUnixTimeToDate(unsigned long t, struct DateTime *date)
{
 8001c7c:	b580      	push	{r7, lr}
 8001c7e:	b088      	sub	sp, #32
 8001c80:	af00      	add	r7, sp, #0
 8001c82:	6078      	str	r0, [r7, #4]
 8001c84:	6039      	str	r1, [r7, #0]
    uint32_t d;
    uint32_t e;
    uint32_t f;

    //Negative Unix time values are not supported
    if(t < 1)
 8001c86:	687b      	ldr	r3, [r7, #4]
 8001c88:	2b00      	cmp	r3, #0
 8001c8a:	d101      	bne.n	8001c90 <convertUnixTimeToDate+0x14>
       t = 0;
 8001c8c:	2300      	movs	r3, #0
 8001c8e:	607b      	str	r3, [r7, #4]

    //Clear milliseconds
    date->milliseconds = 0;
 8001c90:	683b      	ldr	r3, [r7, #0]
 8001c92:	2200      	movs	r2, #0
 8001c94:	811a      	strh	r2, [r3, #8]

    //Retrieve hours, minutes and seconds
    date->seconds = t % 60;
 8001c96:	6879      	ldr	r1, [r7, #4]
 8001c98:	4b59      	ldr	r3, [pc, #356]	; (8001e00 <convertUnixTimeToDate+0x184>)
 8001c9a:	fba3 2301 	umull	r2, r3, r3, r1
 8001c9e:	095a      	lsrs	r2, r3, #5
 8001ca0:	4613      	mov	r3, r2
 8001ca2:	011b      	lsls	r3, r3, #4
 8001ca4:	1a9b      	subs	r3, r3, r2
 8001ca6:	009b      	lsls	r3, r3, #2
 8001ca8:	1aca      	subs	r2, r1, r3
 8001caa:	b2d2      	uxtb	r2, r2
 8001cac:	683b      	ldr	r3, [r7, #0]
 8001cae:	71da      	strb	r2, [r3, #7]
    t /= 60;
 8001cb0:	687b      	ldr	r3, [r7, #4]
 8001cb2:	4a53      	ldr	r2, [pc, #332]	; (8001e00 <convertUnixTimeToDate+0x184>)
 8001cb4:	fba2 2303 	umull	r2, r3, r2, r3
 8001cb8:	095b      	lsrs	r3, r3, #5
 8001cba:	607b      	str	r3, [r7, #4]
    date->minutes = t % 60;
 8001cbc:	6879      	ldr	r1, [r7, #4]
 8001cbe:	4b50      	ldr	r3, [pc, #320]	; (8001e00 <convertUnixTimeToDate+0x184>)
 8001cc0:	fba3 2301 	umull	r2, r3, r3, r1
 8001cc4:	095a      	lsrs	r2, r3, #5
 8001cc6:	4613      	mov	r3, r2
 8001cc8:	011b      	lsls	r3, r3, #4
 8001cca:	1a9b      	subs	r3, r3, r2
 8001ccc:	009b      	lsls	r3, r3, #2
 8001cce:	1aca      	subs	r2, r1, r3
 8001cd0:	b2d2      	uxtb	r2, r2
 8001cd2:	683b      	ldr	r3, [r7, #0]
 8001cd4:	719a      	strb	r2, [r3, #6]
    t /= 60;
 8001cd6:	687b      	ldr	r3, [r7, #4]
 8001cd8:	4a49      	ldr	r2, [pc, #292]	; (8001e00 <convertUnixTimeToDate+0x184>)
 8001cda:	fba2 2303 	umull	r2, r3, r2, r3
 8001cde:	095b      	lsrs	r3, r3, #5
 8001ce0:	607b      	str	r3, [r7, #4]
    date->hours = t % 24;
 8001ce2:	6879      	ldr	r1, [r7, #4]
 8001ce4:	4b47      	ldr	r3, [pc, #284]	; (8001e04 <convertUnixTimeToDate+0x188>)
 8001ce6:	fba3 2301 	umull	r2, r3, r3, r1
 8001cea:	091a      	lsrs	r2, r3, #4
 8001cec:	4613      	mov	r3, r2
 8001cee:	005b      	lsls	r3, r3, #1
 8001cf0:	4413      	add	r3, r2
 8001cf2:	00db      	lsls	r3, r3, #3
 8001cf4:	1aca      	subs	r2, r1, r3
 8001cf6:	b2d2      	uxtb	r2, r2
 8001cf8:	683b      	ldr	r3, [r7, #0]
 8001cfa:	715a      	strb	r2, [r3, #5]
    t /= 24;
 8001cfc:	687b      	ldr	r3, [r7, #4]
 8001cfe:	4a41      	ldr	r2, [pc, #260]	; (8001e04 <convertUnixTimeToDate+0x188>)
 8001d00:	fba2 2303 	umull	r2, r3, r2, r3
 8001d04:	091b      	lsrs	r3, r3, #4
 8001d06:	607b      	str	r3, [r7, #4]

    //Convert Unix time to date
    a = (uint32_t) ((4 * t + 102032) / 146097 + 15);
 8001d08:	687b      	ldr	r3, [r7, #4]
 8001d0a:	f503 43c7 	add.w	r3, r3, #25472	; 0x6380
 8001d0e:	3324      	adds	r3, #36	; 0x24
 8001d10:	009b      	lsls	r3, r3, #2
 8001d12:	4a3d      	ldr	r2, [pc, #244]	; (8001e08 <convertUnixTimeToDate+0x18c>)
 8001d14:	fba2 2303 	umull	r2, r3, r2, r3
 8001d18:	0bdb      	lsrs	r3, r3, #15
 8001d1a:	330f      	adds	r3, #15
 8001d1c:	617b      	str	r3, [r7, #20]
    b = (uint32_t) (t + 2442113 + a - (a / 4));
 8001d1e:	687a      	ldr	r2, [r7, #4]
 8001d20:	697b      	ldr	r3, [r7, #20]
 8001d22:	441a      	add	r2, r3
 8001d24:	697b      	ldr	r3, [r7, #20]
 8001d26:	089b      	lsrs	r3, r3, #2
 8001d28:	1ad3      	subs	r3, r2, r3
 8001d2a:	f503 1315 	add.w	r3, r3, #2441216	; 0x254000
 8001d2e:	f203 3381 	addw	r3, r3, #897	; 0x381
 8001d32:	613b      	str	r3, [r7, #16]
    c = (20 * b - 2442) / 7305;
 8001d34:	693a      	ldr	r2, [r7, #16]
 8001d36:	4613      	mov	r3, r2
 8001d38:	009b      	lsls	r3, r3, #2
 8001d3a:	4413      	add	r3, r2
 8001d3c:	009b      	lsls	r3, r3, #2
 8001d3e:	f6a3 138a 	subw	r3, r3, #2442	; 0x98a
 8001d42:	4a32      	ldr	r2, [pc, #200]	; (8001e0c <convertUnixTimeToDate+0x190>)
 8001d44:	fba2 2303 	umull	r2, r3, r2, r3
 8001d48:	0b1b      	lsrs	r3, r3, #12
 8001d4a:	61fb      	str	r3, [r7, #28]
    d = b - 365 * c - (c / 4);
 8001d4c:	69fb      	ldr	r3, [r7, #28]
 8001d4e:	f240 126d 	movw	r2, #365	; 0x16d
 8001d52:	fb02 f303 	mul.w	r3, r2, r3
 8001d56:	693a      	ldr	r2, [r7, #16]
 8001d58:	1ad2      	subs	r2, r2, r3
 8001d5a:	69fb      	ldr	r3, [r7, #28]
 8001d5c:	089b      	lsrs	r3, r3, #2
 8001d5e:	1ad3      	subs	r3, r2, r3
 8001d60:	60fb      	str	r3, [r7, #12]
    e = d * 1000 / 30601;
 8001d62:	68fb      	ldr	r3, [r7, #12]
 8001d64:	f44f 727a 	mov.w	r2, #1000	; 0x3e8
 8001d68:	fb02 f303 	mul.w	r3, r2, r3
 8001d6c:	4a28      	ldr	r2, [pc, #160]	; (8001e10 <convertUnixTimeToDate+0x194>)
 8001d6e:	fba2 2303 	umull	r2, r3, r2, r3
 8001d72:	0b5b      	lsrs	r3, r3, #13
 8001d74:	61bb      	str	r3, [r7, #24]
    f = d - e * 30 - e * 601 / 1000;
 8001d76:	69ba      	ldr	r2, [r7, #24]
 8001d78:	4613      	mov	r3, r2
 8001d7a:	011b      	lsls	r3, r3, #4
 8001d7c:	1a9b      	subs	r3, r3, r2
 8001d7e:	005b      	lsls	r3, r3, #1
 8001d80:	461a      	mov	r2, r3
 8001d82:	68fb      	ldr	r3, [r7, #12]
 8001d84:	1a9a      	subs	r2, r3, r2
 8001d86:	69bb      	ldr	r3, [r7, #24]
 8001d88:	f240 2159 	movw	r1, #601	; 0x259
 8001d8c:	fb01 f303 	mul.w	r3, r1, r3
 8001d90:	4920      	ldr	r1, [pc, #128]	; (8001e14 <convertUnixTimeToDate+0x198>)
 8001d92:	fba1 1303 	umull	r1, r3, r1, r3
 8001d96:	099b      	lsrs	r3, r3, #6
 8001d98:	1ad3      	subs	r3, r2, r3
 8001d9a:	60bb      	str	r3, [r7, #8]

    //January and February are counted as months 13 and 14 of the previous year
    if(e <= 13)
 8001d9c:	69bb      	ldr	r3, [r7, #24]
 8001d9e:	2b0d      	cmp	r3, #13
 8001da0:	d808      	bhi.n	8001db4 <convertUnixTimeToDate+0x138>
    {
       c -= 4716;
 8001da2:	69fb      	ldr	r3, [r7, #28]
 8001da4:	f5a3 5393 	sub.w	r3, r3, #4704	; 0x1260
 8001da8:	3b0c      	subs	r3, #12
 8001daa:	61fb      	str	r3, [r7, #28]
       e -= 1;
 8001dac:	69bb      	ldr	r3, [r7, #24]
 8001dae:	3b01      	subs	r3, #1
 8001db0:	61bb      	str	r3, [r7, #24]
 8001db2:	e007      	b.n	8001dc4 <convertUnixTimeToDate+0x148>
    }
    else
    {
       c -= 4715;
 8001db4:	69fb      	ldr	r3, [r7, #28]
 8001db6:	f5a3 5393 	sub.w	r3, r3, #4704	; 0x1260
 8001dba:	3b0b      	subs	r3, #11
 8001dbc:	61fb      	str	r3, [r7, #28]
       e -= 13;
 8001dbe:	69bb      	ldr	r3, [r7, #24]
 8001dc0:	3b0d      	subs	r3, #13
 8001dc2:	61bb      	str	r3, [r7, #24]
    }

    //Retrieve year, month and day
    date->year = c;
 8001dc4:	69fb      	ldr	r3, [r7, #28]
 8001dc6:	b29a      	uxth	r2, r3
 8001dc8:	683b      	ldr	r3, [r7, #0]
 8001dca:	801a      	strh	r2, [r3, #0]
    date->month = e;
 8001dcc:	69bb      	ldr	r3, [r7, #24]
 8001dce:	b2da      	uxtb	r2, r3
 8001dd0:	683b      	ldr	r3, [r7, #0]
 8001dd2:	709a      	strb	r2, [r3, #2]
    date->day = f;
 8001dd4:	68bb      	ldr	r3, [r7, #8]
 8001dd6:	b2da      	uxtb	r2, r3
 8001dd8:	683b      	ldr	r3, [r7, #0]
 8001dda:	70da      	strb	r2, [r3, #3]

    //Calculate day of week
    date->dayOfWeek = computeDayOfWeek(c, e, f);
 8001ddc:	69fb      	ldr	r3, [r7, #28]
 8001dde:	b29b      	uxth	r3, r3
 8001de0:	69ba      	ldr	r2, [r7, #24]
 8001de2:	b2d1      	uxtb	r1, r2
 8001de4:	68ba      	ldr	r2, [r7, #8]
 8001de6:	b2d2      	uxtb	r2, r2
 8001de8:	4618      	mov	r0, r3
 8001dea:	f7ff fee3 	bl	8001bb4 <computeDayOfWeek>
 8001dee:	4603      	mov	r3, r0
 8001df0:	461a      	mov	r2, r3
 8001df2:	683b      	ldr	r3, [r7, #0]
 8001df4:	711a      	strb	r2, [r3, #4]
}
 8001df6:	bf00      	nop
 8001df8:	3720      	adds	r7, #32
 8001dfa:	46bd      	mov	sp, r7
 8001dfc:	bd80      	pop	{r7, pc}
 8001dfe:	bf00      	nop
 8001e00:	88888889 	.word	0x88888889
 8001e04:	aaaaaaab 	.word	0xaaaaaaab
 8001e08:	396b06bd 	.word	0x396b06bd
 8001e0c:	8f8acfad 	.word	0x8f8acfad
 8001e10:	44883a4b 	.word	0x44883a4b
 8001e14:	10624dd3 	.word	0x10624dd3

08001e18 <MCP23017_init>:

#define MCP23017_ADDRESS_21 0x21
#define I2C_TIMEOUT			10

void MCP23017_init()
{
 8001e18:	b580      	push	{r7, lr}
 8001e1a:	af00      	add	r7, sp, #0
	//SEQOP = 	1 : sequential operation disabled, address pointer does not increment
	//DISSLW = 	0 : slew rate enabled
	//HAEN = 	0 : hardware address pin is always enabled on 23017
	//ODR = 	0 : open drain output
	//INTPOL = 	0 : interrupt active low
	MCP23017_writeRegister(REGISTER_IOCON, 0b00000000);
 8001e1c:	2100      	movs	r1, #0
 8001e1e:	200a      	movs	r0, #10
 8001e20:	f000 f8f0 	bl	8002004 <MCP23017_writeRegister>

	//enable all pull up resistors (will be effective for input pins only)
	MCP23017_writeRegisters(REGISTER_GPPU_A, 0xFF, 0xFF);
 8001e24:	22ff      	movs	r2, #255	; 0xff
 8001e26:	21ff      	movs	r1, #255	; 0xff
 8001e28:	200c      	movs	r0, #12
 8001e2a:	f000 f90b 	bl	8002044 <MCP23017_writeRegisters>
}
 8001e2e:	bf00      	nop
 8001e30:	bd80      	pop	{r7, pc}

08001e32 <MCP23017_portMode>:

void MCP23017_portMode(uint8_t port, uint8_t directions, uint8_t pullups, uint8_t inverted)
{
 8001e32:	b590      	push	{r4, r7, lr}
 8001e34:	b083      	sub	sp, #12
 8001e36:	af00      	add	r7, sp, #0
 8001e38:	4604      	mov	r4, r0
 8001e3a:	4608      	mov	r0, r1
 8001e3c:	4611      	mov	r1, r2
 8001e3e:	461a      	mov	r2, r3
 8001e40:	4623      	mov	r3, r4
 8001e42:	71fb      	strb	r3, [r7, #7]
 8001e44:	4603      	mov	r3, r0
 8001e46:	71bb      	strb	r3, [r7, #6]
 8001e48:	460b      	mov	r3, r1
 8001e4a:	717b      	strb	r3, [r7, #5]
 8001e4c:	4613      	mov	r3, r2
 8001e4e:	713b      	strb	r3, [r7, #4]
	MCP23017_writeRegister(REGISTER_IODIR_A + port, directions);
 8001e50:	79fb      	ldrb	r3, [r7, #7]
 8001e52:	b29b      	uxth	r3, r3
 8001e54:	79ba      	ldrb	r2, [r7, #6]
 8001e56:	4611      	mov	r1, r2
 8001e58:	4618      	mov	r0, r3
 8001e5a:	f000 f8d3 	bl	8002004 <MCP23017_writeRegister>
	MCP23017_writeRegister(REGISTER_GPPU_A + port, pullups);
 8001e5e:	79fb      	ldrb	r3, [r7, #7]
 8001e60:	b29b      	uxth	r3, r3
 8001e62:	330c      	adds	r3, #12
 8001e64:	b29b      	uxth	r3, r3
 8001e66:	797a      	ldrb	r2, [r7, #5]
 8001e68:	4611      	mov	r1, r2
 8001e6a:	4618      	mov	r0, r3
 8001e6c:	f000 f8ca 	bl	8002004 <MCP23017_writeRegister>
	MCP23017_writeRegister(REGISTER_IPOL_A + port, inverted);
 8001e70:	79fb      	ldrb	r3, [r7, #7]
 8001e72:	b29b      	uxth	r3, r3
 8001e74:	3302      	adds	r3, #2
 8001e76:	b29b      	uxth	r3, r3
 8001e78:	793a      	ldrb	r2, [r7, #4]
 8001e7a:	4611      	mov	r1, r2
 8001e7c:	4618      	mov	r0, r3
 8001e7e:	f000 f8c1 	bl	8002004 <MCP23017_writeRegister>
}
 8001e82:	bf00      	nop
 8001e84:	370c      	adds	r7, #12
 8001e86:	46bd      	mov	sp, r7
 8001e88:	bd90      	pop	{r4, r7, pc}

08001e8a <MCP23017_digitalWrite>:
	MCP23017_writeRegister(pullupreg, pull);
	MCP23017_writeRegister(polreg, pol);
}

void MCP23017_digitalWrite(uint8_t pin, uint8_t state)
{
 8001e8a:	b580      	push	{r7, lr}
 8001e8c:	b084      	sub	sp, #16
 8001e8e:	af00      	add	r7, sp, #0
 8001e90:	4603      	mov	r3, r0
 8001e92:	460a      	mov	r2, r1
 8001e94:	71fb      	strb	r3, [r7, #7]
 8001e96:	4613      	mov	r3, r2
 8001e98:	71bb      	strb	r3, [r7, #6]
	uint8_t gpioreg = REGISTER_GPIO_A;
 8001e9a:	2312      	movs	r3, #18
 8001e9c:	73fb      	strb	r3, [r7, #15]
	uint8_t gpio;
	if(pin > 7)
 8001e9e:	79fb      	ldrb	r3, [r7, #7]
 8001ea0:	2b07      	cmp	r3, #7
 8001ea2:	d904      	bls.n	8001eae <MCP23017_digitalWrite+0x24>
	{
		gpioreg = REGISTER_GPIO_B;
 8001ea4:	2313      	movs	r3, #19
 8001ea6:	73fb      	strb	r3, [r7, #15]
		pin -= 8;
 8001ea8:	79fb      	ldrb	r3, [r7, #7]
 8001eaa:	3b08      	subs	r3, #8
 8001eac:	71fb      	strb	r3, [r7, #7]
	}

	gpio = MCP23017_readRegister(gpioreg);
 8001eae:	7bfb      	ldrb	r3, [r7, #15]
 8001eb0:	4618      	mov	r0, r3
 8001eb2:	f000 f8f3 	bl	800209c <MCP23017_readRegister>
 8001eb6:	4603      	mov	r3, r0
 8001eb8:	73bb      	strb	r3, [r7, #14]

	if(state == 1) bitSet(gpio, pin);
 8001eba:	79bb      	ldrb	r3, [r7, #6]
 8001ebc:	2b01      	cmp	r3, #1
 8001ebe:	d10a      	bne.n	8001ed6 <MCP23017_digitalWrite+0x4c>
 8001ec0:	79fb      	ldrb	r3, [r7, #7]
 8001ec2:	2201      	movs	r2, #1
 8001ec4:	fa02 f303 	lsl.w	r3, r2, r3
 8001ec8:	b25a      	sxtb	r2, r3
 8001eca:	f997 300e 	ldrsb.w	r3, [r7, #14]
 8001ece:	4313      	orrs	r3, r2
 8001ed0:	b25b      	sxtb	r3, r3
 8001ed2:	73bb      	strb	r3, [r7, #14]
 8001ed4:	e00b      	b.n	8001eee <MCP23017_digitalWrite+0x64>
	else bitClear(gpio, pin);
 8001ed6:	79fb      	ldrb	r3, [r7, #7]
 8001ed8:	2201      	movs	r2, #1
 8001eda:	fa02 f303 	lsl.w	r3, r2, r3
 8001ede:	b25b      	sxtb	r3, r3
 8001ee0:	43db      	mvns	r3, r3
 8001ee2:	b25a      	sxtb	r2, r3
 8001ee4:	f997 300e 	ldrsb.w	r3, [r7, #14]
 8001ee8:	4013      	ands	r3, r2
 8001eea:	b25b      	sxtb	r3, r3
 8001eec:	73bb      	strb	r3, [r7, #14]

	MCP23017_writeRegister(gpioreg, gpio);
 8001eee:	7bfb      	ldrb	r3, [r7, #15]
 8001ef0:	b29b      	uxth	r3, r3
 8001ef2:	7bba      	ldrb	r2, [r7, #14]
 8001ef4:	4611      	mov	r1, r2
 8001ef6:	4618      	mov	r0, r3
 8001ef8:	f000 f884 	bl	8002004 <MCP23017_writeRegister>
}
 8001efc:	bf00      	nop
 8001efe:	3710      	adds	r7, #16
 8001f00:	46bd      	mov	sp, r7
 8001f02:	bd80      	pop	{r7, pc}

08001f04 <register_Write>:

void register_Write(uint8_t *port,uint8_t pin, uint8_t state)
{
 8001f04:	b480      	push	{r7}
 8001f06:	b085      	sub	sp, #20
 8001f08:	af00      	add	r7, sp, #0
 8001f0a:	6078      	str	r0, [r7, #4]
 8001f0c:	460b      	mov	r3, r1
 8001f0e:	70fb      	strb	r3, [r7, #3]
 8001f10:	4613      	mov	r3, r2
 8001f12:	70bb      	strb	r3, [r7, #2]
	uint8_t data,pinB_selected = 0;
 8001f14:	2300      	movs	r3, #0
 8001f16:	73bb      	strb	r3, [r7, #14]

	if(pin > 7){
 8001f18:	78fb      	ldrb	r3, [r7, #3]
 8001f1a:	2b07      	cmp	r3, #7
 8001f1c:	d908      	bls.n	8001f30 <register_Write+0x2c>
		data = port[1];
 8001f1e:	687b      	ldr	r3, [r7, #4]
 8001f20:	785b      	ldrb	r3, [r3, #1]
 8001f22:	73fb      	strb	r3, [r7, #15]
		pin -= 8;
 8001f24:	78fb      	ldrb	r3, [r7, #3]
 8001f26:	3b08      	subs	r3, #8
 8001f28:	70fb      	strb	r3, [r7, #3]
		pinB_selected = 1;
 8001f2a:	2301      	movs	r3, #1
 8001f2c:	73bb      	strb	r3, [r7, #14]
 8001f2e:	e002      	b.n	8001f36 <register_Write+0x32>
	}
	else
		data = port[0];
 8001f30:	687b      	ldr	r3, [r7, #4]
 8001f32:	781b      	ldrb	r3, [r3, #0]
 8001f34:	73fb      	strb	r3, [r7, #15]

	if(state == 1) bitSet(data, pin);
 8001f36:	78bb      	ldrb	r3, [r7, #2]
 8001f38:	2b01      	cmp	r3, #1
 8001f3a:	d10a      	bne.n	8001f52 <register_Write+0x4e>
 8001f3c:	78fb      	ldrb	r3, [r7, #3]
 8001f3e:	2201      	movs	r2, #1
 8001f40:	fa02 f303 	lsl.w	r3, r2, r3
 8001f44:	b25a      	sxtb	r2, r3
 8001f46:	f997 300f 	ldrsb.w	r3, [r7, #15]
 8001f4a:	4313      	orrs	r3, r2
 8001f4c:	b25b      	sxtb	r3, r3
 8001f4e:	73fb      	strb	r3, [r7, #15]
 8001f50:	e00b      	b.n	8001f6a <register_Write+0x66>
	else bitClear(data, pin);
 8001f52:	78fb      	ldrb	r3, [r7, #3]
 8001f54:	2201      	movs	r2, #1
 8001f56:	fa02 f303 	lsl.w	r3, r2, r3
 8001f5a:	b25b      	sxtb	r3, r3
 8001f5c:	43db      	mvns	r3, r3
 8001f5e:	b25a      	sxtb	r2, r3
 8001f60:	f997 300f 	ldrsb.w	r3, [r7, #15]
 8001f64:	4013      	ands	r3, r2
 8001f66:	b25b      	sxtb	r3, r3
 8001f68:	73fb      	strb	r3, [r7, #15]

	if(pinB_selected == 1)
 8001f6a:	7bbb      	ldrb	r3, [r7, #14]
 8001f6c:	2b01      	cmp	r3, #1
 8001f6e:	d104      	bne.n	8001f7a <register_Write+0x76>
		port[1] = data;
 8001f70:	687b      	ldr	r3, [r7, #4]
 8001f72:	3301      	adds	r3, #1
 8001f74:	7bfa      	ldrb	r2, [r7, #15]
 8001f76:	701a      	strb	r2, [r3, #0]
	else
		port[0] = data;
}
 8001f78:	e002      	b.n	8001f80 <register_Write+0x7c>
		port[0] = data;
 8001f7a:	687b      	ldr	r3, [r7, #4]
 8001f7c:	7bfa      	ldrb	r2, [r7, #15]
 8001f7e:	701a      	strb	r2, [r3, #0]
}
 8001f80:	bf00      	nop
 8001f82:	3714      	adds	r7, #20
 8001f84:	46bd      	mov	sp, r7
 8001f86:	f85d 7b04 	ldr.w	r7, [sp], #4
 8001f8a:	4770      	bx	lr

08001f8c <MCP23017_writePorts>:
void MCP23017_writePort(uint8_t port, uint8_t value)
{
	MCP23017_writeRegister(REGISTER_GPIO_A + port, value);
}

void MCP23017_writePorts(uint8_t *value){
 8001f8c:	b580      	push	{r7, lr}
 8001f8e:	b086      	sub	sp, #24
 8001f90:	af04      	add	r7, sp, #16
 8001f92:	6078      	str	r0, [r7, #4]
	HAL_I2C_Mem_Write(&hi2c1, MCP23017_ADDRESS_21<<1, REGISTER_GPIO_A, 1, value, 2, I2C_TIMEOUT);
 8001f94:	230a      	movs	r3, #10
 8001f96:	9302      	str	r3, [sp, #8]
 8001f98:	2302      	movs	r3, #2
 8001f9a:	9301      	str	r3, [sp, #4]
 8001f9c:	687b      	ldr	r3, [r7, #4]
 8001f9e:	9300      	str	r3, [sp, #0]
 8001fa0:	2301      	movs	r3, #1
 8001fa2:	2212      	movs	r2, #18
 8001fa4:	2142      	movs	r1, #66	; 0x42
 8001fa6:	4803      	ldr	r0, [pc, #12]	; (8001fb4 <MCP23017_writePorts+0x28>)
 8001fa8:	f004 fa76 	bl	8006498 <HAL_I2C_Mem_Write>
}
 8001fac:	bf00      	nop
 8001fae:	3708      	adds	r7, #8
 8001fb0:	46bd      	mov	sp, r7
 8001fb2:	bd80      	pop	{r7, pc}
 8001fb4:	2000075c 	.word	0x2000075c

08001fb8 <MCP23017_readPorts>:

void MCP23017_readPorts(uint8_t *value){
 8001fb8:	b580      	push	{r7, lr}
 8001fba:	b086      	sub	sp, #24
 8001fbc:	af04      	add	r7, sp, #16
 8001fbe:	6078      	str	r0, [r7, #4]
	HAL_I2C_Mem_Read(&hi2c1, MCP23017_ADDRESS_21<<1, REGISTER_GPIO_A, 1, value, 2, I2C_TIMEOUT);
 8001fc0:	230a      	movs	r3, #10
 8001fc2:	9302      	str	r3, [sp, #8]
 8001fc4:	2302      	movs	r3, #2
 8001fc6:	9301      	str	r3, [sp, #4]
 8001fc8:	687b      	ldr	r3, [r7, #4]
 8001fca:	9300      	str	r3, [sp, #0]
 8001fcc:	2301      	movs	r3, #1
 8001fce:	2212      	movs	r2, #18
 8001fd0:	2142      	movs	r1, #66	; 0x42
 8001fd2:	4803      	ldr	r0, [pc, #12]	; (8001fe0 <MCP23017_readPorts+0x28>)
 8001fd4:	f004 fb74 	bl	80066c0 <HAL_I2C_Mem_Read>
}
 8001fd8:	bf00      	nop
 8001fda:	3708      	adds	r7, #8
 8001fdc:	46bd      	mov	sp, r7
 8001fde:	bd80      	pop	{r7, pc}
 8001fe0:	2000075c 	.word	0x2000075c

08001fe4 <MCP23017_readPort>:

uint8_t MCP23017_readPort(uint8_t port)
{
 8001fe4:	b580      	push	{r7, lr}
 8001fe6:	b082      	sub	sp, #8
 8001fe8:	af00      	add	r7, sp, #0
 8001fea:	4603      	mov	r3, r0
 8001fec:	71fb      	strb	r3, [r7, #7]
	return MCP23017_readRegister(REGISTER_GPIO_A + port);
 8001fee:	79fb      	ldrb	r3, [r7, #7]
 8001ff0:	3312      	adds	r3, #18
 8001ff2:	b2db      	uxtb	r3, r3
 8001ff4:	4618      	mov	r0, r3
 8001ff6:	f000 f851 	bl	800209c <MCP23017_readRegister>
 8001ffa:	4603      	mov	r3, r0
}
 8001ffc:	4618      	mov	r0, r3
 8001ffe:	3708      	adds	r7, #8
 8002000:	46bd      	mov	sp, r7
 8002002:	bd80      	pop	{r7, pc}

08002004 <MCP23017_writeRegister>:

	return a | b << 8;
}

void MCP23017_writeRegister(uint16_t reg, uint8_t value)
{
 8002004:	b580      	push	{r7, lr}
 8002006:	b088      	sub	sp, #32
 8002008:	af04      	add	r7, sp, #16
 800200a:	4603      	mov	r3, r0
 800200c:	460a      	mov	r2, r1
 800200e:	80fb      	strh	r3, [r7, #6]
 8002010:	4613      	mov	r3, r2
 8002012:	717b      	strb	r3, [r7, #5]
	uint8_t status;
	uint8_t data[1];
	data[0]=  value;
 8002014:	797b      	ldrb	r3, [r7, #5]
 8002016:	733b      	strb	r3, [r7, #12]
	status = HAL_I2C_Mem_Write(&hi2c1, MCP23017_ADDRESS_21<<1, reg, 1, data, 1, I2C_TIMEOUT);
 8002018:	88fa      	ldrh	r2, [r7, #6]
 800201a:	230a      	movs	r3, #10
 800201c:	9302      	str	r3, [sp, #8]
 800201e:	2301      	movs	r3, #1
 8002020:	9301      	str	r3, [sp, #4]
 8002022:	f107 030c 	add.w	r3, r7, #12
 8002026:	9300      	str	r3, [sp, #0]
 8002028:	2301      	movs	r3, #1
 800202a:	2142      	movs	r1, #66	; 0x42
 800202c:	4804      	ldr	r0, [pc, #16]	; (8002040 <MCP23017_writeRegister+0x3c>)
 800202e:	f004 fa33 	bl	8006498 <HAL_I2C_Mem_Write>
 8002032:	4603      	mov	r3, r0
 8002034:	73fb      	strb	r3, [r7, #15]

}
 8002036:	bf00      	nop
 8002038:	3710      	adds	r7, #16
 800203a:	46bd      	mov	sp, r7
 800203c:	bd80      	pop	{r7, pc}
 800203e:	bf00      	nop
 8002040:	2000075c 	.word	0x2000075c

08002044 <MCP23017_writeRegisters>:

void MCP23017_writeRegisters(uint8_t reg, uint8_t portA, uint8_t portB)
{
 8002044:	b580      	push	{r7, lr}
 8002046:	b086      	sub	sp, #24
 8002048:	af04      	add	r7, sp, #16
 800204a:	4603      	mov	r3, r0
 800204c:	71fb      	strb	r3, [r7, #7]
 800204e:	460b      	mov	r3, r1
 8002050:	71bb      	strb	r3, [r7, #6]
 8002052:	4613      	mov	r3, r2
 8002054:	717b      	strb	r3, [r7, #5]
	HAL_I2C_Mem_Write(&hi2c1, MCP23017_ADDRESS_21<<1, reg, 1, &portA, 1, I2C_TIMEOUT);
 8002056:	79fb      	ldrb	r3, [r7, #7]
 8002058:	b29a      	uxth	r2, r3
 800205a:	230a      	movs	r3, #10
 800205c:	9302      	str	r3, [sp, #8]
 800205e:	2301      	movs	r3, #1
 8002060:	9301      	str	r3, [sp, #4]
 8002062:	1dbb      	adds	r3, r7, #6
 8002064:	9300      	str	r3, [sp, #0]
 8002066:	2301      	movs	r3, #1
 8002068:	2142      	movs	r1, #66	; 0x42
 800206a:	480b      	ldr	r0, [pc, #44]	; (8002098 <MCP23017_writeRegisters+0x54>)
 800206c:	f004 fa14 	bl	8006498 <HAL_I2C_Mem_Write>
	HAL_I2C_Mem_Write(&hi2c1, MCP23017_ADDRESS_21<<1, reg+1, 1, &portB, 1, I2C_TIMEOUT);
 8002070:	79fb      	ldrb	r3, [r7, #7]
 8002072:	b29b      	uxth	r3, r3
 8002074:	3301      	adds	r3, #1
 8002076:	b29a      	uxth	r2, r3
 8002078:	230a      	movs	r3, #10
 800207a:	9302      	str	r3, [sp, #8]
 800207c:	2301      	movs	r3, #1
 800207e:	9301      	str	r3, [sp, #4]
 8002080:	1d7b      	adds	r3, r7, #5
 8002082:	9300      	str	r3, [sp, #0]
 8002084:	2301      	movs	r3, #1
 8002086:	2142      	movs	r1, #66	; 0x42
 8002088:	4803      	ldr	r0, [pc, #12]	; (8002098 <MCP23017_writeRegisters+0x54>)
 800208a:	f004 fa05 	bl	8006498 <HAL_I2C_Mem_Write>
}
 800208e:	bf00      	nop
 8002090:	3708      	adds	r7, #8
 8002092:	46bd      	mov	sp, r7
 8002094:	bd80      	pop	{r7, pc}
 8002096:	bf00      	nop
 8002098:	2000075c 	.word	0x2000075c

0800209c <MCP23017_readRegister>:


uint8_t MCP23017_readRegister(uint8_t reg)
{
 800209c:	b580      	push	{r7, lr}
 800209e:	b088      	sub	sp, #32
 80020a0:	af04      	add	r7, sp, #16
 80020a2:	4603      	mov	r3, r0
 80020a4:	71fb      	strb	r3, [r7, #7]
	uint8_t data;
	HAL_I2C_Mem_Read(&hi2c1, MCP23017_ADDRESS_21<<1, reg, 1, &data, 1, I2C_TIMEOUT);
 80020a6:	79fb      	ldrb	r3, [r7, #7]
 80020a8:	b29a      	uxth	r2, r3
 80020aa:	230a      	movs	r3, #10
 80020ac:	9302      	str	r3, [sp, #8]
 80020ae:	2301      	movs	r3, #1
 80020b0:	9301      	str	r3, [sp, #4]
 80020b2:	f107 030f 	add.w	r3, r7, #15
 80020b6:	9300      	str	r3, [sp, #0]
 80020b8:	2301      	movs	r3, #1
 80020ba:	2142      	movs	r1, #66	; 0x42
 80020bc:	4803      	ldr	r0, [pc, #12]	; (80020cc <MCP23017_readRegister+0x30>)
 80020be:	f004 faff 	bl	80066c0 <HAL_I2C_Mem_Read>

	return data;
 80020c2:	7bfb      	ldrb	r3, [r7, #15]
}
 80020c4:	4618      	mov	r0, r3
 80020c6:	3710      	adds	r7, #16
 80020c8:	46bd      	mov	sp, r7
 80020ca:	bd80      	pop	{r7, pc}
 80020cc:	2000075c 	.word	0x2000075c

080020d0 <MCP23017_interruptMode>:
}

#ifdef _MCP23017_INTERRUPT_SUPPORT_

void MCP23017_interruptMode(uint8_t intMode)
{
 80020d0:	b580      	push	{r7, lr}
 80020d2:	b084      	sub	sp, #16
 80020d4:	af00      	add	r7, sp, #0
 80020d6:	4603      	mov	r3, r0
 80020d8:	71fb      	strb	r3, [r7, #7]
	uint8_t iocon = MCP23017_readRegister(REGISTER_IOCON);
 80020da:	200a      	movs	r0, #10
 80020dc:	f7ff ffde 	bl	800209c <MCP23017_readRegister>
 80020e0:	4603      	mov	r3, r0
 80020e2:	73fb      	strb	r3, [r7, #15]
	if(intMode == Or) iocon |= (uint8_t)Or;
 80020e4:	79fb      	ldrb	r3, [r7, #7]
 80020e6:	2b40      	cmp	r3, #64	; 0x40
 80020e8:	d104      	bne.n	80020f4 <MCP23017_interruptMode+0x24>
 80020ea:	7bfb      	ldrb	r3, [r7, #15]
 80020ec:	f043 0340 	orr.w	r3, r3, #64	; 0x40
 80020f0:	73fb      	strb	r3, [r7, #15]
 80020f2:	e003      	b.n	80020fc <MCP23017_interruptMode+0x2c>
	else iocon &= ~(uint8_t)Or;
 80020f4:	7bfb      	ldrb	r3, [r7, #15]
 80020f6:	f023 0340 	bic.w	r3, r3, #64	; 0x40
 80020fa:	73fb      	strb	r3, [r7, #15]

	MCP23017_writeRegister(REGISTER_IOCON, iocon);
 80020fc:	7bfb      	ldrb	r3, [r7, #15]
 80020fe:	4619      	mov	r1, r3
 8002100:	200a      	movs	r0, #10
 8002102:	f7ff ff7f 	bl	8002004 <MCP23017_writeRegister>
}
 8002106:	bf00      	nop
 8002108:	3710      	adds	r7, #16
 800210a:	46bd      	mov	sp, r7
 800210c:	bd80      	pop	{r7, pc}

0800210e <MCP23017_interrupt_pin>:

void MCP23017_interrupt_pin(uint8_t port, uint8_t pin, uint8_t mode)
{
 800210e:	b580      	push	{r7, lr}
 8002110:	b084      	sub	sp, #16
 8002112:	af00      	add	r7, sp, #0
 8002114:	4603      	mov	r3, r0
 8002116:	71fb      	strb	r3, [r7, #7]
 8002118:	460b      	mov	r3, r1
 800211a:	71bb      	strb	r3, [r7, #6]
 800211c:	4613      	mov	r3, r2
 800211e:	717b      	strb	r3, [r7, #5]
	uint8_t defvalreg = REGISTER_DEFVAL_A + port;
 8002120:	79fb      	ldrb	r3, [r7, #7]
 8002122:	3306      	adds	r3, #6
 8002124:	73fb      	strb	r3, [r7, #15]
	uint8_t intconreg = REGISTER_INTCON_A + port;
 8002126:	79fb      	ldrb	r3, [r7, #7]
 8002128:	3308      	adds	r3, #8
 800212a:	73bb      	strb	r3, [r7, #14]

	//enable interrupt for port
	MCP23017_writeRegister(REGISTER_GPINTEN_A + port, pin);
 800212c:	79fb      	ldrb	r3, [r7, #7]
 800212e:	b29b      	uxth	r3, r3
 8002130:	3304      	adds	r3, #4
 8002132:	b29b      	uxth	r3, r3
 8002134:	79ba      	ldrb	r2, [r7, #6]
 8002136:	4611      	mov	r1, r2
 8002138:	4618      	mov	r0, r3
 800213a:	f7ff ff63 	bl	8002004 <MCP23017_writeRegister>
	switch(mode)
 800213e:	797b      	ldrb	r3, [r7, #5]
 8002140:	2b01      	cmp	r3, #1
 8002142:	d00b      	beq.n	800215c <MCP23017_interrupt_pin+0x4e>
 8002144:	2b02      	cmp	r3, #2
 8002146:	d018      	beq.n	800217a <MCP23017_interrupt_pin+0x6c>
 8002148:	2b00      	cmp	r3, #0
 800214a:	d000      	beq.n	800214e <MCP23017_interrupt_pin+0x40>
		//interrupt rising : compared against defval, 0x00
		MCP23017_writeRegister(intconreg, pin);
		MCP23017_writeRegister(defvalreg, 0x00);
		break;
	}
}
 800214c:	e023      	b.n	8002196 <MCP23017_interrupt_pin+0x88>
		MCP23017_writeRegister(intconreg, 0);
 800214e:	7bbb      	ldrb	r3, [r7, #14]
 8002150:	b29b      	uxth	r3, r3
 8002152:	2100      	movs	r1, #0
 8002154:	4618      	mov	r0, r3
 8002156:	f7ff ff55 	bl	8002004 <MCP23017_writeRegister>
		break;
 800215a:	e01c      	b.n	8002196 <MCP23017_interrupt_pin+0x88>
		MCP23017_writeRegister(intconreg, pin);
 800215c:	7bbb      	ldrb	r3, [r7, #14]
 800215e:	b29b      	uxth	r3, r3
 8002160:	79ba      	ldrb	r2, [r7, #6]
 8002162:	4611      	mov	r1, r2
 8002164:	4618      	mov	r0, r3
 8002166:	f7ff ff4d 	bl	8002004 <MCP23017_writeRegister>
		MCP23017_writeRegister(defvalreg, pin);
 800216a:	7bfb      	ldrb	r3, [r7, #15]
 800216c:	b29b      	uxth	r3, r3
 800216e:	79ba      	ldrb	r2, [r7, #6]
 8002170:	4611      	mov	r1, r2
 8002172:	4618      	mov	r0, r3
 8002174:	f7ff ff46 	bl	8002004 <MCP23017_writeRegister>
		break;
 8002178:	e00d      	b.n	8002196 <MCP23017_interrupt_pin+0x88>
		MCP23017_writeRegister(intconreg, pin);
 800217a:	7bbb      	ldrb	r3, [r7, #14]
 800217c:	b29b      	uxth	r3, r3
 800217e:	79ba      	ldrb	r2, [r7, #6]
 8002180:	4611      	mov	r1, r2
 8002182:	4618      	mov	r0, r3
 8002184:	f7ff ff3e 	bl	8002004 <MCP23017_writeRegister>
		MCP23017_writeRegister(defvalreg, 0x00);
 8002188:	7bfb      	ldrb	r3, [r7, #15]
 800218a:	b29b      	uxth	r3, r3
 800218c:	2100      	movs	r1, #0
 800218e:	4618      	mov	r0, r3
 8002190:	f7ff ff38 	bl	8002004 <MCP23017_writeRegister>
		break;
 8002194:	bf00      	nop
}
 8002196:	bf00      	nop
 8002198:	3710      	adds	r7, #16
 800219a:	46bd      	mov	sp, r7
 800219c:	bd80      	pop	{r7, pc}

0800219e <MCP23017_clearInterrupts_all>:
{
	MCP23017_writeRegister(REGISTER_GPINTEN_A + port, 0x00);
}

void MCP23017_clearInterrupts_all()
{
 800219e:	b580      	push	{r7, lr}
 80021a0:	b082      	sub	sp, #8
 80021a2:	af00      	add	r7, sp, #0
	uint8_t a, b;
	MCP23017_clearInterrupts(a, b);
 80021a4:	79fb      	ldrb	r3, [r7, #7]
 80021a6:	461a      	mov	r2, r3
 80021a8:	79bb      	ldrb	r3, [r7, #6]
 80021aa:	4619      	mov	r1, r3
 80021ac:	4610      	mov	r0, r2
 80021ae:	f000 f804 	bl	80021ba <MCP23017_clearInterrupts>
}
 80021b2:	bf00      	nop
 80021b4:	3708      	adds	r7, #8
 80021b6:	46bd      	mov	sp, r7
 80021b8:	bd80      	pop	{r7, pc}

080021ba <MCP23017_clearInterrupts>:

void MCP23017_clearInterrupts(uint8_t *portA, uint8_t *portB)
{
 80021ba:	b580      	push	{r7, lr}
 80021bc:	b082      	sub	sp, #8
 80021be:	af00      	add	r7, sp, #0
 80021c0:	6078      	str	r0, [r7, #4]
 80021c2:	6039      	str	r1, [r7, #0]
	*portA = MCP23017_readRegister(REGISTER_INTCAP_A);
 80021c4:	2010      	movs	r0, #16
 80021c6:	f7ff ff69 	bl	800209c <MCP23017_readRegister>
 80021ca:	4603      	mov	r3, r0
 80021cc:	461a      	mov	r2, r3
 80021ce:	687b      	ldr	r3, [r7, #4]
 80021d0:	701a      	strb	r2, [r3, #0]
	*portB = MCP23017_readRegister(REGISTER_INTCAP_B);
 80021d2:	2011      	movs	r0, #17
 80021d4:	f7ff ff62 	bl	800209c <MCP23017_readRegister>
 80021d8:	4603      	mov	r3, r0
 80021da:	461a      	mov	r2, r3
 80021dc:	683b      	ldr	r3, [r7, #0]
 80021de:	701a      	strb	r2, [r3, #0]
}
 80021e0:	bf00      	nop
 80021e2:	3708      	adds	r7, #8
 80021e4:	46bd      	mov	sp, r7
 80021e6:	bd80      	pop	{r7, pc}

080021e8 <u8x8_stm32_gpio_and_delay>:
u8g2_t u8g2;

uint8_t u8x8_stm32_gpio_and_delay(U8X8_UNUSED u8x8_t *u8x8,
    U8X8_UNUSED uint8_t msg, U8X8_UNUSED uint8_t arg_int,
    U8X8_UNUSED void *arg_ptr)
{
 80021e8:	b580      	push	{r7, lr}
 80021ea:	b084      	sub	sp, #16
 80021ec:	af00      	add	r7, sp, #0
 80021ee:	60f8      	str	r0, [r7, #12]
 80021f0:	607b      	str	r3, [r7, #4]
 80021f2:	460b      	mov	r3, r1
 80021f4:	72fb      	strb	r3, [r7, #11]
 80021f6:	4613      	mov	r3, r2
 80021f8:	72bb      	strb	r3, [r7, #10]
  switch (msg)
 80021fa:	7afb      	ldrb	r3, [r7, #11]
 80021fc:	3b28      	subs	r3, #40	; 0x28
 80021fe:	2b23      	cmp	r3, #35	; 0x23
 8002200:	d856      	bhi.n	80022b0 <u8x8_stm32_gpio_and_delay+0xc8>
 8002202:	a201      	add	r2, pc, #4	; (adr r2, 8002208 <u8x8_stm32_gpio_and_delay+0x20>)
 8002204:	f852 f023 	ldr.w	pc, [r2, r3, lsl #2]
 8002208:	080022b1 	.word	0x080022b1
 800220c:	080022b1 	.word	0x080022b1
 8002210:	080022b1 	.word	0x080022b1
 8002214:	080022b1 	.word	0x080022b1
 8002218:	080022b1 	.word	0x080022b1
 800221c:	080022b1 	.word	0x080022b1
 8002220:	080022b1 	.word	0x080022b1
 8002224:	080022b1 	.word	0x080022b1
 8002228:	080022b1 	.word	0x080022b1
 800222c:	080022b1 	.word	0x080022b1
 8002230:	080022b1 	.word	0x080022b1
 8002234:	080022b1 	.word	0x080022b1
 8002238:	080022b1 	.word	0x080022b1
 800223c:	080022b1 	.word	0x080022b1
 8002240:	080022b1 	.word	0x080022b1
 8002244:	080022b1 	.word	0x080022b1
 8002248:	080022b1 	.word	0x080022b1
 800224c:	080022b1 	.word	0x080022b1
 8002250:	080022b1 	.word	0x080022b1
 8002254:	080022b1 	.word	0x080022b1
 8002258:	080022b1 	.word	0x080022b1
 800225c:	080022b1 	.word	0x080022b1
 8002260:	080022b1 	.word	0x080022b1
 8002264:	080022b1 	.word	0x080022b1
 8002268:	080022b1 	.word	0x080022b1
 800226c:	080022b1 	.word	0x080022b1
 8002270:	080022b1 	.word	0x080022b1
 8002274:	080022b1 	.word	0x080022b1
 8002278:	080022b1 	.word	0x080022b1
 800227c:	080022b1 	.word	0x080022b1
 8002280:	080022b1 	.word	0x080022b1
 8002284:	080022b1 	.word	0x080022b1
 8002288:	080022b1 	.word	0x080022b1
 800228c:	080022b1 	.word	0x080022b1
 8002290:	08002299 	.word	0x08002299
 8002294:	080022a5 	.word	0x080022a5
  case U8X8_MSG_DELAY_MILLI:
//    HAL_Delay(arg_int);
    break;
  case U8X8_MSG_GPIO_DC:
	  //A0 pin
	  MCP23017_digitalWrite(PIN_A0,arg_int);
 8002298:	7abb      	ldrb	r3, [r7, #10]
 800229a:	4619      	mov	r1, r3
 800229c:	2001      	movs	r0, #1
 800229e:	f7ff fdf4 	bl	8001e8a <MCP23017_digitalWrite>
    break;
 80022a2:	e005      	b.n	80022b0 <u8x8_stm32_gpio_and_delay+0xc8>
  case U8X8_MSG_GPIO_RESET:
	  MCP23017_digitalWrite(PIN_RST,arg_int);
 80022a4:	7abb      	ldrb	r3, [r7, #10]
 80022a6:	4619      	mov	r1, r3
 80022a8:	2000      	movs	r0, #0
 80022aa:	f7ff fdee 	bl	8001e8a <MCP23017_digitalWrite>
	break;
 80022ae:	bf00      	nop
  }
  return 1;
 80022b0:	2301      	movs	r3, #1
}
 80022b2:	4618      	mov	r0, r3
 80022b4:	3710      	adds	r7, #16
 80022b6:	46bd      	mov	sp, r7
 80022b8:	bd80      	pop	{r7, pc}
 80022ba:	bf00      	nop

080022bc <cmd_lcd>:


uint8_t io_exp_state[2];
void cmd_lcd(uint8_t b)
{
 80022bc:	b580      	push	{r7, lr}
 80022be:	b084      	sub	sp, #16
 80022c0:	af00      	add	r7, sp, #0
 80022c2:	4603      	mov	r3, r0
 80022c4:	71fb      	strb	r3, [r7, #7]
	uint8_t i;

    MCP23017_readPorts(io_exp_state);
 80022c6:	4851      	ldr	r0, [pc, #324]	; (800240c <cmd_lcd+0x150>)
 80022c8:	f7ff fe76 	bl	8001fb8 <MCP23017_readPorts>

    register_Write(io_exp_state,PIN_A0,1);
 80022cc:	2201      	movs	r2, #1
 80022ce:	2101      	movs	r1, #1
 80022d0:	484e      	ldr	r0, [pc, #312]	; (800240c <cmd_lcd+0x150>)
 80022d2:	f7ff fe17 	bl	8001f04 <register_Write>
    register_Write(io_exp_state,PIN_RW,1);
 80022d6:	2201      	movs	r2, #1
 80022d8:	2102      	movs	r1, #2
 80022da:	484c      	ldr	r0, [pc, #304]	; (800240c <cmd_lcd+0x150>)
 80022dc:	f7ff fe12 	bl	8001f04 <register_Write>
    register_Write(io_exp_state,PIN_E,1);
 80022e0:	2201      	movs	r2, #1
 80022e2:	2103      	movs	r1, #3
 80022e4:	4849      	ldr	r0, [pc, #292]	; (800240c <cmd_lcd+0x150>)
 80022e6:	f7ff fe0d 	bl	8001f04 <register_Write>
    MCP23017_writePorts(io_exp_state);
 80022ea:	4848      	ldr	r0, [pc, #288]	; (800240c <cmd_lcd+0x150>)
 80022ec:	f7ff fe4e 	bl	8001f8c <MCP23017_writePorts>

    for( i = U8X8_MSG_GPIO_D0; i <= U8X8_MSG_GPIO_D7; i++ )
 80022f0:	2340      	movs	r3, #64	; 0x40
 80022f2:	73fb      	strb	r3, [r7, #15]
 80022f4:	e06d      	b.n	80023d2 <cmd_lcd+0x116>
	{
	  switch(i){
 80022f6:	7bfb      	ldrb	r3, [r7, #15]
 80022f8:	3b40      	subs	r3, #64	; 0x40
 80022fa:	2b07      	cmp	r3, #7
 80022fc:	d862      	bhi.n	80023c4 <cmd_lcd+0x108>
 80022fe:	a201      	add	r2, pc, #4	; (adr r2, 8002304 <cmd_lcd+0x48>)
 8002300:	f852 f023 	ldr.w	pc, [r2, r3, lsl #2]
 8002304:	08002325 	.word	0x08002325
 8002308:	08002339 	.word	0x08002339
 800230c:	0800234d 	.word	0x0800234d
 8002310:	08002361 	.word	0x08002361
 8002314:	08002375 	.word	0x08002375
 8002318:	08002389 	.word	0x08002389
 800231c:	0800239d 	.word	0x0800239d
 8002320:	080023b1 	.word	0x080023b1
	  case U8X8_MSG_GPIO_D0:
		  register_Write(io_exp_state,PIN_A4, b&1);
 8002324:	79fb      	ldrb	r3, [r7, #7]
 8002326:	f003 0301 	and.w	r3, r3, #1
 800232a:	b2db      	uxtb	r3, r3
 800232c:	461a      	mov	r2, r3
 800232e:	2104      	movs	r1, #4
 8002330:	4836      	ldr	r0, [pc, #216]	; (800240c <cmd_lcd+0x150>)
 8002332:	f7ff fde7 	bl	8001f04 <register_Write>
		  break;
 8002336:	e046      	b.n	80023c6 <cmd_lcd+0x10a>
	  case U8X8_MSG_GPIO_D1:
		  register_Write(io_exp_state,PIN_A5, b&1);
 8002338:	79fb      	ldrb	r3, [r7, #7]
 800233a:	f003 0301 	and.w	r3, r3, #1
 800233e:	b2db      	uxtb	r3, r3
 8002340:	461a      	mov	r2, r3
 8002342:	2105      	movs	r1, #5
 8002344:	4831      	ldr	r0, [pc, #196]	; (800240c <cmd_lcd+0x150>)
 8002346:	f7ff fddd 	bl	8001f04 <register_Write>
		  break;
 800234a:	e03c      	b.n	80023c6 <cmd_lcd+0x10a>
	  case U8X8_MSG_GPIO_D2:
		  register_Write(io_exp_state,PIN_A6, b&1);
 800234c:	79fb      	ldrb	r3, [r7, #7]
 800234e:	f003 0301 	and.w	r3, r3, #1
 8002352:	b2db      	uxtb	r3, r3
 8002354:	461a      	mov	r2, r3
 8002356:	2106      	movs	r1, #6
 8002358:	482c      	ldr	r0, [pc, #176]	; (800240c <cmd_lcd+0x150>)
 800235a:	f7ff fdd3 	bl	8001f04 <register_Write>
		  break;
 800235e:	e032      	b.n	80023c6 <cmd_lcd+0x10a>
	  case U8X8_MSG_GPIO_D3:
		  register_Write(io_exp_state,PIN_A7, b&1);
 8002360:	79fb      	ldrb	r3, [r7, #7]
 8002362:	f003 0301 	and.w	r3, r3, #1
 8002366:	b2db      	uxtb	r3, r3
 8002368:	461a      	mov	r2, r3
 800236a:	2107      	movs	r1, #7
 800236c:	4827      	ldr	r0, [pc, #156]	; (800240c <cmd_lcd+0x150>)
 800236e:	f7ff fdc9 	bl	8001f04 <register_Write>
		  break;
 8002372:	e028      	b.n	80023c6 <cmd_lcd+0x10a>
	  case U8X8_MSG_GPIO_D4:
		  register_Write(io_exp_state,PIN_B7, b&1);
 8002374:	79fb      	ldrb	r3, [r7, #7]
 8002376:	f003 0301 	and.w	r3, r3, #1
 800237a:	b2db      	uxtb	r3, r3
 800237c:	461a      	mov	r2, r3
 800237e:	210f      	movs	r1, #15
 8002380:	4822      	ldr	r0, [pc, #136]	; (800240c <cmd_lcd+0x150>)
 8002382:	f7ff fdbf 	bl	8001f04 <register_Write>
		  break;
 8002386:	e01e      	b.n	80023c6 <cmd_lcd+0x10a>
	  case U8X8_MSG_GPIO_D5:
		  register_Write(io_exp_state,PIN_B6, b&1);
 8002388:	79fb      	ldrb	r3, [r7, #7]
 800238a:	f003 0301 	and.w	r3, r3, #1
 800238e:	b2db      	uxtb	r3, r3
 8002390:	461a      	mov	r2, r3
 8002392:	210e      	movs	r1, #14
 8002394:	481d      	ldr	r0, [pc, #116]	; (800240c <cmd_lcd+0x150>)
 8002396:	f7ff fdb5 	bl	8001f04 <register_Write>
		  break;
 800239a:	e014      	b.n	80023c6 <cmd_lcd+0x10a>
	  case U8X8_MSG_GPIO_D6:
		  register_Write(io_exp_state,PIN_B5, b&1);
 800239c:	79fb      	ldrb	r3, [r7, #7]
 800239e:	f003 0301 	and.w	r3, r3, #1
 80023a2:	b2db      	uxtb	r3, r3
 80023a4:	461a      	mov	r2, r3
 80023a6:	210d      	movs	r1, #13
 80023a8:	4818      	ldr	r0, [pc, #96]	; (800240c <cmd_lcd+0x150>)
 80023aa:	f7ff fdab 	bl	8001f04 <register_Write>
		  break;
 80023ae:	e00a      	b.n	80023c6 <cmd_lcd+0x10a>
	  case U8X8_MSG_GPIO_D7:
		  register_Write(io_exp_state,PIN_B4, b&1);
 80023b0:	79fb      	ldrb	r3, [r7, #7]
 80023b2:	f003 0301 	and.w	r3, r3, #1
 80023b6:	b2db      	uxtb	r3, r3
 80023b8:	461a      	mov	r2, r3
 80023ba:	210c      	movs	r1, #12
 80023bc:	4813      	ldr	r0, [pc, #76]	; (800240c <cmd_lcd+0x150>)
 80023be:	f7ff fda1 	bl	8001f04 <register_Write>
		  break;
 80023c2:	e000      	b.n	80023c6 <cmd_lcd+0x10a>
	  default:
		  break;
 80023c4:	bf00      	nop
	  }
	  b >>= 1;
 80023c6:	79fb      	ldrb	r3, [r7, #7]
 80023c8:	085b      	lsrs	r3, r3, #1
 80023ca:	71fb      	strb	r3, [r7, #7]
    for( i = U8X8_MSG_GPIO_D0; i <= U8X8_MSG_GPIO_D7; i++ )
 80023cc:	7bfb      	ldrb	r3, [r7, #15]
 80023ce:	3301      	adds	r3, #1
 80023d0:	73fb      	strb	r3, [r7, #15]
 80023d2:	7bfb      	ldrb	r3, [r7, #15]
 80023d4:	2b47      	cmp	r3, #71	; 0x47
 80023d6:	d98e      	bls.n	80022f6 <cmd_lcd+0x3a>
	}

    register_Write(io_exp_state,PIN_A0, 0);
 80023d8:	2200      	movs	r2, #0
 80023da:	2101      	movs	r1, #1
 80023dc:	480b      	ldr	r0, [pc, #44]	; (800240c <cmd_lcd+0x150>)
 80023de:	f7ff fd91 	bl	8001f04 <register_Write>
    register_Write(io_exp_state,PIN_RW, 0);
 80023e2:	2200      	movs	r2, #0
 80023e4:	2102      	movs	r1, #2
 80023e6:	4809      	ldr	r0, [pc, #36]	; (800240c <cmd_lcd+0x150>)
 80023e8:	f7ff fd8c 	bl	8001f04 <register_Write>

    register_Write(io_exp_state,PIN_E,1);
 80023ec:	2201      	movs	r2, #1
 80023ee:	2103      	movs	r1, #3
 80023f0:	4806      	ldr	r0, [pc, #24]	; (800240c <cmd_lcd+0x150>)
 80023f2:	f7ff fd87 	bl	8001f04 <register_Write>
    MCP23017_writePorts(io_exp_state);
 80023f6:	4805      	ldr	r0, [pc, #20]	; (800240c <cmd_lcd+0x150>)
 80023f8:	f7ff fdc8 	bl	8001f8c <MCP23017_writePorts>
	MCP23017_digitalWrite(PIN_E,0);
 80023fc:	2100      	movs	r1, #0
 80023fe:	2003      	movs	r0, #3
 8002400:	f7ff fd43 	bl	8001e8a <MCP23017_digitalWrite>
}
 8002404:	bf00      	nop
 8002406:	3710      	adds	r7, #16
 8002408:	46bd      	mov	sp, r7
 800240a:	bd80      	pop	{r7, pc}
 800240c:	20001c54 	.word	0x20001c54

08002410 <u8x8_byte_8bit_6800mode>:

uint8_t u8x8_byte_8bit_6800mode(u8x8_t *u8x8, uint8_t msg, uint8_t arg_int, void *arg_ptr)
{
 8002410:	b580      	push	{r7, lr}
 8002412:	b088      	sub	sp, #32
 8002414:	af00      	add	r7, sp, #0
 8002416:	60f8      	str	r0, [r7, #12]
 8002418:	607b      	str	r3, [r7, #4]
 800241a:	460b      	mov	r3, r1
 800241c:	72fb      	strb	r3, [r7, #11]
 800241e:	4613      	mov	r3, r2
 8002420:	72bb      	strb	r3, [r7, #10]
  uint8_t i, b;
  uint8_t *data;

  switch(msg)
 8002422:	7afb      	ldrb	r3, [r7, #11]
 8002424:	3b14      	subs	r3, #20
 8002426:	2b0c      	cmp	r3, #12
 8002428:	f200 80c0 	bhi.w	80025ac <u8x8_byte_8bit_6800mode+0x19c>
 800242c:	a201      	add	r2, pc, #4	; (adr r2, 8002434 <u8x8_byte_8bit_6800mode+0x24>)
 800242e:	f852 f023 	ldr.w	pc, [r2, r3, lsl #2]
 8002432:	bf00      	nop
 8002434:	08002597 	.word	0x08002597
 8002438:	080025ad 	.word	0x080025ad
 800243c:	080025ad 	.word	0x080025ad
 8002440:	08002469 	.word	0x08002469
 8002444:	080025b1 	.word	0x080025b1
 8002448:	080025b1 	.word	0x080025b1
 800244c:	080025ad 	.word	0x080025ad
 8002450:	080025ad 	.word	0x080025ad
 8002454:	080025ad 	.word	0x080025ad
 8002458:	080025ad 	.word	0x080025ad
 800245c:	080025ad 	.word	0x080025ad
 8002460:	080025ad 	.word	0x080025ad
 8002464:	080025a1 	.word	0x080025a1
  {
    case U8X8_MSG_BYTE_SEND:
      data = (uint8_t *)arg_ptr;
 8002468:	687b      	ldr	r3, [r7, #4]
 800246a:	61bb      	str	r3, [r7, #24]

      MCP23017_readPorts(io_exp_state);
 800246c:	4853      	ldr	r0, [pc, #332]	; (80025bc <u8x8_byte_8bit_6800mode+0x1ac>)
 800246e:	f7ff fda3 	bl	8001fb8 <MCP23017_readPorts>

      while( arg_int > 0 )
 8002472:	e08b      	b.n	800258c <u8x8_byte_8bit_6800mode+0x17c>
      {
		b = *data;
 8002474:	69bb      	ldr	r3, [r7, #24]
 8002476:	781b      	ldrb	r3, [r3, #0]
 8002478:	77bb      	strb	r3, [r7, #30]
		data++;
 800247a:	69bb      	ldr	r3, [r7, #24]
 800247c:	3301      	adds	r3, #1
 800247e:	61bb      	str	r3, [r7, #24]
		arg_int--;
 8002480:	7abb      	ldrb	r3, [r7, #10]
 8002482:	3b01      	subs	r3, #1
 8002484:	72bb      	strb	r3, [r7, #10]

		int hitung=0;
 8002486:	2300      	movs	r3, #0
 8002488:	617b      	str	r3, [r7, #20]
		for( i = U8X8_MSG_GPIO_D0; i <= U8X8_MSG_GPIO_D7; i++ )
 800248a:	2340      	movs	r3, #64	; 0x40
 800248c:	77fb      	strb	r3, [r7, #31]
 800248e:	e06e      	b.n	800256e <u8x8_byte_8bit_6800mode+0x15e>
		{
		  switch(i){
 8002490:	7ffb      	ldrb	r3, [r7, #31]
 8002492:	3b40      	subs	r3, #64	; 0x40
 8002494:	2b07      	cmp	r3, #7
 8002496:	d863      	bhi.n	8002560 <u8x8_byte_8bit_6800mode+0x150>
 8002498:	a201      	add	r2, pc, #4	; (adr r2, 80024a0 <u8x8_byte_8bit_6800mode+0x90>)
 800249a:	f852 f023 	ldr.w	pc, [r2, r3, lsl #2]
 800249e:	bf00      	nop
 80024a0:	080024c1 	.word	0x080024c1
 80024a4:	080024d5 	.word	0x080024d5
 80024a8:	080024e9 	.word	0x080024e9
 80024ac:	080024fd 	.word	0x080024fd
 80024b0:	08002511 	.word	0x08002511
 80024b4:	08002525 	.word	0x08002525
 80024b8:	08002539 	.word	0x08002539
 80024bc:	0800254d 	.word	0x0800254d
		  case U8X8_MSG_GPIO_D0:
			  register_Write(io_exp_state,PIN_A4, b&1);
 80024c0:	7fbb      	ldrb	r3, [r7, #30]
 80024c2:	f003 0301 	and.w	r3, r3, #1
 80024c6:	b2db      	uxtb	r3, r3
 80024c8:	461a      	mov	r2, r3
 80024ca:	2104      	movs	r1, #4
 80024cc:	483b      	ldr	r0, [pc, #236]	; (80025bc <u8x8_byte_8bit_6800mode+0x1ac>)
 80024ce:	f7ff fd19 	bl	8001f04 <register_Write>
			  break;
 80024d2:	e046      	b.n	8002562 <u8x8_byte_8bit_6800mode+0x152>
		  case U8X8_MSG_GPIO_D1:
			  register_Write(io_exp_state,PIN_A5, b&1);
 80024d4:	7fbb      	ldrb	r3, [r7, #30]
 80024d6:	f003 0301 	and.w	r3, r3, #1
 80024da:	b2db      	uxtb	r3, r3
 80024dc:	461a      	mov	r2, r3
 80024de:	2105      	movs	r1, #5
 80024e0:	4836      	ldr	r0, [pc, #216]	; (80025bc <u8x8_byte_8bit_6800mode+0x1ac>)
 80024e2:	f7ff fd0f 	bl	8001f04 <register_Write>
			  break;
 80024e6:	e03c      	b.n	8002562 <u8x8_byte_8bit_6800mode+0x152>
		  case U8X8_MSG_GPIO_D2:
			  register_Write(io_exp_state,PIN_A6, b&1);
 80024e8:	7fbb      	ldrb	r3, [r7, #30]
 80024ea:	f003 0301 	and.w	r3, r3, #1
 80024ee:	b2db      	uxtb	r3, r3
 80024f0:	461a      	mov	r2, r3
 80024f2:	2106      	movs	r1, #6
 80024f4:	4831      	ldr	r0, [pc, #196]	; (80025bc <u8x8_byte_8bit_6800mode+0x1ac>)
 80024f6:	f7ff fd05 	bl	8001f04 <register_Write>
			  break;
 80024fa:	e032      	b.n	8002562 <u8x8_byte_8bit_6800mode+0x152>
		  case U8X8_MSG_GPIO_D3:
			  register_Write(io_exp_state,PIN_A7, b&1);
 80024fc:	7fbb      	ldrb	r3, [r7, #30]
 80024fe:	f003 0301 	and.w	r3, r3, #1
 8002502:	b2db      	uxtb	r3, r3
 8002504:	461a      	mov	r2, r3
 8002506:	2107      	movs	r1, #7
 8002508:	482c      	ldr	r0, [pc, #176]	; (80025bc <u8x8_byte_8bit_6800mode+0x1ac>)
 800250a:	f7ff fcfb 	bl	8001f04 <register_Write>
			  break;
 800250e:	e028      	b.n	8002562 <u8x8_byte_8bit_6800mode+0x152>
		  case U8X8_MSG_GPIO_D4:
			  register_Write(io_exp_state,PIN_B7, b&1);
 8002510:	7fbb      	ldrb	r3, [r7, #30]
 8002512:	f003 0301 	and.w	r3, r3, #1
 8002516:	b2db      	uxtb	r3, r3
 8002518:	461a      	mov	r2, r3
 800251a:	210f      	movs	r1, #15
 800251c:	4827      	ldr	r0, [pc, #156]	; (80025bc <u8x8_byte_8bit_6800mode+0x1ac>)
 800251e:	f7ff fcf1 	bl	8001f04 <register_Write>
			  break;
 8002522:	e01e      	b.n	8002562 <u8x8_byte_8bit_6800mode+0x152>
		  case U8X8_MSG_GPIO_D5:
			  register_Write(io_exp_state,PIN_B6, b&1);
 8002524:	7fbb      	ldrb	r3, [r7, #30]
 8002526:	f003 0301 	and.w	r3, r3, #1
 800252a:	b2db      	uxtb	r3, r3
 800252c:	461a      	mov	r2, r3
 800252e:	210e      	movs	r1, #14
 8002530:	4822      	ldr	r0, [pc, #136]	; (80025bc <u8x8_byte_8bit_6800mode+0x1ac>)
 8002532:	f7ff fce7 	bl	8001f04 <register_Write>
			  break;
 8002536:	e014      	b.n	8002562 <u8x8_byte_8bit_6800mode+0x152>
		  case U8X8_MSG_GPIO_D6:
			  register_Write(io_exp_state,PIN_B5, b&1);
 8002538:	7fbb      	ldrb	r3, [r7, #30]
 800253a:	f003 0301 	and.w	r3, r3, #1
 800253e:	b2db      	uxtb	r3, r3
 8002540:	461a      	mov	r2, r3
 8002542:	210d      	movs	r1, #13
 8002544:	481d      	ldr	r0, [pc, #116]	; (80025bc <u8x8_byte_8bit_6800mode+0x1ac>)
 8002546:	f7ff fcdd 	bl	8001f04 <register_Write>
			  break;
 800254a:	e00a      	b.n	8002562 <u8x8_byte_8bit_6800mode+0x152>
		  case U8X8_MSG_GPIO_D7:
			  register_Write(io_exp_state,PIN_B4, b&1);
 800254c:	7fbb      	ldrb	r3, [r7, #30]
 800254e:	f003 0301 	and.w	r3, r3, #1
 8002552:	b2db      	uxtb	r3, r3
 8002554:	461a      	mov	r2, r3
 8002556:	210c      	movs	r1, #12
 8002558:	4818      	ldr	r0, [pc, #96]	; (80025bc <u8x8_byte_8bit_6800mode+0x1ac>)
 800255a:	f7ff fcd3 	bl	8001f04 <register_Write>
			  break;
 800255e:	e000      	b.n	8002562 <u8x8_byte_8bit_6800mode+0x152>
		  default:
			  break;
 8002560:	bf00      	nop
		  }
		  b >>= 1;
 8002562:	7fbb      	ldrb	r3, [r7, #30]
 8002564:	085b      	lsrs	r3, r3, #1
 8002566:	77bb      	strb	r3, [r7, #30]
		for( i = U8X8_MSG_GPIO_D0; i <= U8X8_MSG_GPIO_D7; i++ )
 8002568:	7ffb      	ldrb	r3, [r7, #31]
 800256a:	3301      	adds	r3, #1
 800256c:	77fb      	strb	r3, [r7, #31]
 800256e:	7ffb      	ldrb	r3, [r7, #31]
 8002570:	2b47      	cmp	r3, #71	; 0x47
 8002572:	d98d      	bls.n	8002490 <u8x8_byte_8bit_6800mode+0x80>
		}

	    register_Write(io_exp_state,PIN_E,1);
 8002574:	2201      	movs	r2, #1
 8002576:	2103      	movs	r1, #3
 8002578:	4810      	ldr	r0, [pc, #64]	; (80025bc <u8x8_byte_8bit_6800mode+0x1ac>)
 800257a:	f7ff fcc3 	bl	8001f04 <register_Write>
        MCP23017_writePorts(io_exp_state);
 800257e:	480f      	ldr	r0, [pc, #60]	; (80025bc <u8x8_byte_8bit_6800mode+0x1ac>)
 8002580:	f7ff fd04 	bl	8001f8c <MCP23017_writePorts>
		MCP23017_digitalWrite(PIN_E,0);
 8002584:	2100      	movs	r1, #0
 8002586:	2003      	movs	r0, #3
 8002588:	f7ff fc7f 	bl	8001e8a <MCP23017_digitalWrite>
      while( arg_int > 0 )
 800258c:	7abb      	ldrb	r3, [r7, #10]
 800258e:	2b00      	cmp	r3, #0
 8002590:	f47f af70 	bne.w	8002474 <u8x8_byte_8bit_6800mode+0x64>
      }
      break;
 8002594:	e00d      	b.n	80025b2 <u8x8_byte_8bit_6800mode+0x1a2>

    case U8X8_MSG_BYTE_INIT:
    	/* disable chipselect */
    	// E
    	MCP23017_digitalWrite(PIN_E,0);
 8002596:	2100      	movs	r1, #0
 8002598:	2003      	movs	r0, #3
 800259a:	f7ff fc76 	bl	8001e8a <MCP23017_digitalWrite>
      break;
 800259e:	e008      	b.n	80025b2 <u8x8_byte_8bit_6800mode+0x1a2>
    case U8X8_MSG_BYTE_SET_DC:
		MCP23017_digitalWrite(PIN_A0,arg_int);
 80025a0:	7abb      	ldrb	r3, [r7, #10]
 80025a2:	4619      	mov	r1, r3
 80025a4:	2001      	movs	r0, #1
 80025a6:	f7ff fc70 	bl	8001e8a <MCP23017_digitalWrite>
      break;
 80025aa:	e002      	b.n	80025b2 <u8x8_byte_8bit_6800mode+0x1a2>
      break;
    case U8X8_MSG_BYTE_END_TRANSFER:

    	break;
    default:
      return 0;
 80025ac:	2300      	movs	r3, #0
 80025ae:	e001      	b.n	80025b4 <u8x8_byte_8bit_6800mode+0x1a4>
      break;
 80025b0:	bf00      	nop
  }
  return 1;
 80025b2:	2301      	movs	r3, #1
}
 80025b4:	4618      	mov	r0, r3
 80025b6:	3720      	adds	r7, #32
 80025b8:	46bd      	mov	sp, r7
 80025ba:	bd80      	pop	{r7, pc}
 80025bc:	20001c54 	.word	0x20001c54

080025c0 <HAL_UART_RxCpltCallback>:

// reference:
// https://www.youtube.com/watch?v=VdHt_wJdezM
void HAL_UART_RxCpltCallback(UART_HandleTypeDef *huart)
{
 80025c0:	b580      	push	{r7, lr}
 80025c2:	b084      	sub	sp, #16
 80025c4:	af00      	add	r7, sp, #0
 80025c6:	6078      	str	r0, [r7, #4]
	if(huart->Instance==USART1)
 80025c8:	687b      	ldr	r3, [r7, #4]
 80025ca:	681b      	ldr	r3, [r3, #0]
 80025cc:	4a48      	ldr	r2, [pc, #288]	; (80026f0 <HAL_UART_RxCpltCallback+0x130>)
 80025ce:	4293      	cmp	r3, r2
 80025d0:	f040 8084 	bne.w	80026dc <HAL_UART_RxCpltCallback+0x11c>
	{
		// if the data is not being received, clear the buffer
		if(rx_index==0)
 80025d4:	4b47      	ldr	r3, [pc, #284]	; (80026f4 <HAL_UART_RxCpltCallback+0x134>)
 80025d6:	781b      	ldrb	r3, [r3, #0]
 80025d8:	2b00      	cmp	r3, #0
 80025da:	d10d      	bne.n	80025f8 <HAL_UART_RxCpltCallback+0x38>
		{
			for(int i=0;i<20;i++)
 80025dc:	2300      	movs	r3, #0
 80025de:	60fb      	str	r3, [r7, #12]
 80025e0:	e007      	b.n	80025f2 <HAL_UART_RxCpltCallback+0x32>
			{
				rx_buffer[i]=0;
 80025e2:	4a45      	ldr	r2, [pc, #276]	; (80026f8 <HAL_UART_RxCpltCallback+0x138>)
 80025e4:	68fb      	ldr	r3, [r7, #12]
 80025e6:	4413      	add	r3, r2
 80025e8:	2200      	movs	r2, #0
 80025ea:	701a      	strb	r2, [r3, #0]
			for(int i=0;i<20;i++)
 80025ec:	68fb      	ldr	r3, [r7, #12]
 80025ee:	3301      	adds	r3, #1
 80025f0:	60fb      	str	r3, [r7, #12]
 80025f2:	68fb      	ldr	r3, [r7, #12]
 80025f4:	2b13      	cmp	r3, #19
 80025f6:	ddf4      	ble.n	80025e2 <HAL_UART_RxCpltCallback+0x22>
			}
		}
		// if the character received is other than 'enter' ascii13, save the data in buffer
		if(rx_data!=13)
 80025f8:	4b40      	ldr	r3, [pc, #256]	; (80026fc <HAL_UART_RxCpltCallback+0x13c>)
 80025fa:	781b      	ldrb	r3, [r3, #0]
 80025fc:	2b0d      	cmp	r3, #13
 80025fe:	d00b      	beq.n	8002618 <HAL_UART_RxCpltCallback+0x58>
		{
			rx_buffer[rx_index++]=rx_data;
 8002600:	4b3c      	ldr	r3, [pc, #240]	; (80026f4 <HAL_UART_RxCpltCallback+0x134>)
 8002602:	781b      	ldrb	r3, [r3, #0]
 8002604:	1c5a      	adds	r2, r3, #1
 8002606:	b2d1      	uxtb	r1, r2
 8002608:	4a3a      	ldr	r2, [pc, #232]	; (80026f4 <HAL_UART_RxCpltCallback+0x134>)
 800260a:	7011      	strb	r1, [r2, #0]
 800260c:	461a      	mov	r2, r3
 800260e:	4b3b      	ldr	r3, [pc, #236]	; (80026fc <HAL_UART_RxCpltCallback+0x13c>)
 8002610:	7819      	ldrb	r1, [r3, #0]
 8002612:	4b39      	ldr	r3, [pc, #228]	; (80026f8 <HAL_UART_RxCpltCallback+0x138>)
 8002614:	5499      	strb	r1, [r3, r2]
 8002616:	e05c      	b.n	80026d2 <HAL_UART_RxCpltCallback+0x112>
		}
		else
		{
			uint16_t byte_send;

			uint8_t cek = parse_buff(rx_buffer,rx_index,&komu_data);
 8002618:	4b36      	ldr	r3, [pc, #216]	; (80026f4 <HAL_UART_RxCpltCallback+0x134>)
 800261a:	781b      	ldrb	r3, [r3, #0]
 800261c:	b29b      	uxth	r3, r3
 800261e:	4a38      	ldr	r2, [pc, #224]	; (8002700 <HAL_UART_RxCpltCallback+0x140>)
 8002620:	4619      	mov	r1, r3
 8002622:	4835      	ldr	r0, [pc, #212]	; (80026f8 <HAL_UART_RxCpltCallback+0x138>)
 8002624:	f001 fbd0 	bl	8003dc8 <parse_buff>
 8002628:	4603      	mov	r3, r0
 800262a:	72fb      	strb	r3, [r7, #11]

			siapin_data_balasan(&komu_data,rx_buffer);
 800262c:	4932      	ldr	r1, [pc, #200]	; (80026f8 <HAL_UART_RxCpltCallback+0x138>)
 800262e:	4834      	ldr	r0, [pc, #208]	; (8002700 <HAL_UART_RxCpltCallback+0x140>)
 8002630:	f001 fd2c 	bl	800408c <siapin_data_balasan>

			if(komu_data.command == GOTO_CAL_MODE_CMD ||
 8002634:	4b32      	ldr	r3, [pc, #200]	; (8002700 <HAL_UART_RxCpltCallback+0x140>)
 8002636:	781b      	ldrb	r3, [r3, #0]
 8002638:	2b68      	cmp	r3, #104	; 0x68
 800263a:	d007      	beq.n	800264c <HAL_UART_RxCpltCallback+0x8c>
					komu_data.command == EXIT_CAL_MODE_CMD ||
 800263c:	4b30      	ldr	r3, [pc, #192]	; (8002700 <HAL_UART_RxCpltCallback+0x140>)
 800263e:	781b      	ldrb	r3, [r3, #0]
			if(komu_data.command == GOTO_CAL_MODE_CMD ||
 8002640:	2b69      	cmp	r3, #105	; 0x69
 8002642:	d003      	beq.n	800264c <HAL_UART_RxCpltCallback+0x8c>
					komu_data.command == SAVE_CAL_VAL_CMD)
 8002644:	4b2e      	ldr	r3, [pc, #184]	; (8002700 <HAL_UART_RxCpltCallback+0x140>)
 8002646:	781b      	ldrb	r3, [r3, #0]
					komu_data.command == EXIT_CAL_MODE_CMD ||
 8002648:	2b6a      	cmp	r3, #106	; 0x6a
 800264a:	d102      	bne.n	8002652 <HAL_UART_RxCpltCallback+0x92>
			{
				change_ui_flag = 1;
 800264c:	4b2d      	ldr	r3, [pc, #180]	; (8002704 <HAL_UART_RxCpltCallback+0x144>)
 800264e:	2201      	movs	r2, #1
 8002650:	701a      	strb	r2, [r3, #0]
			}

			response_cmd(&komu_data,rx_buffer,&byte_send);
 8002652:	f107 0308 	add.w	r3, r7, #8
 8002656:	461a      	mov	r2, r3
 8002658:	4927      	ldr	r1, [pc, #156]	; (80026f8 <HAL_UART_RxCpltCallback+0x138>)
 800265a:	4829      	ldr	r0, [pc, #164]	; (8002700 <HAL_UART_RxCpltCallback+0x140>)
 800265c:	f001 fc1e 	bl	8003e9c <response_cmd>
			rx_index=0;
 8002660:	4b24      	ldr	r3, [pc, #144]	; (80026f4 <HAL_UART_RxCpltCallback+0x134>)
 8002662:	2200      	movs	r2, #0
 8002664:	701a      	strb	r2, [r3, #0]

			HAL_UART_Transmit(&huart1,rx_buffer,byte_send,20000);// transmit the data via uart
 8002666:	893a      	ldrh	r2, [r7, #8]
 8002668:	f644 6320 	movw	r3, #20000	; 0x4e20
 800266c:	4922      	ldr	r1, [pc, #136]	; (80026f8 <HAL_UART_RxCpltCallback+0x138>)
 800266e:	4826      	ldr	r0, [pc, #152]	; (8002708 <HAL_UART_RxCpltCallback+0x148>)
 8002670:	f008 fd5e 	bl	800b130 <HAL_UART_Transmit>

			if(change_ui_flag == 1){
 8002674:	4b23      	ldr	r3, [pc, #140]	; (8002704 <HAL_UART_RxCpltCallback+0x144>)
 8002676:	781b      	ldrb	r3, [r3, #0]
 8002678:	2b01      	cmp	r3, #1
 800267a:	d12a      	bne.n	80026d2 <HAL_UART_RxCpltCallback+0x112>
				if(komu_data.command == GOTO_CAL_MODE_CMD){
 800267c:	4b20      	ldr	r3, [pc, #128]	; (8002700 <HAL_UART_RxCpltCallback+0x140>)
 800267e:	781b      	ldrb	r3, [r3, #0]
 8002680:	2b68      	cmp	r3, #104	; 0x68
 8002682:	d110      	bne.n	80026a6 <HAL_UART_RxCpltCallback+0xe6>
					state_gui = CAL_SCREEN;
 8002684:	4b21      	ldr	r3, [pc, #132]	; (800270c <HAL_UART_RxCpltCallback+0x14c>)
 8002686:	2203      	movs	r2, #3
 8002688:	701a      	strb	r2, [r3, #0]
					cmd_lcd(0xAE);
 800268a:	20ae      	movs	r0, #174	; 0xae
 800268c:	f7ff fe16 	bl	80022bc <cmd_lcd>
					u8g2_ClearDisplay(&u8g2);
 8002690:	481f      	ldr	r0, [pc, #124]	; (8002710 <HAL_UART_RxCpltCallback+0x150>)
 8002692:	f00a ffcb 	bl	800d62c <u8g2_ClearDisplay>
					view_calibrate(0.0);
 8002696:	ed9f 0b14 	vldr	d0, [pc, #80]	; 80026e8 <HAL_UART_RxCpltCallback+0x128>
 800269a:	f7fe fee7 	bl	800146c <view_calibrate>
					cmd_lcd(0xAF);
 800269e:	20af      	movs	r0, #175	; 0xaf
 80026a0:	f7ff fe0c 	bl	80022bc <cmd_lcd>
 80026a4:	e015      	b.n	80026d2 <HAL_UART_RxCpltCallback+0x112>
				}
				else if(komu_data.command == EXIT_CAL_MODE_CMD){
 80026a6:	4b16      	ldr	r3, [pc, #88]	; (8002700 <HAL_UART_RxCpltCallback+0x140>)
 80026a8:	781b      	ldrb	r3, [r3, #0]
 80026aa:	2b69      	cmp	r3, #105	; 0x69
 80026ac:	d111      	bne.n	80026d2 <HAL_UART_RxCpltCallback+0x112>
					state_gui = MAIN_SCREEN;
 80026ae:	4b17      	ldr	r3, [pc, #92]	; (800270c <HAL_UART_RxCpltCallback+0x14c>)
 80026b0:	2200      	movs	r2, #0
 80026b2:	701a      	strb	r2, [r3, #0]
					cmd_lcd(0xAE);
 80026b4:	20ae      	movs	r0, #174	; 0xae
 80026b6:	f7ff fe01 	bl	80022bc <cmd_lcd>
					u8g2_ClearDisplay(&u8g2);
 80026ba:	4815      	ldr	r0, [pc, #84]	; (8002710 <HAL_UART_RxCpltCallback+0x150>)
 80026bc:	f00a ffb6 	bl	800d62c <u8g2_ClearDisplay>
					view_ut_data(ut_ch_data,inc);
 80026c0:	4b14      	ldr	r3, [pc, #80]	; (8002714 <HAL_UART_RxCpltCallback+0x154>)
 80026c2:	681b      	ldr	r3, [r3, #0]
 80026c4:	4619      	mov	r1, r3
 80026c6:	4814      	ldr	r0, [pc, #80]	; (8002718 <HAL_UART_RxCpltCallback+0x158>)
 80026c8:	f7ff f99e 	bl	8001a08 <view_ut_data>
					cmd_lcd(0xAF);
 80026cc:	20af      	movs	r0, #175	; 0xaf
 80026ce:	f7ff fdf5 	bl	80022bc <cmd_lcd>

//				change_ui_flag = 0;
//				memset(&komu_data,0,sizeof(komu_data));
			}
		}
		HAL_UART_Receive_IT(&huart1,&rx_data,1);// receive data (one character only)
 80026d2:	2201      	movs	r2, #1
 80026d4:	4909      	ldr	r1, [pc, #36]	; (80026fc <HAL_UART_RxCpltCallback+0x13c>)
 80026d6:	480c      	ldr	r0, [pc, #48]	; (8002708 <HAL_UART_RxCpltCallback+0x148>)
 80026d8:	f008 fdc2 	bl	800b260 <HAL_UART_Receive_IT>
	}
}
 80026dc:	bf00      	nop
 80026de:	3710      	adds	r7, #16
 80026e0:	46bd      	mov	sp, r7
 80026e2:	bd80      	pop	{r7, pc}
 80026e4:	f3af 8000 	nop.w
	...
 80026f0:	40013800 	.word	0x40013800
 80026f4:	20000200 	.word	0x20000200
 80026f8:	2000083c 	.word	0x2000083c
 80026fc:	20001c57 	.word	0x20001c57
 8002700:	2000082c 	.word	0x2000082c
 8002704:	20001d5a 	.word	0x20001d5a
 8002708:	20001bc8 	.word	0x20001bc8
 800270c:	20001d58 	.word	0x20001d58
 8002710:	20001cc0 	.word	0x20001cc0
 8002714:	200001fc 	.word	0x200001fc
 8002718:	20000614 	.word	0x20000614
 800271c:	00000000 	.word	0x00000000

08002720 <main>:
/**
  * @brief  The application entry point.
  * @retval int
  */
int main(void)
{
 8002720:	b5b0      	push	{r4, r5, r7, lr}
 8002722:	b09c      	sub	sp, #112	; 0x70
 8002724:	af08      	add	r7, sp, #32
  /* USER CODE END 1 */

  /* MCU Configuration--------------------------------------------------------*/

  /* Reset of all peripherals, Initializes the Flash interface and the Systick. */
  HAL_Init();
 8002726:	f002 ff10 	bl	800554a <HAL_Init>
  /* USER CODE BEGIN Init */

  /* USER CODE END Init */

  /* Configure the system clock */
  SystemClock_Config();
 800272a:	f000 fb6f 	bl	8002e0c <SystemClock_Config>
  /* USER CODE BEGIN SysInit */

  /* USER CODE END SysInit */

  /* Initialize all configured peripherals */
  MX_GPIO_Init();
 800272e:	f000 fe1b 	bl	8003368 <MX_GPIO_Init>
  MX_SPI1_Init();
 8002732:	f000 fcab 	bl	800308c <MX_SPI1_Init>
  MX_TIM4_Init();
 8002736:	f000 fd25 	bl	8003184 <MX_TIM4_Init>
  MX_USART3_UART_Init();
 800273a:	f000 fdc9 	bl	80032d0 <MX_USART3_UART_Init>
//  MX_IWDG_Init();
  MX_SPI2_Init();
 800273e:	f000 fce3 	bl	8003108 <MX_SPI2_Init>
  MX_I2C1_Init();
 8002742:	f000 fc0f 	bl	8002f64 <MX_I2C1_Init>
  MX_OCTOSPI1_Init();
 8002746:	f000 fc4d 	bl	8002fe4 <MX_OCTOSPI1_Init>
  MX_USART1_UART_Init();
 800274a:	f000 fd75 	bl	8003238 <MX_USART1_UART_Init>
  MX_CRC_Init();
 800274e:	f000 fbe7 	bl	8002f20 <MX_CRC_Init>
  /* USER CODE BEGIN 2 */

  //	__HAL_UART_ENABLE_IT(&huart1,UART_IT_RXNE);
  	HAL_UART_Receive_IT(&huart1,&rx_data,1);
 8002752:	2201      	movs	r2, #1
 8002754:	49cb      	ldr	r1, [pc, #812]	; (8002a84 <main+0x364>)
 8002756:	48cc      	ldr	r0, [pc, #816]	; (8002a88 <main+0x368>)
 8002758:	f008 fd82 	bl	800b260 <HAL_UART_Receive_IT>

  printf("\r\n");
 800275c:	48cb      	ldr	r0, [pc, #812]	; (8002a8c <main+0x36c>)
 800275e:	f00d f9ed 	bl	800fb3c <puts>
  printf("\r\n");
 8002762:	48ca      	ldr	r0, [pc, #808]	; (8002a8c <main+0x36c>)
 8002764:	f00d f9ea 	bl	800fb3c <puts>
  printf("\r\n");
 8002768:	48c8      	ldr	r0, [pc, #800]	; (8002a8c <main+0x36c>)
 800276a:	f00d f9e7 	bl	800fb3c <puts>
  printf("==========================\r\n");
 800276e:	48c8      	ldr	r0, [pc, #800]	; (8002a90 <main+0x370>)
 8002770:	f00d f9e4 	bl	800fb3c <puts>
  printf("FW UT v2.0.0\r\n");
 8002774:	48c7      	ldr	r0, [pc, #796]	; (8002a94 <main+0x374>)
 8002776:	f00d f9e1 	bl	800fb3c <puts>
  printf("==========================\r\n");
 800277a:	48c5      	ldr	r0, [pc, #788]	; (8002a90 <main+0x370>)
 800277c:	f00d f9de 	bl	800fb3c <puts>

  HAL_TIM_PWM_Start(&htim4, TIM_CHANNEL_3);
 8002780:	2108      	movs	r1, #8
 8002782:	48c5      	ldr	r0, [pc, #788]	; (8002a98 <main+0x378>)
 8002784:	f007 fef6 	bl	800a574 <HAL_TIM_PWM_Start>
//  htim4.Instance->CCR1 = 50;
  reset_cause_t reset_cause = reset_cause_get();
 8002788:	f001 fcee 	bl	8004168 <reset_cause_get>
 800278c:	4603      	mov	r3, r0
 800278e:	f887 3047 	strb.w	r3, [r7, #71]	; 0x47
  printf("The system reset cause is \"%s\"\r\n", reset_cause_get_name(reset_cause));
 8002792:	f897 3047 	ldrb.w	r3, [r7, #71]	; 0x47
 8002796:	4618      	mov	r0, r3
 8002798:	f001 fd36 	bl	8004208 <reset_cause_get_name>
 800279c:	4603      	mov	r3, r0
 800279e:	4619      	mov	r1, r3
 80027a0:	48be      	ldr	r0, [pc, #760]	; (8002a9c <main+0x37c>)
 80027a2:	f00d f957 	bl	800fa54 <iprintf>
  printf("22 Khz Must be run...\r\n");
 80027a6:	48be      	ldr	r0, [pc, #760]	; (8002aa0 <main+0x380>)
 80027a8:	f00d f9c8 	bl	800fb3c <puts>

  #define TDC7200_CLOCK_FREQ_HZ (8000000)

  TDC7200(TDC7200_CLOCK_FREQ_HZ);
 80027ac:	48bd      	ldr	r0, [pc, #756]	; (8002aa4 <main+0x384>)
 80027ae:	f002 f93b 	bl	8004a28 <TDC7200>
  printf("TDC7200_begin..\r\n");
 80027b2:	48bd      	ldr	r0, [pc, #756]	; (8002aa8 <main+0x388>)
 80027b4:	f00d f9c2 	bl	800fb3c <puts>
  uint8_t status_tdc = TDC7200_begin();
 80027b8:	f002 f95e 	bl	8004a78 <TDC7200_begin>
 80027bc:	4603      	mov	r3, r0
 80027be:	f887 3046 	strb.w	r3, [r7, #70]	; 0x46
  if(!status_tdc){
 80027c2:	f897 3046 	ldrb.w	r3, [r7, #70]	; 0x46
 80027c6:	2b00      	cmp	r3, #0
 80027c8:	d105      	bne.n	80027d6 <main+0xb6>
	  printf("TDC7200_begin Failed!\r\n");
 80027ca:	48b8      	ldr	r0, [pc, #736]	; (8002aac <main+0x38c>)
 80027cc:	f00d f9b6 	bl	800fb3c <puts>
	  Error_Handler();
 80027d0:	f000 fff8 	bl	80037c4 <Error_Handler>
 80027d4:	e002      	b.n	80027dc <main+0xbc>
  }
  else
	  printf("TDC7200_begin Success!\r\n");
 80027d6:	48b6      	ldr	r0, [pc, #728]	; (8002ab0 <main+0x390>)
 80027d8:	f00d f9b0 	bl	800fb3c <puts>
#define STOP_NUMBER 5
  if (!TDC7200_setupMeasurement( 	10,         // cal2Periods
 80027dc:	2302      	movs	r3, #2
 80027de:	2205      	movs	r2, #5
 80027e0:	2101      	movs	r1, #1
 80027e2:	200a      	movs	r0, #10
 80027e4:	f002 f97e 	bl	8004ae4 <TDC7200_setupMeasurement>
 80027e8:	4603      	mov	r3, r0
 80027ea:	2b00      	cmp	r3, #0
 80027ec:	d105      	bne.n	80027fa <main+0xda>
                                    1,          // avgCycles
									STOP_NUMBER,  // numStops
                                    2 ))        // mode
  {
	  printf("TDC7200_setupMeasurement Failed!\r\n");
 80027ee:	48b1      	ldr	r0, [pc, #708]	; (8002ab4 <main+0x394>)
 80027f0:	f00d f9a4 	bl	800fb3c <puts>
	  Error_Handler();
 80027f4:	f000 ffe6 	bl	80037c4 <Error_Handler>
 80027f8:	e002      	b.n	8002800 <main+0xe0>
  }
  else
	  printf("TDC7200_setupMeasurement Success!\r\n");
 80027fa:	48af      	ldr	r0, [pc, #700]	; (8002ab8 <main+0x398>)
 80027fc:	f00d f99e 	bl	800fb3c <puts>

  /* USER CODE END 2 */

  /* Infinite loop */
  /* USER CODE BEGIN WHILE */
  HAL_GPIO_WritePin(GPIOD, START_TDC_Pin, GPIO_PIN_SET); //buat start tdc
 8002800:	2201      	movs	r2, #1
 8002802:	f44f 5100 	mov.w	r1, #8192	; 0x2000
 8002806:	48ad      	ldr	r0, [pc, #692]	; (8002abc <main+0x39c>)
 8002808:	f003 fd6c 	bl	80062e4 <HAL_GPIO_WritePin>
  HAL_GPIO_WritePin(GPIOD, RST_MCP_Pin, GPIO_PIN_RESET);
 800280c:	2200      	movs	r2, #0
 800280e:	f44f 5100 	mov.w	r1, #8192	; 0x2000
 8002812:	48aa      	ldr	r0, [pc, #680]	; (8002abc <main+0x39c>)
 8002814:	f003 fd66 	bl	80062e4 <HAL_GPIO_WritePin>
  HAL_Delay(100);
 8002818:	2064      	movs	r0, #100	; 0x64
 800281a:	f002 ff07 	bl	800562c <HAL_Delay>
  HAL_GPIO_WritePin(GPIOD, RST_MCP_Pin, GPIO_PIN_SET);
 800281e:	2201      	movs	r2, #1
 8002820:	f44f 5100 	mov.w	r1, #8192	; 0x2000
 8002824:	48a5      	ldr	r0, [pc, #660]	; (8002abc <main+0x39c>)
 8002826:	f003 fd5d 	bl	80062e4 <HAL_GPIO_WritePin>

  uint8_t status;
  MCP23017_init();
 800282a:	f7ff faf5 	bl	8001e18 <MCP23017_init>
  MCP23017_portMode(0, 0, 0xFF, 0);//PA
 800282e:	2300      	movs	r3, #0
 8002830:	22ff      	movs	r2, #255	; 0xff
 8002832:	2100      	movs	r1, #0
 8002834:	2000      	movs	r0, #0
 8002836:	f7ff fafc 	bl	8001e32 <MCP23017_portMode>
  //B0-B2 is input, other is output
  MCP23017_portMode(1, 0b00000111, 0xFF, 0);//PB
 800283a:	2300      	movs	r3, #0
 800283c:	22ff      	movs	r2, #255	; 0xff
 800283e:	2107      	movs	r1, #7
 8002840:	2001      	movs	r0, #1
 8002842:	f7ff faf6 	bl	8001e32 <MCP23017_portMode>

  HAL_NVIC_DisableIRQ(EXTI9_5_IRQn);
 8002846:	2017      	movs	r0, #23
 8002848:	f003 f839 	bl	80058be <HAL_NVIC_DisableIRQ>
  MCP23017_interruptMode(Separated);
 800284c:	2000      	movs	r0, #0
 800284e:	f7ff fc3f 	bl	80020d0 <MCP23017_interruptMode>

  MCP23017_interrupt_pin(1, 0b00000111, FALLING);
 8002852:	2201      	movs	r2, #1
 8002854:	2107      	movs	r1, #7
 8002856:	2001      	movs	r0, #1
 8002858:	f7ff fc59 	bl	800210e <MCP23017_interrupt_pin>

  MCP23017_writeRegister(REGISTER_IPOL_A,0);
 800285c:	2100      	movs	r1, #0
 800285e:	2002      	movs	r0, #2
 8002860:	f7ff fbd0 	bl	8002004 <MCP23017_writeRegister>
  MCP23017_writeRegister(REGISTER_IPOL_B,0);
 8002864:	2100      	movs	r1, #0
 8002866:	2003      	movs	r0, #3
 8002868:	f7ff fbcc 	bl	8002004 <MCP23017_writeRegister>

  MCP23017_writeRegister(REGISTER_GPIO_A,0);
 800286c:	2100      	movs	r1, #0
 800286e:	2012      	movs	r0, #18
 8002870:	f7ff fbc8 	bl	8002004 <MCP23017_writeRegister>
  MCP23017_writeRegister(REGISTER_GPIO_B,0b00000111);
 8002874:	2107      	movs	r1, #7
 8002876:	2013      	movs	r0, #19
 8002878:	f7ff fbc4 	bl	8002004 <MCP23017_writeRegister>
  MCP23017_clearInterrupts_all();
 800287c:	f7ff fc8f 	bl	800219e <MCP23017_clearInterrupts_all>
  printf("MCP iodir set...\r\n");
 8002880:	488f      	ldr	r0, [pc, #572]	; (8002ac0 <main+0x3a0>)
 8002882:	f00d f95b 	bl	800fb3c <puts>

  // Init LCD
  MCP23017_digitalWrite(PIN_BLA,1);
 8002886:	2101      	movs	r1, #1
 8002888:	200b      	movs	r0, #11
 800288a:	f7ff fafe 	bl	8001e8a <MCP23017_digitalWrite>
  u8g2_Setup_st7565_64128n_f(&u8g2, U8G2_R0, u8x8_byte_8bit_6800mode, u8x8_stm32_gpio_and_delay);
 800288e:	4b8d      	ldr	r3, [pc, #564]	; (8002ac4 <main+0x3a4>)
 8002890:	4a8d      	ldr	r2, [pc, #564]	; (8002ac8 <main+0x3a8>)
 8002892:	498e      	ldr	r1, [pc, #568]	; (8002acc <main+0x3ac>)
 8002894:	488e      	ldr	r0, [pc, #568]	; (8002ad0 <main+0x3b0>)
 8002896:	f00a feef 	bl	800d678 <u8g2_Setup_st7565_64128n_f>
  u8g2_InitDisplay(&u8g2); // send init sequence to the display, display is in sleep mode after this,
 800289a:	488d      	ldr	r0, [pc, #564]	; (8002ad0 <main+0x3b0>)
 800289c:	f00c fb7c 	bl	800ef98 <u8x8_InitDisplay>
  u8g2_SetPowerSave(&u8g2, 0); // wake up display
 80028a0:	2100      	movs	r1, #0
 80028a2:	488b      	ldr	r0, [pc, #556]	; (8002ad0 <main+0x3b0>)
 80028a4:	f00c fb87 	bl	800efb6 <u8x8_SetPowerSave>
  u8g2_SetFlipMode(&u8g2,1);
 80028a8:	2101      	movs	r1, #1
 80028aa:	4889      	ldr	r0, [pc, #548]	; (8002ad0 <main+0x3b0>)
 80028ac:	f00c fb94 	bl	800efd8 <u8x8_SetFlipMode>
  u8g2_SetContrast(&u8g2,20);
 80028b0:	2114      	movs	r1, #20
 80028b2:	4887      	ldr	r0, [pc, #540]	; (8002ad0 <main+0x3b0>)
 80028b4:	f00c fba1 	bl	800effa <u8x8_SetContrast>
  u8g2_ClearDisplay(&u8g2);
 80028b8:	4885      	ldr	r0, [pc, #532]	; (8002ad0 <main+0x3b0>)
 80028ba:	f00a feb7 	bl	800d62c <u8g2_ClearDisplay>
  u8g2_FirstPage(&u8g2);
 80028be:	4884      	ldr	r0, [pc, #528]	; (8002ad0 <main+0x3b0>)
 80028c0:	f00a fe67 	bl	800d592 <u8g2_FirstPage>
  tampil_init();
 80028c4:	f7fe fcb6 	bl	8001234 <tampil_init>
  u8g2_UpdateDisplay(&u8g2);
 80028c8:	4881      	ldr	r0, [pc, #516]	; (8002ad0 <main+0x3b0>)
 80028ca:	f00a fea4 	bl	800d616 <u8g2_UpdateDisplay>
  printf("LCD init done...\r\n");
 80028ce:	4881      	ldr	r0, [pc, #516]	; (8002ad4 <main+0x3b4>)
 80028d0:	f00d f934 	bl	800fb3c <puts>

  state_gui = MAIN_SCREEN;
 80028d4:	4b80      	ldr	r3, [pc, #512]	; (8002ad8 <main+0x3b8>)
 80028d6:	2200      	movs	r2, #0
 80028d8:	701a      	strb	r2, [r3, #0]
  uint8_t 	 baris = 1;
 80028da:	2301      	movs	r3, #1
 80028dc:	f887 304f 	strb.w	r3, [r7, #79]	; 0x4f



  #define BACK_TO_MAIN_SETTING baris = 0;set_menu(baris);state_gui = SET_SCREEN

  uint8_t init_status = 0;
 80028e0:	2300      	movs	r3, #0
 80028e2:	f887 3045 	strb.w	r3, [r7, #69]	; 0x45
  printf("QSPI Init...\r\n");
 80028e6:	487d      	ldr	r0, [pc, #500]	; (8002adc <main+0x3bc>)
 80028e8:	f00d f928 	bl	800fb3c <puts>
  init_status = CSP_QUADSPI_Init();
 80028ec:	f000 ffcc 	bl	8003888 <CSP_QUADSPI_Init>
 80028f0:	4603      	mov	r3, r0
 80028f2:	f887 3045 	strb.w	r3, [r7, #69]	; 0x45
  if(init_status){
 80028f6:	f897 3045 	ldrb.w	r3, [r7, #69]	; 0x45
 80028fa:	2b00      	cmp	r3, #0
 80028fc:	d004      	beq.n	8002908 <main+0x1e8>
	  printf("QSPI Init Failed...\r\n");
 80028fe:	4878      	ldr	r0, [pc, #480]	; (8002ae0 <main+0x3c0>)
 8002900:	f00d f91c 	bl	800fb3c <puts>
	  // fail in here
	  Error_Handler();
 8002904:	f000 ff5e 	bl	80037c4 <Error_Handler>
  }
  printf("QSPI Init OK...\r\n");
 8002908:	4876      	ldr	r0, [pc, #472]	; (8002ae4 <main+0x3c4>)
 800290a:	f00d f917 	bl	800fb3c <puts>
	//https://crccalc.com/
	uint32_t crcVal = HAL_CRC_Calculate(&hcrc,crcArray,LEN_TEST);
#endif


  HAL_NVIC_EnableIRQ(EXTI9_5_IRQn);
 800290e:	2017      	movs	r0, #23
 8002910:	f002 ffc7 	bl	80058a2 <HAL_NVIC_EnableIRQ>
//  #define DEBUG_MEASURE
  view_ut_data(ut_ch_data,inc);
 8002914:	4b74      	ldr	r3, [pc, #464]	; (8002ae8 <main+0x3c8>)
 8002916:	681b      	ldr	r3, [r3, #0]
 8002918:	4619      	mov	r1, r3
 800291a:	4874      	ldr	r0, [pc, #464]	; (8002aec <main+0x3cc>)
 800291c:	f7ff f874 	bl	8001a08 <view_ut_data>

  struct cal_ut cal_val_ut;
  struct setting_ut config_ut;
  float thickness,time_us;

  W25QXX_Read((uint8_t *)&cal_val_ut,sizeof(config_ut),sizeof(cal_val_ut));
 8002920:	f107 033c 	add.w	r3, r7, #60	; 0x3c
 8002924:	2208      	movs	r2, #8
 8002926:	212c      	movs	r1, #44	; 0x2c
 8002928:	4618      	mov	r0, r3
 800292a:	f001 f8ef 	bl	8003b0c <W25QXX_Read>

//  memset((uint8_t *)&cal_val_ut,0xFFFFFFFF,sizeof(cal_val_ut));
  float cal_offset_time_us = cal_val_ut.offset_time_us_sensoring;
 800292e:	6c3b      	ldr	r3, [r7, #64]	; 0x40
 8002930:	607b      	str	r3, [r7, #4]
  // detect 0xFFFFFFFF in flash mem
  if(cal_offset_time_us >= FLT_MAX || isnan(cal_offset_time_us))
 8002932:	edd7 7a01 	vldr	s15, [r7, #4]
 8002936:	ed9f 7a6e 	vldr	s14, [pc, #440]	; 8002af0 <main+0x3d0>
 800293a:	eef4 7ac7 	vcmpe.f32	s15, s14
 800293e:	eef1 fa10 	vmrs	APSR_nzcv, fpscr
 8002942:	da08      	bge.n	8002956 <main+0x236>
 8002944:	ed97 7a01 	vldr	s14, [r7, #4]
 8002948:	edd7 7a01 	vldr	s15, [r7, #4]
 800294c:	eeb4 7a67 	vcmp.f32	s14, s15
 8002950:	eef1 fa10 	vmrs	APSR_nzcv, fpscr
 8002954:	d702      	bvc.n	800295c <main+0x23c>
	  cal_offset_time_us=0.0;
 8002956:	f04f 0300 	mov.w	r3, #0
 800295a:	607b      	str	r3, [r7, #4]
  printf("cal_offset_time_us %f\r\n",cal_offset_time_us);
 800295c:	687b      	ldr	r3, [r7, #4]
 800295e:	4618      	mov	r0, r3
 8002960:	f7fd fe0a 	bl	8000578 <__aeabi_f2d>
 8002964:	4603      	mov	r3, r0
 8002966:	460c      	mov	r4, r1
 8002968:	461a      	mov	r2, r3
 800296a:	4623      	mov	r3, r4
 800296c:	4861      	ldr	r0, [pc, #388]	; (8002af4 <main+0x3d4>)
 800296e:	f00d f871 	bl	800fa54 <iprintf>
  {
    /* USER CODE END WHILE */

    /* USER CODE BEGIN 3 */

		if(change_ui_flag == 1){
 8002972:	4b61      	ldr	r3, [pc, #388]	; (8002af8 <main+0x3d8>)
 8002974:	781b      	ldrb	r3, [r3, #0]
 8002976:	2b01      	cmp	r3, #1
 8002978:	d157      	bne.n	8002a2a <main+0x30a>
			if(komu_data.command == SAVE_CAL_VAL_CMD){
 800297a:	4b60      	ldr	r3, [pc, #384]	; (8002afc <main+0x3dc>)
 800297c:	781b      	ldrb	r3, [r3, #0]
 800297e:	2b6a      	cmp	r3, #106	; 0x6a
 8002980:	d14b      	bne.n	8002a1a <main+0x2fa>
				  state_gui = SAVE_CALIBRATED_SCREEN;
 8002982:	4b55      	ldr	r3, [pc, #340]	; (8002ad8 <main+0x3b8>)
 8002984:	2206      	movs	r2, #6
 8002986:	701a      	strb	r2, [r3, #0]
				  main_take_data(&time_us,NULL,MAJORITY_VALUE);
 8002988:	f107 0308 	add.w	r3, r7, #8
 800298c:	2232      	movs	r2, #50	; 0x32
 800298e:	2100      	movs	r1, #0
 8002990:	4618      	mov	r0, r3
 8002992:	f002 fd53 	bl	800543c <main_take_data>
				  cal_offset_time_us = calibrating_ut(&time_us);
 8002996:	f107 0308 	add.w	r3, r7, #8
 800299a:	4618      	mov	r0, r3
 800299c:	f002 fcf6 	bl	800538c <calibrating_ut>
 80029a0:	eef0 7a40 	vmov.f32	s15, s0
 80029a4:	edc7 7a01 	vstr	s15, [r7, #4]
				  main_take_data(&time_us,&cal_offset_time_us,MAJORITY_VALUE);
 80029a8:	1d39      	adds	r1, r7, #4
 80029aa:	f107 0308 	add.w	r3, r7, #8
 80029ae:	2232      	movs	r2, #50	; 0x32
 80029b0:	4618      	mov	r0, r3
 80029b2:	f002 fd43 	bl	800543c <main_take_data>
				  thickness = time_to_thick(&time_us,VELO_STEEL_MILD);
 80029b6:	f107 0308 	add.w	r3, r7, #8
 80029ba:	f44f 51b9 	mov.w	r1, #5920	; 0x1720
 80029be:	4618      	mov	r0, r3
 80029c0:	f002 fd00 	bl	80053c4 <time_to_thick>
 80029c4:	eef0 7a40 	vmov.f32	s15, s0
 80029c8:	edc7 7a03 	vstr	s15, [r7, #12]
				  view_saved_calibrate(&thickness);
 80029cc:	f107 030c 	add.w	r3, r7, #12
 80029d0:	4618      	mov	r0, r3
 80029d2:	f7fe fcf5 	bl	80013c0 <view_saved_calibrate>
				  W25QXX_Read((uint8_t *)&cal_val_ut,sizeof(config_ut),sizeof(cal_val_ut));
 80029d6:	f107 033c 	add.w	r3, r7, #60	; 0x3c
 80029da:	2208      	movs	r2, #8
 80029dc:	212c      	movs	r1, #44	; 0x2c
 80029de:	4618      	mov	r0, r3
 80029e0:	f001 f894 	bl	8003b0c <W25QXX_Read>
				  cal_val_ut.offset_time_us_sensoring = cal_offset_time_us;
 80029e4:	687b      	ldr	r3, [r7, #4]
 80029e6:	643b      	str	r3, [r7, #64]	; 0x40
				  W25QXX_Write((uint8_t *)&cal_val_ut,sizeof(config_ut),sizeof(cal_val_ut));
 80029e8:	f107 033c 	add.w	r3, r7, #60	; 0x3c
 80029ec:	2208      	movs	r2, #8
 80029ee:	212c      	movs	r1, #44	; 0x2c
 80029f0:	4618      	mov	r0, r3
 80029f2:	f001 f965 	bl	8003cc0 <W25QXX_Write>
				  W25QXX_Read((uint8_t *)&cal_val_ut,sizeof(config_ut),sizeof(cal_val_ut));
 80029f6:	f107 033c 	add.w	r3, r7, #60	; 0x3c
 80029fa:	2208      	movs	r2, #8
 80029fc:	212c      	movs	r1, #44	; 0x2c
 80029fe:	4618      	mov	r0, r3
 8002a00:	f001 f884 	bl	8003b0c <W25QXX_Read>
				  printf("cal_val_ut.offset_time_us_sensoring %f\r\n",cal_val_ut.offset_time_us_sensoring);
 8002a04:	6c3b      	ldr	r3, [r7, #64]	; 0x40
 8002a06:	4618      	mov	r0, r3
 8002a08:	f7fd fdb6 	bl	8000578 <__aeabi_f2d>
 8002a0c:	4603      	mov	r3, r0
 8002a0e:	460c      	mov	r4, r1
 8002a10:	461a      	mov	r2, r3
 8002a12:	4623      	mov	r3, r4
 8002a14:	483a      	ldr	r0, [pc, #232]	; (8002b00 <main+0x3e0>)
 8002a16:	f00d f81d 	bl	800fa54 <iprintf>
			}
			change_ui_flag = 0;
 8002a1a:	4b37      	ldr	r3, [pc, #220]	; (8002af8 <main+0x3d8>)
 8002a1c:	2200      	movs	r2, #0
 8002a1e:	701a      	strb	r2, [r3, #0]
			memset(&komu_data,0,sizeof(komu_data));
 8002a20:	220c      	movs	r2, #12
 8002a22:	2100      	movs	r1, #0
 8002a24:	4835      	ldr	r0, [pc, #212]	; (8002afc <main+0x3dc>)
 8002a26:	f00c fbb0 	bl	800f18a <memset>
		}

	  if(button_pressed != NO_BUTTON_PRESSED){
 8002a2a:	4b36      	ldr	r3, [pc, #216]	; (8002b04 <main+0x3e4>)
 8002a2c:	781b      	ldrb	r3, [r3, #0]
 8002a2e:	2b00      	cmp	r3, #0
 8002a30:	f000 8150 	beq.w	8002cd4 <main+0x5b4>
		  // pada saat sedang draw hiraukan dulu int mcp
		  HAL_NVIC_DisableIRQ(EXTI9_5_IRQn);
 8002a34:	2017      	movs	r0, #23
 8002a36:	f002 ff42 	bl	80058be <HAL_NVIC_DisableIRQ>

		  switch(state_gui){
 8002a3a:	4b27      	ldr	r3, [pc, #156]	; (8002ad8 <main+0x3b8>)
 8002a3c:	781b      	ldrb	r3, [r3, #0]
 8002a3e:	2b04      	cmp	r3, #4
 8002a40:	f200 8136 	bhi.w	8002cb0 <main+0x590>
 8002a44:	a201      	add	r2, pc, #4	; (adr r2, 8002a4c <main+0x32c>)
 8002a46:	f852 f023 	ldr.w	pc, [r2, r3, lsl #2]
 8002a4a:	bf00      	nop
 8002a4c:	08002a61 	.word	0x08002a61
 8002a50:	08002b09 	.word	0x08002b09
 8002a54:	08002bf5 	.word	0x08002bf5
 8002a58:	08002c69 	.word	0x08002c69
 8002a5c:	08002c91 	.word	0x08002c91
		  case MAIN_SCREEN:
			  if(button_pressed == B2_PRESSED){
 8002a60:	4b28      	ldr	r3, [pc, #160]	; (8002b04 <main+0x3e4>)
 8002a62:	781b      	ldrb	r3, [r3, #0]
 8002a64:	2b03      	cmp	r3, #3
 8002a66:	f040 8125 	bne.w	8002cb4 <main+0x594>
				  BACK_TO_MAIN_SETTING;
 8002a6a:	2300      	movs	r3, #0
 8002a6c:	f887 304f 	strb.w	r3, [r7, #79]	; 0x4f
 8002a70:	f897 304f 	ldrb.w	r3, [r7, #79]	; 0x4f
 8002a74:	4618      	mov	r0, r3
 8002a76:	f7fe fbe9 	bl	800124c <set_menu>
 8002a7a:	4b17      	ldr	r3, [pc, #92]	; (8002ad8 <main+0x3b8>)
 8002a7c:	2201      	movs	r2, #1
 8002a7e:	701a      	strb	r2, [r3, #0]
			  }
			  else {}
			  break;
 8002a80:	e118      	b.n	8002cb4 <main+0x594>
 8002a82:	bf00      	nop
 8002a84:	20001c57 	.word	0x20001c57
 8002a88:	20001bc8 	.word	0x20001bc8
 8002a8c:	08011f4c 	.word	0x08011f4c
 8002a90:	08011f50 	.word	0x08011f50
 8002a94:	08011f6c 	.word	0x08011f6c
 8002a98:	20000690 	.word	0x20000690
 8002a9c:	08011f7c 	.word	0x08011f7c
 8002aa0:	08011fa0 	.word	0x08011fa0
 8002aa4:	007a1200 	.word	0x007a1200
 8002aa8:	08011fb8 	.word	0x08011fb8
 8002aac:	08011fcc 	.word	0x08011fcc
 8002ab0:	08011fe4 	.word	0x08011fe4
 8002ab4:	08011ffc 	.word	0x08011ffc
 8002ab8:	08012020 	.word	0x08012020
 8002abc:	48000c00 	.word	0x48000c00
 8002ac0:	08012044 	.word	0x08012044
 8002ac4:	080021e9 	.word	0x080021e9
 8002ac8:	08002411 	.word	0x08002411
 8002acc:	08012754 	.word	0x08012754
 8002ad0:	20001cc0 	.word	0x20001cc0
 8002ad4:	08012058 	.word	0x08012058
 8002ad8:	20001d58 	.word	0x20001d58
 8002adc:	0801206c 	.word	0x0801206c
 8002ae0:	0801207c 	.word	0x0801207c
 8002ae4:	08012094 	.word	0x08012094
 8002ae8:	200001fc 	.word	0x200001fc
 8002aec:	20000614 	.word	0x20000614
 8002af0:	7f7fffff 	.word	0x7f7fffff
 8002af4:	080120a8 	.word	0x080120a8
 8002af8:	20001d5a 	.word	0x20001d5a
 8002afc:	2000082c 	.word	0x2000082c
 8002b00:	080120c0 	.word	0x080120c0
 8002b04:	20001c56 	.word	0x20001c56
		  case SET_SCREEN:
			  if(button_pressed == B2_PRESSED){
 8002b08:	4bbb      	ldr	r3, [pc, #748]	; (8002df8 <main+0x6d8>)
 8002b0a:	781b      	ldrb	r3, [r3, #0]
 8002b0c:	2b03      	cmp	r3, #3
 8002b0e:	d143      	bne.n	8002b98 <main+0x478>
				  if(baris == 0){view_ut_data(ut_ch_data,inc);state_gui = MAIN_SCREEN;}
 8002b10:	f897 304f 	ldrb.w	r3, [r7, #79]	; 0x4f
 8002b14:	2b00      	cmp	r3, #0
 8002b16:	d109      	bne.n	8002b2c <main+0x40c>
 8002b18:	4bb8      	ldr	r3, [pc, #736]	; (8002dfc <main+0x6dc>)
 8002b1a:	681b      	ldr	r3, [r3, #0]
 8002b1c:	4619      	mov	r1, r3
 8002b1e:	48b8      	ldr	r0, [pc, #736]	; (8002e00 <main+0x6e0>)
 8002b20:	f7fe ff72 	bl	8001a08 <view_ut_data>
 8002b24:	4bb7      	ldr	r3, [pc, #732]	; (8002e04 <main+0x6e4>)
 8002b26:	2200      	movs	r2, #0
 8002b28:	701a      	strb	r2, [r3, #0]
				  if(baris > 0)baris--;
				  else baris = 4;
				  set_menu(baris);
			  }
			  else {}
			  break;
 8002b2a:	e0c5      	b.n	8002cb8 <main+0x598>
				  else if(baris == 1){
 8002b2c:	f897 304f 	ldrb.w	r3, [r7, #79]	; 0x4f
 8002b30:	2b01      	cmp	r3, #1
 8002b32:	d11a      	bne.n	8002b6a <main+0x44a>
					  W25QXX_Read((uint8_t *)&config_ut,0,sizeof(config_ut));
 8002b34:	f107 0310 	add.w	r3, r7, #16
 8002b38:	222c      	movs	r2, #44	; 0x2c
 8002b3a:	2100      	movs	r1, #0
 8002b3c:	4618      	mov	r0, r3
 8002b3e:	f000 ffe5 	bl	8003b0c <W25QXX_Read>
					  view_look_config(config_ut,0);
 8002b42:	2300      	movs	r3, #0
 8002b44:	9307      	str	r3, [sp, #28]
 8002b46:	466d      	mov	r5, sp
 8002b48:	f107 0420 	add.w	r4, r7, #32
 8002b4c:	cc0f      	ldmia	r4!, {r0, r1, r2, r3}
 8002b4e:	c50f      	stmia	r5!, {r0, r1, r2, r3}
 8002b50:	e894 0007 	ldmia.w	r4, {r0, r1, r2}
 8002b54:	e885 0007 	stmia.w	r5, {r0, r1, r2}
 8002b58:	f107 0310 	add.w	r3, r7, #16
 8002b5c:	cb0f      	ldmia	r3, {r0, r1, r2, r3}
 8002b5e:	f7fe fe53 	bl	8001808 <view_look_config>
					  state_gui = VIEW_CONF_SCREEN;
 8002b62:	4ba8      	ldr	r3, [pc, #672]	; (8002e04 <main+0x6e4>)
 8002b64:	2202      	movs	r2, #2
 8002b66:	701a      	strb	r2, [r3, #0]
			  break;
 8002b68:	e0a6      	b.n	8002cb8 <main+0x598>
				  else if(baris == 2){view_calibrate(0.0);state_gui = CAL_SCREEN;}
 8002b6a:	f897 304f 	ldrb.w	r3, [r7, #79]	; 0x4f
 8002b6e:	2b02      	cmp	r3, #2
 8002b70:	d107      	bne.n	8002b82 <main+0x462>
 8002b72:	ed9f 0b9f 	vldr	d0, [pc, #636]	; 8002df0 <main+0x6d0>
 8002b76:	f7fe fc79 	bl	800146c <view_calibrate>
 8002b7a:	4ba2      	ldr	r3, [pc, #648]	; (8002e04 <main+0x6e4>)
 8002b7c:	2203      	movs	r2, #3
 8002b7e:	701a      	strb	r2, [r3, #0]
			  break;
 8002b80:	e09a      	b.n	8002cb8 <main+0x598>
				  else if(baris == 3){view_fw_info();state_gui = FW_INFO_SCREEN;}
 8002b82:	f897 304f 	ldrb.w	r3, [r7, #79]	; 0x4f
 8002b86:	2b03      	cmp	r3, #3
 8002b88:	f040 8096 	bne.w	8002cb8 <main+0x598>
 8002b8c:	f7fe fce4 	bl	8001558 <view_fw_info>
 8002b90:	4b9c      	ldr	r3, [pc, #624]	; (8002e04 <main+0x6e4>)
 8002b92:	2204      	movs	r2, #4
 8002b94:	701a      	strb	r2, [r3, #0]
			  break;
 8002b96:	e08f      	b.n	8002cb8 <main+0x598>
			  else if(button_pressed == B1_PRESSED){
 8002b98:	4b97      	ldr	r3, [pc, #604]	; (8002df8 <main+0x6d8>)
 8002b9a:	781b      	ldrb	r3, [r3, #0]
 8002b9c:	2b02      	cmp	r3, #2
 8002b9e:	d112      	bne.n	8002bc6 <main+0x4a6>
				  if(baris < 4)baris++;
 8002ba0:	f897 304f 	ldrb.w	r3, [r7, #79]	; 0x4f
 8002ba4:	2b03      	cmp	r3, #3
 8002ba6:	d805      	bhi.n	8002bb4 <main+0x494>
 8002ba8:	f897 304f 	ldrb.w	r3, [r7, #79]	; 0x4f
 8002bac:	3301      	adds	r3, #1
 8002bae:	f887 304f 	strb.w	r3, [r7, #79]	; 0x4f
 8002bb2:	e002      	b.n	8002bba <main+0x49a>
				  else baris = 0;
 8002bb4:	2300      	movs	r3, #0
 8002bb6:	f887 304f 	strb.w	r3, [r7, #79]	; 0x4f
				  set_menu(baris);
 8002bba:	f897 304f 	ldrb.w	r3, [r7, #79]	; 0x4f
 8002bbe:	4618      	mov	r0, r3
 8002bc0:	f7fe fb44 	bl	800124c <set_menu>
			  break;
 8002bc4:	e078      	b.n	8002cb8 <main+0x598>
			  else if(button_pressed == B0_PRESSED){
 8002bc6:	4b8c      	ldr	r3, [pc, #560]	; (8002df8 <main+0x6d8>)
 8002bc8:	781b      	ldrb	r3, [r3, #0]
 8002bca:	2b01      	cmp	r3, #1
 8002bcc:	d174      	bne.n	8002cb8 <main+0x598>
				  if(baris > 0)baris--;
 8002bce:	f897 304f 	ldrb.w	r3, [r7, #79]	; 0x4f
 8002bd2:	2b00      	cmp	r3, #0
 8002bd4:	d005      	beq.n	8002be2 <main+0x4c2>
 8002bd6:	f897 304f 	ldrb.w	r3, [r7, #79]	; 0x4f
 8002bda:	3b01      	subs	r3, #1
 8002bdc:	f887 304f 	strb.w	r3, [r7, #79]	; 0x4f
 8002be0:	e002      	b.n	8002be8 <main+0x4c8>
				  else baris = 4;
 8002be2:	2304      	movs	r3, #4
 8002be4:	f887 304f 	strb.w	r3, [r7, #79]	; 0x4f
				  set_menu(baris);
 8002be8:	f897 304f 	ldrb.w	r3, [r7, #79]	; 0x4f
 8002bec:	4618      	mov	r0, r3
 8002bee:	f7fe fb2d 	bl	800124c <set_menu>
			  break;
 8002bf2:	e061      	b.n	8002cb8 <main+0x598>
		  case VIEW_CONF_SCREEN:
			  if(button_pressed == B2_PRESSED){
 8002bf4:	4b80      	ldr	r3, [pc, #512]	; (8002df8 <main+0x6d8>)
 8002bf6:	781b      	ldrb	r3, [r3, #0]
 8002bf8:	2b03      	cmp	r3, #3
 8002bfa:	d10b      	bne.n	8002c14 <main+0x4f4>
				  BACK_TO_MAIN_SETTING;
 8002bfc:	2300      	movs	r3, #0
 8002bfe:	f887 304f 	strb.w	r3, [r7, #79]	; 0x4f
 8002c02:	f897 304f 	ldrb.w	r3, [r7, #79]	; 0x4f
 8002c06:	4618      	mov	r0, r3
 8002c08:	f7fe fb20 	bl	800124c <set_menu>
 8002c0c:	4b7d      	ldr	r3, [pc, #500]	; (8002e04 <main+0x6e4>)
 8002c0e:	2201      	movs	r2, #1
 8002c10:	701a      	strb	r2, [r3, #0]
			  }
			  else if(button_pressed == B1_PRESSED){
				  view_look_config(config_ut,0);
			  }
			  else{}
			  break;
 8002c12:	e053      	b.n	8002cbc <main+0x59c>
			  else if(button_pressed == B0_PRESSED){
 8002c14:	4b78      	ldr	r3, [pc, #480]	; (8002df8 <main+0x6d8>)
 8002c16:	781b      	ldrb	r3, [r3, #0]
 8002c18:	2b01      	cmp	r3, #1
 8002c1a:	d110      	bne.n	8002c3e <main+0x51e>
				  view_look_config(config_ut,1);
 8002c1c:	2301      	movs	r3, #1
 8002c1e:	9307      	str	r3, [sp, #28]
 8002c20:	466d      	mov	r5, sp
 8002c22:	f107 0420 	add.w	r4, r7, #32
 8002c26:	cc0f      	ldmia	r4!, {r0, r1, r2, r3}
 8002c28:	c50f      	stmia	r5!, {r0, r1, r2, r3}
 8002c2a:	e894 0007 	ldmia.w	r4, {r0, r1, r2}
 8002c2e:	e885 0007 	stmia.w	r5, {r0, r1, r2}
 8002c32:	f107 0310 	add.w	r3, r7, #16
 8002c36:	cb0f      	ldmia	r3, {r0, r1, r2, r3}
 8002c38:	f7fe fde6 	bl	8001808 <view_look_config>
			  break;
 8002c3c:	e03e      	b.n	8002cbc <main+0x59c>
			  else if(button_pressed == B1_PRESSED){
 8002c3e:	4b6e      	ldr	r3, [pc, #440]	; (8002df8 <main+0x6d8>)
 8002c40:	781b      	ldrb	r3, [r3, #0]
 8002c42:	2b02      	cmp	r3, #2
 8002c44:	d13a      	bne.n	8002cbc <main+0x59c>
				  view_look_config(config_ut,0);
 8002c46:	2300      	movs	r3, #0
 8002c48:	9307      	str	r3, [sp, #28]
 8002c4a:	466d      	mov	r5, sp
 8002c4c:	f107 0420 	add.w	r4, r7, #32
 8002c50:	cc0f      	ldmia	r4!, {r0, r1, r2, r3}
 8002c52:	c50f      	stmia	r5!, {r0, r1, r2, r3}
 8002c54:	e894 0007 	ldmia.w	r4, {r0, r1, r2}
 8002c58:	e885 0007 	stmia.w	r5, {r0, r1, r2}
 8002c5c:	f107 0310 	add.w	r3, r7, #16
 8002c60:	cb0f      	ldmia	r3, {r0, r1, r2, r3}
 8002c62:	f7fe fdd1 	bl	8001808 <view_look_config>
			  break;
 8002c66:	e029      	b.n	8002cbc <main+0x59c>
		  case CAL_SCREEN:
			  if(button_pressed == B2_PRESSED){
 8002c68:	4b63      	ldr	r3, [pc, #396]	; (8002df8 <main+0x6d8>)
 8002c6a:	781b      	ldrb	r3, [r3, #0]
 8002c6c:	2b03      	cmp	r3, #3
 8002c6e:	d027      	beq.n	8002cc0 <main+0x5a0>

			  }
			  else if(button_pressed == B1_PRESSED){
 8002c70:	4b61      	ldr	r3, [pc, #388]	; (8002df8 <main+0x6d8>)
 8002c72:	781b      	ldrb	r3, [r3, #0]
 8002c74:	2b02      	cmp	r3, #2
 8002c76:	d123      	bne.n	8002cc0 <main+0x5a0>
				  BACK_TO_MAIN_SETTING;
 8002c78:	2300      	movs	r3, #0
 8002c7a:	f887 304f 	strb.w	r3, [r7, #79]	; 0x4f
 8002c7e:	f897 304f 	ldrb.w	r3, [r7, #79]	; 0x4f
 8002c82:	4618      	mov	r0, r3
 8002c84:	f7fe fae2 	bl	800124c <set_menu>
 8002c88:	4b5e      	ldr	r3, [pc, #376]	; (8002e04 <main+0x6e4>)
 8002c8a:	2201      	movs	r2, #1
 8002c8c:	701a      	strb	r2, [r3, #0]
			  }
			  else{}
			  break;
 8002c8e:	e017      	b.n	8002cc0 <main+0x5a0>
		  case FW_INFO_SCREEN:
			  if(button_pressed == B2_PRESSED){
 8002c90:	4b59      	ldr	r3, [pc, #356]	; (8002df8 <main+0x6d8>)
 8002c92:	781b      	ldrb	r3, [r3, #0]
 8002c94:	2b03      	cmp	r3, #3
 8002c96:	d115      	bne.n	8002cc4 <main+0x5a4>
				  BACK_TO_MAIN_SETTING;
 8002c98:	2300      	movs	r3, #0
 8002c9a:	f887 304f 	strb.w	r3, [r7, #79]	; 0x4f
 8002c9e:	f897 304f 	ldrb.w	r3, [r7, #79]	; 0x4f
 8002ca2:	4618      	mov	r0, r3
 8002ca4:	f7fe fad2 	bl	800124c <set_menu>
 8002ca8:	4b56      	ldr	r3, [pc, #344]	; (8002e04 <main+0x6e4>)
 8002caa:	2201      	movs	r2, #1
 8002cac:	701a      	strb	r2, [r3, #0]
			  }
			  else{}
			  break;
 8002cae:	e009      	b.n	8002cc4 <main+0x5a4>
		  default:
			  break;
 8002cb0:	bf00      	nop
 8002cb2:	e008      	b.n	8002cc6 <main+0x5a6>
			  break;
 8002cb4:	bf00      	nop
 8002cb6:	e006      	b.n	8002cc6 <main+0x5a6>
			  break;
 8002cb8:	bf00      	nop
 8002cba:	e004      	b.n	8002cc6 <main+0x5a6>
			  break;
 8002cbc:	bf00      	nop
 8002cbe:	e002      	b.n	8002cc6 <main+0x5a6>
			  break;
 8002cc0:	bf00      	nop
 8002cc2:	e000      	b.n	8002cc6 <main+0x5a6>
			  break;
 8002cc4:	bf00      	nop
		  }
		  button_pressed = NO_BUTTON_PRESSED;
 8002cc6:	4b4c      	ldr	r3, [pc, #304]	; (8002df8 <main+0x6d8>)
 8002cc8:	2200      	movs	r2, #0
 8002cca:	701a      	strb	r2, [r3, #0]
		  // jika sudah selesai draw boleh perhatikan int mcp
		  HAL_NVIC_EnableIRQ(EXTI9_5_IRQn);
 8002ccc:	2017      	movs	r0, #23
 8002cce:	f002 fde8 	bl	80058a2 <HAL_NVIC_EnableIRQ>
 8002cd2:	e64e      	b.n	8002972 <main+0x252>
	  }
	  else{
		  switch(state_gui){
 8002cd4:	4b4b      	ldr	r3, [pc, #300]	; (8002e04 <main+0x6e4>)
 8002cd6:	781b      	ldrb	r3, [r3, #0]
 8002cd8:	2b03      	cmp	r3, #3
 8002cda:	d03c      	beq.n	8002d56 <main+0x636>
 8002cdc:	2b06      	cmp	r3, #6
 8002cde:	d065      	beq.n	8002dac <main+0x68c>
 8002ce0:	2b00      	cmp	r3, #0
 8002ce2:	d000      	beq.n	8002ce6 <main+0x5c6>
//			  printf("cal_offset_time_us = %f\r\n",cal_offset_time_us);
     		  if(state_gui == SAVE_CALIBRATED_SCREEN)view_saved_calibrate(&thickness);

			  break;
		  default:
			  break;
 8002ce4:	e083      	b.n	8002dee <main+0x6ce>
